{
	"web3_walkIn/seethiz.sol": {
		"Registry": {
			"abi": [
				{
					"anonymous": false,
					"inputs": [
						{
							"indexed": false,
							"internalType": "string",
							"name": "_domain",
							"type": "string"
						},
						{
							"indexed": true,
							"internalType": "address",
							"name": "_mAddress",
							"type": "address"
						},
						{
							"indexed": false,
							"internalType": "string",
							"name": "message",
							"type": "string"
						}
					],
					"name": "Log",
					"type": "event"
				},
				{
					"inputs": [
						{
							"internalType": "bytes32",
							"name": "",
							"type": "bytes32"
						}
					],
					"name": "ENSRecord",
					"outputs": [
						{
							"internalType": "address",
							"name": "owner",
							"type": "address"
						},
						{
							"internalType": "address",
							"name": "mAddress",
							"type": "address"
						}
					],
					"stateMutability": "view",
					"type": "function"
				},
				{
					"inputs": [
						{
							"internalType": "string",
							"name": "_domain",
							"type": "string"
						},
						{
							"internalType": "address",
							"name": "_mAddress",
							"type": "address"
						}
					],
					"name": "addEthName",
					"outputs": [],
					"stateMutability": "nonpayable",
					"type": "function"
				},
				{
					"inputs": [
						{
							"internalType": "string",
							"name": "_domain",
							"type": "string"
						},
						{
							"internalType": "address",
							"name": "_newAddress",
							"type": "address"
						}
					],
					"name": "changeAddress",
					"outputs": [],
					"stateMutability": "nonpayable",
					"type": "function"
				},
				{
					"inputs": [
						{
							"internalType": "string",
							"name": "_domain",
							"type": "string"
						}
					],
					"name": "getAddress",
					"outputs": [
						{
							"internalType": "address",
							"name": "",
							"type": "address"
						}
					],
					"stateMutability": "view",
					"type": "function"
				},
				{
					"inputs": [
						{
							"internalType": "string",
							"name": "_domain",
							"type": "string"
						}
					],
					"name": "node",
					"outputs": [
						{
							"internalType": "bytes32",
							"name": "",
							"type": "bytes32"
						}
					],
					"stateMutability": "pure",
					"type": "function"
				},
				{
					"inputs": [
						{
							"internalType": "string",
							"name": "_domain",
							"type": "string"
						},
						{
							"internalType": "address",
							"name": "_newOwner",
							"type": "address"
						}
					],
					"name": "transferOwnership",
					"outputs": [],
					"stateMutability": "nonpayable",
					"type": "function"
				}
			],
			"devdoc": {
				"kind": "dev",
				"methods": {},
				"version": 1
			},
			"evm": {
				"assembly": "    /* \"web3_walkIn/seethiz.sol\":101:1537  contract Registry {... */\n  mstore(0x40, 0x80)\n  callvalue\n  dup1\n  iszero\n  tag_1\n  jumpi\n  0x00\n  dup1\n  revert\ntag_1:\n  pop\n  dataSize(sub_0)\n  dup1\n  dataOffset(sub_0)\n  0x00\n  codecopy\n  0x00\n  return\nstop\n\nsub_0: assembly {\n        /* \"web3_walkIn/seethiz.sol\":101:1537  contract Registry {... */\n      mstore(0x40, 0x80)\n      callvalue\n      dup1\n      iszero\n      tag_1\n      jumpi\n      0x00\n      dup1\n      revert\n    tag_1:\n      pop\n      jumpi(tag_2, lt(calldatasize, 0x04))\n      shr(0xe0, calldataload(0x00))\n      dup1\n      0x7640cb3e\n      eq\n      tag_3\n      jumpi\n      dup1\n      0xa7dbb402\n      eq\n      tag_4\n      jumpi\n      dup1\n      0xacb3949a\n      eq\n      tag_5\n      jumpi\n      dup1\n      0xbd1045f5\n      eq\n      tag_6\n      jumpi\n      dup1\n      0xbf40fac1\n      eq\n      tag_7\n      jumpi\n      dup1\n      0xc0e793c2\n      eq\n      tag_8\n      jumpi\n    tag_2:\n      0x00\n      dup1\n      revert\n        /* \"web3_walkIn/seethiz.sol\":245:527  function addEthName(string calldata _domain, address _mAddress) public {... */\n    tag_3:\n      tag_9\n      0x04\n      dup1\n      calldatasize\n      sub\n      dup2\n      add\n      swap1\n      tag_10\n      swap2\n      swap1\n      tag_11\n      jump\t// in\n    tag_10:\n      tag_12\n      jump\t// in\n    tag_9:\n      stop\n        /* \"web3_walkIn/seethiz.sol\":810:1071  function changeAddress(string calldata _domain, address _newAddress) public onlyOwner(_domain){... */\n    tag_4:\n      tag_13\n      0x04\n      dup1\n      calldatasize\n      sub\n      dup2\n      add\n      swap1\n      tag_14\n      swap2\n      swap1\n      tag_11\n      jump\t// in\n    tag_14:\n      tag_15\n      jump\t// in\n    tag_13:\n      stop\n        /* \"web3_walkIn/seethiz.sol\":1346:1460  function node(string calldata _domain) public pure returns (bytes32) {... */\n    tag_5:\n      tag_16\n      0x04\n      dup1\n      calldatasize\n      sub\n      dup2\n      add\n      swap1\n      tag_17\n      swap2\n      swap1\n      tag_18\n      jump\t// in\n    tag_17:\n      tag_19\n      jump\t// in\n    tag_16:\n      mload(0x40)\n      tag_20\n      swap2\n      swap1\n      tag_21\n      jump\t// in\n    tag_20:\n      mload(0x40)\n      dup1\n      swap2\n      sub\n      swap1\n      return\n        /* \"web3_walkIn/seethiz.sol\":198:238  mapping(bytes32 => ENS) public ENSRecord */\n    tag_6:\n      tag_22\n      0x04\n      dup1\n      calldatasize\n      sub\n      dup2\n      add\n      swap1\n      tag_23\n      swap2\n      swap1\n      tag_24\n      jump\t// in\n    tag_23:\n      tag_25\n      jump\t// in\n    tag_22:\n      mload(0x40)\n      tag_26\n      swap3\n      swap2\n      swap1\n      tag_27\n      jump\t// in\n    tag_26:\n      mload(0x40)\n      dup1\n      swap2\n      sub\n      swap1\n      return\n        /* \"web3_walkIn/seethiz.sol\":1077:1209  function getAddress(string calldata _domain) public view returns (address) {... */\n    tag_7:\n      tag_28\n      0x04\n      dup1\n      calldatasize\n      sub\n      dup2\n      add\n      swap1\n      tag_29\n      swap2\n      swap1\n      tag_18\n      jump\t// in\n    tag_29:\n      tag_30\n      jump\t// in\n    tag_28:\n      mload(0x40)\n      tag_31\n      swap2\n      swap1\n      tag_32\n      jump\t// in\n    tag_31:\n      mload(0x40)\n      dup1\n      swap2\n      sub\n      swap1\n      return\n        /* \"web3_walkIn/seethiz.sol\":533:804  function transferOwnership(string calldata _domain, address _newOwner) public onlyOwner(_domain){... */\n    tag_8:\n      tag_33\n      0x04\n      dup1\n      calldatasize\n      sub\n      dup2\n      add\n      swap1\n      tag_34\n      swap2\n      swap1\n      tag_11\n      jump\t// in\n    tag_34:\n      tag_35\n      jump\t// in\n    tag_33:\n      stop\n        /* \"web3_walkIn/seethiz.sol\":245:527  function addEthName(string calldata _domain, address _mAddress) public {... */\n    tag_12:\n        /* \"web3_walkIn/seethiz.sol\":326:345  ENS storage ethName */\n      0x00\n        /* \"web3_walkIn/seethiz.sol\":348:357  ENSRecord */\n      dup1\n        /* \"web3_walkIn/seethiz.sol\":348:372  ENSRecord[node(_domain)] */\n      0x00\n        /* \"web3_walkIn/seethiz.sol\":358:371  node(_domain) */\n      tag_37\n        /* \"web3_walkIn/seethiz.sol\":363:370  _domain */\n      dup7\n      dup7\n        /* \"web3_walkIn/seethiz.sol\":358:362  node */\n      tag_19\n        /* \"web3_walkIn/seethiz.sol\":358:371  node(_domain) */\n      jump\t// in\n    tag_37:\n        /* \"web3_walkIn/seethiz.sol\":348:372  ENSRecord[node(_domain)] */\n      dup2\n      mstore\n      0x20\n      add\n      swap1\n      dup2\n      mstore\n      0x20\n      add\n      0x00\n      keccak256\n        /* \"web3_walkIn/seethiz.sol\":326:372  ENS storage ethName = ENSRecord[node(_domain)] */\n      swap1\n      pop\n        /* \"web3_walkIn/seethiz.sol\":398:408  msg.sender */\n      caller\n        /* \"web3_walkIn/seethiz.sol\":382:389  ethName */\n      dup2\n        /* \"web3_walkIn/seethiz.sol\":382:395  ethName.owner */\n      0x00\n      add\n      0x00\n        /* \"web3_walkIn/seethiz.sol\":382:408  ethName.owner = msg.sender */\n      0x0100\n      exp\n      dup2\n      sload\n      dup2\n      0xffffffffffffffffffffffffffffffffffffffff\n      mul\n      not\n      and\n      swap1\n      dup4\n      0xffffffffffffffffffffffffffffffffffffffff\n      and\n      mul\n      or\n      swap1\n      sstore\n      pop\n        /* \"web3_walkIn/seethiz.sol\":437:446  _mAddress */\n      dup2\n        /* \"web3_walkIn/seethiz.sol\":418:425  ethName */\n      dup2\n        /* \"web3_walkIn/seethiz.sol\":418:434  ethName.mAddress */\n      0x01\n      add\n      0x00\n        /* \"web3_walkIn/seethiz.sol\":418:446  ethName.mAddress = _mAddress */\n      0x0100\n      exp\n      dup2\n      sload\n      dup2\n      0xffffffffffffffffffffffffffffffffffffffff\n      mul\n      not\n      and\n      swap1\n      dup4\n      0xffffffffffffffffffffffffffffffffffffffff\n      and\n      mul\n      or\n      swap1\n      sstore\n      pop\n        /* \"web3_walkIn/seethiz.sol\":474:483  _mAddress */\n      dup2\n        /* \"web3_walkIn/seethiz.sol\":462:520  Log(_domain,_mAddress, \"ENS Address is succesfully added\") */\n      0xffffffffffffffffffffffffffffffffffffffff\n      and\n      0x35f3a1cf642ba4be1e05dc7b4f1296a9537a31528524b5fe3c77051f277a8216\n        /* \"web3_walkIn/seethiz.sol\":466:473  _domain */\n      dup6\n      dup6\n        /* \"web3_walkIn/seethiz.sol\":462:520  Log(_domain,_mAddress, \"ENS Address is succesfully added\") */\n      mload(0x40)\n      tag_38\n      swap3\n      swap2\n      swap1\n      tag_39\n      jump\t// in\n    tag_38:\n      mload(0x40)\n      dup1\n      swap2\n      sub\n      swap1\n      log2\n        /* \"web3_walkIn/seethiz.sol\":316:527  {... */\n      pop\n        /* \"web3_walkIn/seethiz.sol\":245:527  function addEthName(string calldata _domain, address _mAddress) public {... */\n      pop\n      pop\n      pop\n      jump\t// out\n        /* \"web3_walkIn/seethiz.sol\":810:1071  function changeAddress(string calldata _domain, address _newAddress) public onlyOwner(_domain){... */\n    tag_15:\n        /* \"web3_walkIn/seethiz.sol\":896:903  _domain */\n      dup3\n      dup3\n        /* \"web3_walkIn/seethiz.sol\":1291:1300  ENSRecord */\n      0x00\n        /* \"web3_walkIn/seethiz.sol\":1291:1315  ENSRecord[node(_domain)] */\n      dup1\n        /* \"web3_walkIn/seethiz.sol\":1301:1314  node(_domain) */\n      tag_41\n        /* \"web3_walkIn/seethiz.sol\":1306:1313  _domain */\n      dup5\n      dup5\n        /* \"web3_walkIn/seethiz.sol\":1301:1305  node */\n      tag_19\n        /* \"web3_walkIn/seethiz.sol\":1301:1314  node(_domain) */\n      jump\t// in\n    tag_41:\n        /* \"web3_walkIn/seethiz.sol\":1291:1315  ENSRecord[node(_domain)] */\n      dup2\n      mstore\n      0x20\n      add\n      swap1\n      dup2\n      mstore\n      0x20\n      add\n      0x00\n      keccak256\n        /* \"web3_walkIn/seethiz.sol\":1291:1321  ENSRecord[node(_domain)].owner */\n      0x00\n      add\n      0x00\n      swap1\n      sload\n      swap1\n      0x0100\n      exp\n      swap1\n      div\n      0xffffffffffffffffffffffffffffffffffffffff\n      and\n        /* \"web3_walkIn/seethiz.sol\":1277:1321  msg.sender == ENSRecord[node(_domain)].owner */\n      0xffffffffffffffffffffffffffffffffffffffff\n      and\n        /* \"web3_walkIn/seethiz.sol\":1277:1287  msg.sender */\n      caller\n        /* \"web3_walkIn/seethiz.sol\":1277:1321  msg.sender == ENSRecord[node(_domain)].owner */\n      0xffffffffffffffffffffffffffffffffffffffff\n      and\n      eq\n        /* \"web3_walkIn/seethiz.sol\":1269:1322  require(msg.sender == ENSRecord[node(_domain)].owner) */\n      tag_42\n      jumpi\n      0x00\n      dup1\n      revert\n    tag_42:\n        /* \"web3_walkIn/seethiz.sol\":914:933  ENS storage ethName */\n      0x00\n        /* \"web3_walkIn/seethiz.sol\":936:945  ENSRecord */\n      dup1\n        /* \"web3_walkIn/seethiz.sol\":936:960  ENSRecord[node(_domain)] */\n      0x00\n        /* \"web3_walkIn/seethiz.sol\":946:959  node(_domain) */\n      tag_44\n        /* \"web3_walkIn/seethiz.sol\":951:958  _domain */\n      dup9\n      dup9\n        /* \"web3_walkIn/seethiz.sol\":946:950  node */\n      tag_19\n        /* \"web3_walkIn/seethiz.sol\":946:959  node(_domain) */\n      jump\t// in\n    tag_44:\n        /* \"web3_walkIn/seethiz.sol\":936:960  ENSRecord[node(_domain)] */\n      dup2\n      mstore\n      0x20\n      add\n      swap1\n      dup2\n      mstore\n      0x20\n      add\n      0x00\n      keccak256\n        /* \"web3_walkIn/seethiz.sol\":914:960  ENS storage ethName = ENSRecord[node(_domain)] */\n      swap1\n      pop\n        /* \"web3_walkIn/seethiz.sol\":989:1000  _newAddress */\n      dup4\n        /* \"web3_walkIn/seethiz.sol\":970:977  ethName */\n      dup2\n        /* \"web3_walkIn/seethiz.sol\":970:986  ethName.mAddress */\n      0x01\n      add\n      0x00\n        /* \"web3_walkIn/seethiz.sol\":970:1000  ethName.mAddress = _newAddress */\n      0x0100\n      exp\n      dup2\n      sload\n      dup2\n      0xffffffffffffffffffffffffffffffffffffffff\n      mul\n      not\n      and\n      swap1\n      dup4\n      0xffffffffffffffffffffffffffffffffffffffff\n      and\n      mul\n      or\n      swap1\n      sstore\n      pop\n        /* \"web3_walkIn/seethiz.sol\":1029:1040  _newAddress */\n      dup4\n        /* \"web3_walkIn/seethiz.sol\":1016:1064  Log(_domain, _newAddress, \"ENS Address changed\") */\n      0xffffffffffffffffffffffffffffffffffffffff\n      and\n      0x35f3a1cf642ba4be1e05dc7b4f1296a9537a31528524b5fe3c77051f277a8216\n        /* \"web3_walkIn/seethiz.sol\":1020:1027  _domain */\n      dup8\n      dup8\n        /* \"web3_walkIn/seethiz.sol\":1016:1064  Log(_domain, _newAddress, \"ENS Address changed\") */\n      mload(0x40)\n      tag_45\n      swap3\n      swap2\n      swap1\n      tag_46\n      jump\t// in\n    tag_45:\n      mload(0x40)\n      dup1\n      swap2\n      sub\n      swap1\n      log2\n        /* \"web3_walkIn/seethiz.sol\":904:1071  {... */\n      pop\n        /* \"web3_walkIn/seethiz.sol\":810:1071  function changeAddress(string calldata _domain, address _newAddress) public onlyOwner(_domain){... */\n      pop\n      pop\n      pop\n      pop\n      pop\n      jump\t// out\n        /* \"web3_walkIn/seethiz.sol\":1346:1460  function node(string calldata _domain) public pure returns (bytes32) {... */\n    tag_19:\n        /* \"web3_walkIn/seethiz.sol\":1406:1413  bytes32 */\n      0x00\n        /* \"web3_walkIn/seethiz.sol\":1444:1451  _domain */\n      dup3\n      dup3\n        /* \"web3_walkIn/seethiz.sol\":1428:1453  keccak256(bytes(_domain)) */\n      mload(0x40)\n      tag_48\n      swap3\n      swap2\n      swap1\n      tag_49\n      jump\t// in\n    tag_48:\n      mload(0x40)\n      dup1\n      swap2\n      sub\n      swap1\n      keccak256\n        /* \"web3_walkIn/seethiz.sol\":1421:1453  return keccak256(bytes(_domain)) */\n      swap1\n      pop\n        /* \"web3_walkIn/seethiz.sol\":1346:1460  function node(string calldata _domain) public pure returns (bytes32) {... */\n      swap3\n      swap2\n      pop\n      pop\n      jump\t// out\n        /* \"web3_walkIn/seethiz.sol\":198:238  mapping(bytes32 => ENS) public ENSRecord */\n    tag_25:\n      mstore(0x20, 0x00)\n      dup1\n      0x00\n      mstore\n      keccak256(0x00, 0x40)\n      0x00\n      swap2\n      pop\n      swap1\n      pop\n      dup1\n      0x00\n      add\n      0x00\n      swap1\n      sload\n      swap1\n      0x0100\n      exp\n      swap1\n      div\n      0xffffffffffffffffffffffffffffffffffffffff\n      and\n      swap1\n      dup1\n      0x01\n      add\n      0x00\n      swap1\n      sload\n      swap1\n      0x0100\n      exp\n      swap1\n      div\n      0xffffffffffffffffffffffffffffffffffffffff\n      and\n      swap1\n      pop\n      dup3\n      jump\t// out\n        /* \"web3_walkIn/seethiz.sol\":1077:1209  function getAddress(string calldata _domain) public view returns (address) {... */\n    tag_30:\n        /* \"web3_walkIn/seethiz.sol\":1143:1150  address */\n      0x00\n        /* \"web3_walkIn/seethiz.sol\":1169:1178  ENSRecord */\n      dup1\n        /* \"web3_walkIn/seethiz.sol\":1169:1193  ENSRecord[node(_domain)] */\n      0x00\n        /* \"web3_walkIn/seethiz.sol\":1179:1192  node(_domain) */\n      tag_51\n        /* \"web3_walkIn/seethiz.sol\":1184:1191  _domain */\n      dup6\n      dup6\n        /* \"web3_walkIn/seethiz.sol\":1179:1183  node */\n      tag_19\n        /* \"web3_walkIn/seethiz.sol\":1179:1192  node(_domain) */\n      jump\t// in\n    tag_51:\n        /* \"web3_walkIn/seethiz.sol\":1169:1193  ENSRecord[node(_domain)] */\n      dup2\n      mstore\n      0x20\n      add\n      swap1\n      dup2\n      mstore\n      0x20\n      add\n      0x00\n      keccak256\n        /* \"web3_walkIn/seethiz.sol\":1169:1202  ENSRecord[node(_domain)].mAddress */\n      0x01\n      add\n      0x00\n      swap1\n      sload\n      swap1\n      0x0100\n      exp\n      swap1\n      div\n      0xffffffffffffffffffffffffffffffffffffffff\n      and\n        /* \"web3_walkIn/seethiz.sol\":1162:1202  return ENSRecord[node(_domain)].mAddress */\n      swap1\n      pop\n        /* \"web3_walkIn/seethiz.sol\":1077:1209  function getAddress(string calldata _domain) public view returns (address) {... */\n      swap3\n      swap2\n      pop\n      pop\n      jump\t// out\n        /* \"web3_walkIn/seethiz.sol\":533:804  function transferOwnership(string calldata _domain, address _newOwner) public onlyOwner(_domain){... */\n    tag_35:\n        /* \"web3_walkIn/seethiz.sol\":621:628  _domain */\n      dup3\n      dup3\n        /* \"web3_walkIn/seethiz.sol\":1291:1300  ENSRecord */\n      0x00\n        /* \"web3_walkIn/seethiz.sol\":1291:1315  ENSRecord[node(_domain)] */\n      dup1\n        /* \"web3_walkIn/seethiz.sol\":1301:1314  node(_domain) */\n      tag_53\n        /* \"web3_walkIn/seethiz.sol\":1306:1313  _domain */\n      dup5\n      dup5\n        /* \"web3_walkIn/seethiz.sol\":1301:1305  node */\n      tag_19\n        /* \"web3_walkIn/seethiz.sol\":1301:1314  node(_domain) */\n      jump\t// in\n    tag_53:\n        /* \"web3_walkIn/seethiz.sol\":1291:1315  ENSRecord[node(_domain)] */\n      dup2\n      mstore\n      0x20\n      add\n      swap1\n      dup2\n      mstore\n      0x20\n      add\n      0x00\n      keccak256\n        /* \"web3_walkIn/seethiz.sol\":1291:1321  ENSRecord[node(_domain)].owner */\n      0x00\n      add\n      0x00\n      swap1\n      sload\n      swap1\n      0x0100\n      exp\n      swap1\n      div\n      0xffffffffffffffffffffffffffffffffffffffff\n      and\n        /* \"web3_walkIn/seethiz.sol\":1277:1321  msg.sender == ENSRecord[node(_domain)].owner */\n      0xffffffffffffffffffffffffffffffffffffffff\n      and\n        /* \"web3_walkIn/seethiz.sol\":1277:1287  msg.sender */\n      caller\n        /* \"web3_walkIn/seethiz.sol\":1277:1321  msg.sender == ENSRecord[node(_domain)].owner */\n      0xffffffffffffffffffffffffffffffffffffffff\n      and\n      eq\n        /* \"web3_walkIn/seethiz.sol\":1269:1322  require(msg.sender == ENSRecord[node(_domain)].owner) */\n      tag_54\n      jumpi\n      0x00\n      dup1\n      revert\n    tag_54:\n        /* \"web3_walkIn/seethiz.sol\":639:658  ENS storage ethName */\n      0x00\n        /* \"web3_walkIn/seethiz.sol\":661:670  ENSRecord */\n      dup1\n        /* \"web3_walkIn/seethiz.sol\":661:685  ENSRecord[node(_domain)] */\n      0x00\n        /* \"web3_walkIn/seethiz.sol\":671:684  node(_domain) */\n      tag_56\n        /* \"web3_walkIn/seethiz.sol\":676:683  _domain */\n      dup9\n      dup9\n        /* \"web3_walkIn/seethiz.sol\":671:675  node */\n      tag_19\n        /* \"web3_walkIn/seethiz.sol\":671:684  node(_domain) */\n      jump\t// in\n    tag_56:\n        /* \"web3_walkIn/seethiz.sol\":661:685  ENSRecord[node(_domain)] */\n      dup2\n      mstore\n      0x20\n      add\n      swap1\n      dup2\n      mstore\n      0x20\n      add\n      0x00\n      keccak256\n        /* \"web3_walkIn/seethiz.sol\":639:685  ENS storage ethName = ENSRecord[node(_domain)] */\n      swap1\n      pop\n        /* \"web3_walkIn/seethiz.sol\":711:720  _newOwner */\n      dup4\n        /* \"web3_walkIn/seethiz.sol\":695:702  ethName */\n      dup2\n        /* \"web3_walkIn/seethiz.sol\":695:708  ethName.owner */\n      0x00\n      add\n      0x00\n        /* \"web3_walkIn/seethiz.sol\":695:720  ethName.owner = _newOwner */\n      0x0100\n      exp\n      dup2\n      sload\n      dup2\n      0xffffffffffffffffffffffffffffffffffffffff\n      mul\n      not\n      and\n      swap1\n      dup4\n      0xffffffffffffffffffffffffffffffffffffffff\n      and\n      mul\n      or\n      swap1\n      sstore\n      pop\n        /* \"web3_walkIn/seethiz.sol\":750:759  _newOwner */\n      dup4\n        /* \"web3_walkIn/seethiz.sol\":737:797  Log(_domain, _newOwner, \"Ownership successfully transfered\") */\n      0xffffffffffffffffffffffffffffffffffffffff\n      and\n      0x35f3a1cf642ba4be1e05dc7b4f1296a9537a31528524b5fe3c77051f277a8216\n        /* \"web3_walkIn/seethiz.sol\":741:748  _domain */\n      dup8\n      dup8\n        /* \"web3_walkIn/seethiz.sol\":737:797  Log(_domain, _newOwner, \"Ownership successfully transfered\") */\n      mload(0x40)\n      tag_57\n      swap3\n      swap2\n      swap1\n      tag_58\n      jump\t// in\n    tag_57:\n      mload(0x40)\n      dup1\n      swap2\n      sub\n      swap1\n      log2\n        /* \"web3_walkIn/seethiz.sol\":629:804  {... */\n      pop\n        /* \"web3_walkIn/seethiz.sol\":533:804  function transferOwnership(string calldata _domain, address _newOwner) public onlyOwner(_domain){... */\n      pop\n      pop\n      pop\n      pop\n      pop\n      jump\t// out\n        /* \"#utility.yul\":7:146   */\n    tag_60:\n        /* \"#utility.yul\":53:58   */\n      0x00\n        /* \"#utility.yul\":91:97   */\n      dup2\n        /* \"#utility.yul\":78:98   */\n      calldataload\n        /* \"#utility.yul\":69:98   */\n      swap1\n      pop\n        /* \"#utility.yul\":107:140   */\n      tag_62\n        /* \"#utility.yul\":134:139   */\n      dup2\n        /* \"#utility.yul\":107:140   */\n      tag_63\n      jump\t// in\n    tag_62:\n        /* \"#utility.yul\":7:146   */\n      swap3\n      swap2\n      pop\n      pop\n      jump\t// out\n        /* \"#utility.yul\":152:291   */\n    tag_64:\n        /* \"#utility.yul\":198:203   */\n      0x00\n        /* \"#utility.yul\":236:242   */\n      dup2\n        /* \"#utility.yul\":223:243   */\n      calldataload\n        /* \"#utility.yul\":214:243   */\n      swap1\n      pop\n        /* \"#utility.yul\":252:285   */\n      tag_66\n        /* \"#utility.yul\":279:284   */\n      dup2\n        /* \"#utility.yul\":252:285   */\n      tag_67\n      jump\t// in\n    tag_66:\n        /* \"#utility.yul\":152:291   */\n      swap3\n      swap2\n      pop\n      pop\n      jump\t// out\n        /* \"#utility.yul\":311:864   */\n    tag_68:\n        /* \"#utility.yul\":369:377   */\n      0x00\n        /* \"#utility.yul\":379:385   */\n      dup1\n        /* \"#utility.yul\":429:432   */\n      dup4\n        /* \"#utility.yul\":422:426   */\n      0x1f\n        /* \"#utility.yul\":414:420   */\n      dup5\n        /* \"#utility.yul\":410:427   */\n      add\n        /* \"#utility.yul\":406:433   */\n      slt\n        /* \"#utility.yul\":396:518   */\n      tag_70\n      jumpi\n        /* \"#utility.yul\":437:516   */\n      tag_71\n      tag_72\n      jump\t// in\n    tag_71:\n        /* \"#utility.yul\":396:518   */\n    tag_70:\n        /* \"#utility.yul\":550:556   */\n      dup3\n        /* \"#utility.yul\":537:557   */\n      calldataload\n        /* \"#utility.yul\":527:557   */\n      swap1\n      pop\n        /* \"#utility.yul\":580:598   */\n      0xffffffffffffffff\n        /* \"#utility.yul\":572:578   */\n      dup2\n        /* \"#utility.yul\":569:599   */\n      gt\n        /* \"#utility.yul\":566:683   */\n      iszero\n      tag_73\n      jumpi\n        /* \"#utility.yul\":602:681   */\n      tag_74\n      tag_75\n      jump\t// in\n    tag_74:\n        /* \"#utility.yul\":566:683   */\n    tag_73:\n        /* \"#utility.yul\":716:720   */\n      0x20\n        /* \"#utility.yul\":708:714   */\n      dup4\n        /* \"#utility.yul\":704:721   */\n      add\n        /* \"#utility.yul\":692:721   */\n      swap2\n      pop\n        /* \"#utility.yul\":770:773   */\n      dup4\n        /* \"#utility.yul\":762:766   */\n      0x01\n        /* \"#utility.yul\":754:760   */\n      dup3\n        /* \"#utility.yul\":750:767   */\n      mul\n        /* \"#utility.yul\":740:748   */\n      dup4\n        /* \"#utility.yul\":736:768   */\n      add\n        /* \"#utility.yul\":733:774   */\n      gt\n        /* \"#utility.yul\":730:858   */\n      iszero\n      tag_76\n      jumpi\n        /* \"#utility.yul\":777:856   */\n      tag_77\n      tag_78\n      jump\t// in\n    tag_77:\n        /* \"#utility.yul\":730:858   */\n    tag_76:\n        /* \"#utility.yul\":311:864   */\n      swap3\n      pop\n      swap3\n      swap1\n      pop\n      jump\t// out\n        /* \"#utility.yul\":870:1199   */\n    tag_24:\n        /* \"#utility.yul\":929:935   */\n      0x00\n        /* \"#utility.yul\":978:980   */\n      0x20\n        /* \"#utility.yul\":966:975   */\n      dup3\n        /* \"#utility.yul\":957:964   */\n      dup5\n        /* \"#utility.yul\":953:976   */\n      sub\n        /* \"#utility.yul\":949:981   */\n      slt\n        /* \"#utility.yul\":946:1065   */\n      iszero\n      tag_80\n      jumpi\n        /* \"#utility.yul\":984:1063   */\n      tag_81\n      tag_82\n      jump\t// in\n    tag_81:\n        /* \"#utility.yul\":946:1065   */\n    tag_80:\n        /* \"#utility.yul\":1104:1105   */\n      0x00\n        /* \"#utility.yul\":1129:1182   */\n      tag_83\n        /* \"#utility.yul\":1174:1181   */\n      dup5\n        /* \"#utility.yul\":1165:1171   */\n      dup3\n        /* \"#utility.yul\":1154:1163   */\n      dup6\n        /* \"#utility.yul\":1150:1172   */\n      add\n        /* \"#utility.yul\":1129:1182   */\n      tag_64\n      jump\t// in\n    tag_83:\n        /* \"#utility.yul\":1119:1182   */\n      swap2\n      pop\n        /* \"#utility.yul\":1075:1192   */\n      pop\n        /* \"#utility.yul\":870:1199   */\n      swap3\n      swap2\n      pop\n      pop\n      jump\t// out\n        /* \"#utility.yul\":1205:1734   */\n    tag_18:\n        /* \"#utility.yul\":1276:1282   */\n      0x00\n        /* \"#utility.yul\":1284:1290   */\n      dup1\n        /* \"#utility.yul\":1333:1335   */\n      0x20\n        /* \"#utility.yul\":1321:1330   */\n      dup4\n        /* \"#utility.yul\":1312:1319   */\n      dup6\n        /* \"#utility.yul\":1308:1331   */\n      sub\n        /* \"#utility.yul\":1304:1336   */\n      slt\n        /* \"#utility.yul\":1301:1420   */\n      iszero\n      tag_85\n      jumpi\n        /* \"#utility.yul\":1339:1418   */\n      tag_86\n      tag_82\n      jump\t// in\n    tag_86:\n        /* \"#utility.yul\":1301:1420   */\n    tag_85:\n        /* \"#utility.yul\":1487:1488   */\n      0x00\n        /* \"#utility.yul\":1476:1485   */\n      dup4\n        /* \"#utility.yul\":1472:1489   */\n      add\n        /* \"#utility.yul\":1459:1490   */\n      calldataload\n        /* \"#utility.yul\":1517:1535   */\n      0xffffffffffffffff\n        /* \"#utility.yul\":1509:1515   */\n      dup2\n        /* \"#utility.yul\":1506:1536   */\n      gt\n        /* \"#utility.yul\":1503:1620   */\n      iszero\n      tag_87\n      jumpi\n        /* \"#utility.yul\":1539:1618   */\n      tag_88\n      tag_89\n      jump\t// in\n    tag_88:\n        /* \"#utility.yul\":1503:1620   */\n    tag_87:\n        /* \"#utility.yul\":1652:1717   */\n      tag_90\n        /* \"#utility.yul\":1709:1716   */\n      dup6\n        /* \"#utility.yul\":1700:1706   */\n      dup3\n        /* \"#utility.yul\":1689:1698   */\n      dup7\n        /* \"#utility.yul\":1685:1707   */\n      add\n        /* \"#utility.yul\":1652:1717   */\n      tag_68\n      jump\t// in\n    tag_90:\n        /* \"#utility.yul\":1634:1717   */\n      swap3\n      pop\n      swap3\n      pop\n        /* \"#utility.yul\":1430:1727   */\n      pop\n        /* \"#utility.yul\":1205:1734   */\n      swap3\n      pop\n      swap3\n      swap1\n      pop\n      jump\t// out\n        /* \"#utility.yul\":1740:2414   */\n    tag_11:\n        /* \"#utility.yul\":1820:1826   */\n      0x00\n        /* \"#utility.yul\":1828:1834   */\n      dup1\n        /* \"#utility.yul\":1836:1842   */\n      0x00\n        /* \"#utility.yul\":1885:1887   */\n      0x40\n        /* \"#utility.yul\":1873:1882   */\n      dup5\n        /* \"#utility.yul\":1864:1871   */\n      dup7\n        /* \"#utility.yul\":1860:1883   */\n      sub\n        /* \"#utility.yul\":1856:1888   */\n      slt\n        /* \"#utility.yul\":1853:1972   */\n      iszero\n      tag_92\n      jumpi\n        /* \"#utility.yul\":1891:1970   */\n      tag_93\n      tag_82\n      jump\t// in\n    tag_93:\n        /* \"#utility.yul\":1853:1972   */\n    tag_92:\n        /* \"#utility.yul\":2039:2040   */\n      0x00\n        /* \"#utility.yul\":2028:2037   */\n      dup5\n        /* \"#utility.yul\":2024:2041   */\n      add\n        /* \"#utility.yul\":2011:2042   */\n      calldataload\n        /* \"#utility.yul\":2069:2087   */\n      0xffffffffffffffff\n        /* \"#utility.yul\":2061:2067   */\n      dup2\n        /* \"#utility.yul\":2058:2088   */\n      gt\n        /* \"#utility.yul\":2055:2172   */\n      iszero\n      tag_94\n      jumpi\n        /* \"#utility.yul\":2091:2170   */\n      tag_95\n      tag_89\n      jump\t// in\n    tag_95:\n        /* \"#utility.yul\":2055:2172   */\n    tag_94:\n        /* \"#utility.yul\":2204:2269   */\n      tag_96\n        /* \"#utility.yul\":2261:2268   */\n      dup7\n        /* \"#utility.yul\":2252:2258   */\n      dup3\n        /* \"#utility.yul\":2241:2250   */\n      dup8\n        /* \"#utility.yul\":2237:2259   */\n      add\n        /* \"#utility.yul\":2204:2269   */\n      tag_68\n      jump\t// in\n    tag_96:\n        /* \"#utility.yul\":2186:2269   */\n      swap4\n      pop\n      swap4\n      pop\n        /* \"#utility.yul\":1982:2279   */\n      pop\n        /* \"#utility.yul\":2318:2320   */\n      0x20\n        /* \"#utility.yul\":2344:2397   */\n      tag_97\n        /* \"#utility.yul\":2389:2396   */\n      dup7\n        /* \"#utility.yul\":2380:2386   */\n      dup3\n        /* \"#utility.yul\":2369:2378   */\n      dup8\n        /* \"#utility.yul\":2365:2387   */\n      add\n        /* \"#utility.yul\":2344:2397   */\n      tag_60\n      jump\t// in\n    tag_97:\n        /* \"#utility.yul\":2334:2397   */\n      swap2\n      pop\n        /* \"#utility.yul\":2289:2407   */\n      pop\n        /* \"#utility.yul\":1740:2414   */\n      swap3\n      pop\n      swap3\n      pop\n      swap3\n      jump\t// out\n        /* \"#utility.yul\":2420:2538   */\n    tag_98:\n        /* \"#utility.yul\":2507:2531   */\n      tag_100\n        /* \"#utility.yul\":2525:2530   */\n      dup2\n        /* \"#utility.yul\":2507:2531   */\n      tag_101\n      jump\t// in\n    tag_100:\n        /* \"#utility.yul\":2502:2505   */\n      dup3\n        /* \"#utility.yul\":2495:2532   */\n      mstore\n        /* \"#utility.yul\":2420:2538   */\n      pop\n      pop\n      jump\t// out\n        /* \"#utility.yul\":2544:2662   */\n    tag_102:\n        /* \"#utility.yul\":2631:2655   */\n      tag_104\n        /* \"#utility.yul\":2649:2654   */\n      dup2\n        /* \"#utility.yul\":2631:2655   */\n      tag_105\n      jump\t// in\n    tag_104:\n        /* \"#utility.yul\":2626:2629   */\n      dup3\n        /* \"#utility.yul\":2619:2656   */\n      mstore\n        /* \"#utility.yul\":2544:2662   */\n      pop\n      pop\n      jump\t// out\n        /* \"#utility.yul\":2690:3004   */\n    tag_106:\n        /* \"#utility.yul\":2804:2807   */\n      0x00\n        /* \"#utility.yul\":2825:2913   */\n      tag_108\n        /* \"#utility.yul\":2906:2912   */\n      dup4\n        /* \"#utility.yul\":2901:2904   */\n      dup6\n        /* \"#utility.yul\":2825:2913   */\n      tag_109\n      jump\t// in\n    tag_108:\n        /* \"#utility.yul\":2818:2913   */\n      swap4\n      pop\n        /* \"#utility.yul\":2923:2966   */\n      tag_110\n        /* \"#utility.yul\":2959:2965   */\n      dup4\n        /* \"#utility.yul\":2954:2957   */\n      dup6\n        /* \"#utility.yul\":2947:2952   */\n      dup5\n        /* \"#utility.yul\":2923:2966   */\n      tag_111\n      jump\t// in\n    tag_110:\n        /* \"#utility.yul\":2991:2997   */\n      dup3\n        /* \"#utility.yul\":2986:2989   */\n      dup5\n        /* \"#utility.yul\":2982:2998   */\n      add\n        /* \"#utility.yul\":2975:2998   */\n      swap1\n      pop\n        /* \"#utility.yul\":2690:3004   */\n      swap4\n      swap3\n      pop\n      pop\n      pop\n      jump\t// out\n        /* \"#utility.yul\":3034:3338   */\n    tag_112:\n        /* \"#utility.yul\":3132:3135   */\n      0x00\n        /* \"#utility.yul\":3153:3224   */\n      tag_114\n        /* \"#utility.yul\":3217:3223   */\n      dup4\n        /* \"#utility.yul\":3212:3215   */\n      dup6\n        /* \"#utility.yul\":3153:3224   */\n      tag_115\n      jump\t// in\n    tag_114:\n        /* \"#utility.yul\":3146:3224   */\n      swap4\n      pop\n        /* \"#utility.yul\":3234:3277   */\n      tag_116\n        /* \"#utility.yul\":3270:3276   */\n      dup4\n        /* \"#utility.yul\":3265:3268   */\n      dup6\n        /* \"#utility.yul\":3258:3263   */\n      dup5\n        /* \"#utility.yul\":3234:3277   */\n      tag_111\n      jump\t// in\n    tag_116:\n        /* \"#utility.yul\":3302:3331   */\n      tag_117\n        /* \"#utility.yul\":3324:3330   */\n      dup4\n        /* \"#utility.yul\":3302:3331   */\n      tag_118\n      jump\t// in\n    tag_117:\n        /* \"#utility.yul\":3297:3300   */\n      dup5\n        /* \"#utility.yul\":3293:3332   */\n      add\n        /* \"#utility.yul\":3286:3332   */\n      swap1\n      pop\n        /* \"#utility.yul\":3034:3338   */\n      swap4\n      swap3\n      pop\n      pop\n      pop\n      jump\t// out\n        /* \"#utility.yul\":3344:3710   */\n    tag_119:\n        /* \"#utility.yul\":3486:3489   */\n      0x00\n        /* \"#utility.yul\":3507:3574   */\n      tag_121\n        /* \"#utility.yul\":3571:3573   */\n      0x13\n        /* \"#utility.yul\":3566:3569   */\n      dup4\n        /* \"#utility.yul\":3507:3574   */\n      tag_115\n      jump\t// in\n    tag_121:\n        /* \"#utility.yul\":3500:3574   */\n      swap2\n      pop\n        /* \"#utility.yul\":3583:3676   */\n      tag_122\n        /* \"#utility.yul\":3672:3675   */\n      dup3\n        /* \"#utility.yul\":3583:3676   */\n      tag_123\n      jump\t// in\n    tag_122:\n        /* \"#utility.yul\":3701:3703   */\n      0x20\n        /* \"#utility.yul\":3696:3699   */\n      dup3\n        /* \"#utility.yul\":3692:3704   */\n      add\n        /* \"#utility.yul\":3685:3704   */\n      swap1\n      pop\n        /* \"#utility.yul\":3344:3710   */\n      swap2\n      swap1\n      pop\n      jump\t// out\n        /* \"#utility.yul\":3716:4082   */\n    tag_124:\n        /* \"#utility.yul\":3858:3861   */\n      0x00\n        /* \"#utility.yul\":3879:3946   */\n      tag_126\n        /* \"#utility.yul\":3943:3945   */\n      0x20\n        /* \"#utility.yul\":3938:3941   */\n      dup4\n        /* \"#utility.yul\":3879:3946   */\n      tag_115\n      jump\t// in\n    tag_126:\n        /* \"#utility.yul\":3872:3946   */\n      swap2\n      pop\n        /* \"#utility.yul\":3955:4048   */\n      tag_127\n        /* \"#utility.yul\":4044:4047   */\n      dup3\n        /* \"#utility.yul\":3955:4048   */\n      tag_128\n      jump\t// in\n    tag_127:\n        /* \"#utility.yul\":4073:4075   */\n      0x20\n        /* \"#utility.yul\":4068:4071   */\n      dup3\n        /* \"#utility.yul\":4064:4076   */\n      add\n        /* \"#utility.yul\":4057:4076   */\n      swap1\n      pop\n        /* \"#utility.yul\":3716:4082   */\n      swap2\n      swap1\n      pop\n      jump\t// out\n        /* \"#utility.yul\":4088:4454   */\n    tag_129:\n        /* \"#utility.yul\":4230:4233   */\n      0x00\n        /* \"#utility.yul\":4251:4318   */\n      tag_131\n        /* \"#utility.yul\":4315:4317   */\n      0x21\n        /* \"#utility.yul\":4310:4313   */\n      dup4\n        /* \"#utility.yul\":4251:4318   */\n      tag_115\n      jump\t// in\n    tag_131:\n        /* \"#utility.yul\":4244:4318   */\n      swap2\n      pop\n        /* \"#utility.yul\":4327:4420   */\n      tag_132\n        /* \"#utility.yul\":4416:4419   */\n      dup3\n        /* \"#utility.yul\":4327:4420   */\n      tag_133\n      jump\t// in\n    tag_132:\n        /* \"#utility.yul\":4445:4447   */\n      0x40\n        /* \"#utility.yul\":4440:4443   */\n      dup3\n        /* \"#utility.yul\":4436:4448   */\n      add\n        /* \"#utility.yul\":4429:4448   */\n      swap1\n      pop\n        /* \"#utility.yul\":4088:4454   */\n      swap2\n      swap1\n      pop\n      jump\t// out\n        /* \"#utility.yul\":4460:4751   */\n    tag_49:\n        /* \"#utility.yul\":4600:4603   */\n      0x00\n        /* \"#utility.yul\":4622:4725   */\n      tag_135\n        /* \"#utility.yul\":4721:4724   */\n      dup3\n        /* \"#utility.yul\":4712:4718   */\n      dup5\n        /* \"#utility.yul\":4704:4710   */\n      dup7\n        /* \"#utility.yul\":4622:4725   */\n      tag_106\n      jump\t// in\n    tag_135:\n        /* \"#utility.yul\":4615:4725   */\n      swap2\n      pop\n        /* \"#utility.yul\":4742:4745   */\n      dup2\n        /* \"#utility.yul\":4735:4745   */\n      swap1\n      pop\n        /* \"#utility.yul\":4460:4751   */\n      swap4\n      swap3\n      pop\n      pop\n      pop\n      jump\t// out\n        /* \"#utility.yul\":4757:4979   */\n    tag_32:\n        /* \"#utility.yul\":4850:4854   */\n      0x00\n        /* \"#utility.yul\":4888:4890   */\n      0x20\n        /* \"#utility.yul\":4877:4886   */\n      dup3\n        /* \"#utility.yul\":4873:4891   */\n      add\n        /* \"#utility.yul\":4865:4891   */\n      swap1\n      pop\n        /* \"#utility.yul\":4901:4972   */\n      tag_137\n        /* \"#utility.yul\":4969:4970   */\n      0x00\n        /* \"#utility.yul\":4958:4967   */\n      dup4\n        /* \"#utility.yul\":4954:4971   */\n      add\n        /* \"#utility.yul\":4945:4951   */\n      dup5\n        /* \"#utility.yul\":4901:4972   */\n      tag_98\n      jump\t// in\n    tag_137:\n        /* \"#utility.yul\":4757:4979   */\n      swap3\n      swap2\n      pop\n      pop\n      jump\t// out\n        /* \"#utility.yul\":4985:5317   */\n    tag_27:\n        /* \"#utility.yul\":5106:5110   */\n      0x00\n        /* \"#utility.yul\":5144:5146   */\n      0x40\n        /* \"#utility.yul\":5133:5142   */\n      dup3\n        /* \"#utility.yul\":5129:5147   */\n      add\n        /* \"#utility.yul\":5121:5147   */\n      swap1\n      pop\n        /* \"#utility.yul\":5157:5228   */\n      tag_139\n        /* \"#utility.yul\":5225:5226   */\n      0x00\n        /* \"#utility.yul\":5214:5223   */\n      dup4\n        /* \"#utility.yul\":5210:5227   */\n      add\n        /* \"#utility.yul\":5201:5207   */\n      dup6\n        /* \"#utility.yul\":5157:5228   */\n      tag_98\n      jump\t// in\n    tag_139:\n        /* \"#utility.yul\":5238:5310   */\n      tag_140\n        /* \"#utility.yul\":5306:5308   */\n      0x20\n        /* \"#utility.yul\":5295:5304   */\n      dup4\n        /* \"#utility.yul\":5291:5309   */\n      add\n        /* \"#utility.yul\":5282:5288   */\n      dup5\n        /* \"#utility.yul\":5238:5310   */\n      tag_98\n      jump\t// in\n    tag_140:\n        /* \"#utility.yul\":4985:5317   */\n      swap4\n      swap3\n      pop\n      pop\n      pop\n      jump\t// out\n        /* \"#utility.yul\":5323:5545   */\n    tag_21:\n        /* \"#utility.yul\":5416:5420   */\n      0x00\n        /* \"#utility.yul\":5454:5456   */\n      0x20\n        /* \"#utility.yul\":5443:5452   */\n      dup3\n        /* \"#utility.yul\":5439:5457   */\n      add\n        /* \"#utility.yul\":5431:5457   */\n      swap1\n      pop\n        /* \"#utility.yul\":5467:5538   */\n      tag_142\n        /* \"#utility.yul\":5535:5536   */\n      0x00\n        /* \"#utility.yul\":5524:5533   */\n      dup4\n        /* \"#utility.yul\":5520:5537   */\n      add\n        /* \"#utility.yul\":5511:5517   */\n      dup5\n        /* \"#utility.yul\":5467:5538   */\n      tag_102\n      jump\t// in\n    tag_142:\n        /* \"#utility.yul\":5323:5545   */\n      swap3\n      swap2\n      pop\n      pop\n      jump\t// out\n        /* \"#utility.yul\":5551:6191   */\n    tag_46:\n        /* \"#utility.yul\":5775:5779   */\n      0x00\n        /* \"#utility.yul\":5813:5815   */\n      0x40\n        /* \"#utility.yul\":5802:5811   */\n      dup3\n        /* \"#utility.yul\":5798:5816   */\n      add\n        /* \"#utility.yul\":5790:5816   */\n      swap1\n      pop\n        /* \"#utility.yul\":5862:5871   */\n      dup2\n        /* \"#utility.yul\":5856:5860   */\n      dup2\n        /* \"#utility.yul\":5852:5872   */\n      sub\n        /* \"#utility.yul\":5848:5849   */\n      0x00\n        /* \"#utility.yul\":5837:5846   */\n      dup4\n        /* \"#utility.yul\":5833:5850   */\n      add\n        /* \"#utility.yul\":5826:5873   */\n      mstore\n        /* \"#utility.yul\":5890:5978   */\n      tag_144\n        /* \"#utility.yul\":5973:5977   */\n      dup2\n        /* \"#utility.yul\":5964:5970   */\n      dup5\n        /* \"#utility.yul\":5956:5962   */\n      dup7\n        /* \"#utility.yul\":5890:5978   */\n      tag_112\n      jump\t// in\n    tag_144:\n        /* \"#utility.yul\":5882:5978   */\n      swap1\n      pop\n        /* \"#utility.yul\":6025:6034   */\n      dup2\n        /* \"#utility.yul\":6019:6023   */\n      dup2\n        /* \"#utility.yul\":6015:6035   */\n      sub\n        /* \"#utility.yul\":6010:6012   */\n      0x20\n        /* \"#utility.yul\":5999:6008   */\n      dup4\n        /* \"#utility.yul\":5995:6013   */\n      add\n        /* \"#utility.yul\":5988:6036   */\n      mstore\n        /* \"#utility.yul\":6053:6184   */\n      tag_145\n        /* \"#utility.yul\":6179:6183   */\n      dup2\n        /* \"#utility.yul\":6053:6184   */\n      tag_119\n      jump\t// in\n    tag_145:\n        /* \"#utility.yul\":6045:6184   */\n      swap1\n      pop\n        /* \"#utility.yul\":5551:6191   */\n      swap4\n      swap3\n      pop\n      pop\n      pop\n      jump\t// out\n        /* \"#utility.yul\":6197:6837   */\n    tag_39:\n        /* \"#utility.yul\":6421:6425   */\n      0x00\n        /* \"#utility.yul\":6459:6461   */\n      0x40\n        /* \"#utility.yul\":6448:6457   */\n      dup3\n        /* \"#utility.yul\":6444:6462   */\n      add\n        /* \"#utility.yul\":6436:6462   */\n      swap1\n      pop\n        /* \"#utility.yul\":6508:6517   */\n      dup2\n        /* \"#utility.yul\":6502:6506   */\n      dup2\n        /* \"#utility.yul\":6498:6518   */\n      sub\n        /* \"#utility.yul\":6494:6495   */\n      0x00\n        /* \"#utility.yul\":6483:6492   */\n      dup4\n        /* \"#utility.yul\":6479:6496   */\n      add\n        /* \"#utility.yul\":6472:6519   */\n      mstore\n        /* \"#utility.yul\":6536:6624   */\n      tag_147\n        /* \"#utility.yul\":6619:6623   */\n      dup2\n        /* \"#utility.yul\":6610:6616   */\n      dup5\n        /* \"#utility.yul\":6602:6608   */\n      dup7\n        /* \"#utility.yul\":6536:6624   */\n      tag_112\n      jump\t// in\n    tag_147:\n        /* \"#utility.yul\":6528:6624   */\n      swap1\n      pop\n        /* \"#utility.yul\":6671:6680   */\n      dup2\n        /* \"#utility.yul\":6665:6669   */\n      dup2\n        /* \"#utility.yul\":6661:6681   */\n      sub\n        /* \"#utility.yul\":6656:6658   */\n      0x20\n        /* \"#utility.yul\":6645:6654   */\n      dup4\n        /* \"#utility.yul\":6641:6659   */\n      add\n        /* \"#utility.yul\":6634:6682   */\n      mstore\n        /* \"#utility.yul\":6699:6830   */\n      tag_148\n        /* \"#utility.yul\":6825:6829   */\n      dup2\n        /* \"#utility.yul\":6699:6830   */\n      tag_124\n      jump\t// in\n    tag_148:\n        /* \"#utility.yul\":6691:6830   */\n      swap1\n      pop\n        /* \"#utility.yul\":6197:6837   */\n      swap4\n      swap3\n      pop\n      pop\n      pop\n      jump\t// out\n        /* \"#utility.yul\":6843:7483   */\n    tag_58:\n        /* \"#utility.yul\":7067:7071   */\n      0x00\n        /* \"#utility.yul\":7105:7107   */\n      0x40\n        /* \"#utility.yul\":7094:7103   */\n      dup3\n        /* \"#utility.yul\":7090:7108   */\n      add\n        /* \"#utility.yul\":7082:7108   */\n      swap1\n      pop\n        /* \"#utility.yul\":7154:7163   */\n      dup2\n        /* \"#utility.yul\":7148:7152   */\n      dup2\n        /* \"#utility.yul\":7144:7164   */\n      sub\n        /* \"#utility.yul\":7140:7141   */\n      0x00\n        /* \"#utility.yul\":7129:7138   */\n      dup4\n        /* \"#utility.yul\":7125:7142   */\n      add\n        /* \"#utility.yul\":7118:7165   */\n      mstore\n        /* \"#utility.yul\":7182:7270   */\n      tag_150\n        /* \"#utility.yul\":7265:7269   */\n      dup2\n        /* \"#utility.yul\":7256:7262   */\n      dup5\n        /* \"#utility.yul\":7248:7254   */\n      dup7\n        /* \"#utility.yul\":7182:7270   */\n      tag_112\n      jump\t// in\n    tag_150:\n        /* \"#utility.yul\":7174:7270   */\n      swap1\n      pop\n        /* \"#utility.yul\":7317:7326   */\n      dup2\n        /* \"#utility.yul\":7311:7315   */\n      dup2\n        /* \"#utility.yul\":7307:7327   */\n      sub\n        /* \"#utility.yul\":7302:7304   */\n      0x20\n        /* \"#utility.yul\":7291:7300   */\n      dup4\n        /* \"#utility.yul\":7287:7305   */\n      add\n        /* \"#utility.yul\":7280:7328   */\n      mstore\n        /* \"#utility.yul\":7345:7476   */\n      tag_151\n        /* \"#utility.yul\":7471:7475   */\n      dup2\n        /* \"#utility.yul\":7345:7476   */\n      tag_129\n      jump\t// in\n    tag_151:\n        /* \"#utility.yul\":7337:7476   */\n      swap1\n      pop\n        /* \"#utility.yul\":6843:7483   */\n      swap4\n      swap3\n      pop\n      pop\n      pop\n      jump\t// out\n        /* \"#utility.yul\":7570:7717   */\n    tag_109:\n        /* \"#utility.yul\":7671:7682   */\n      0x00\n        /* \"#utility.yul\":7708:7711   */\n      dup2\n        /* \"#utility.yul\":7693:7711   */\n      swap1\n      pop\n        /* \"#utility.yul\":7570:7717   */\n      swap3\n      swap2\n      pop\n      pop\n      jump\t// out\n        /* \"#utility.yul\":7723:7892   */\n    tag_115:\n        /* \"#utility.yul\":7807:7818   */\n      0x00\n        /* \"#utility.yul\":7841:7847   */\n      dup3\n        /* \"#utility.yul\":7836:7839   */\n      dup3\n        /* \"#utility.yul\":7829:7848   */\n      mstore\n        /* \"#utility.yul\":7881:7885   */\n      0x20\n        /* \"#utility.yul\":7876:7879   */\n      dup3\n        /* \"#utility.yul\":7872:7886   */\n      add\n        /* \"#utility.yul\":7857:7886   */\n      swap1\n      pop\n        /* \"#utility.yul\":7723:7892   */\n      swap3\n      swap2\n      pop\n      pop\n      jump\t// out\n        /* \"#utility.yul\":7898:7994   */\n    tag_101:\n        /* \"#utility.yul\":7935:7942   */\n      0x00\n        /* \"#utility.yul\":7964:7988   */\n      tag_157\n        /* \"#utility.yul\":7982:7987   */\n      dup3\n        /* \"#utility.yul\":7964:7988   */\n      tag_158\n      jump\t// in\n    tag_157:\n        /* \"#utility.yul\":7953:7988   */\n      swap1\n      pop\n        /* \"#utility.yul\":7898:7994   */\n      swap2\n      swap1\n      pop\n      jump\t// out\n        /* \"#utility.yul\":8000:8077   */\n    tag_105:\n        /* \"#utility.yul\":8037:8044   */\n      0x00\n        /* \"#utility.yul\":8066:8071   */\n      dup2\n        /* \"#utility.yul\":8055:8071   */\n      swap1\n      pop\n        /* \"#utility.yul\":8000:8077   */\n      swap2\n      swap1\n      pop\n      jump\t// out\n        /* \"#utility.yul\":8083:8209   */\n    tag_158:\n        /* \"#utility.yul\":8120:8127   */\n      0x00\n        /* \"#utility.yul\":8160:8202   */\n      0xffffffffffffffffffffffffffffffffffffffff\n        /* \"#utility.yul\":8153:8158   */\n      dup3\n        /* \"#utility.yul\":8149:8203   */\n      and\n        /* \"#utility.yul\":8138:8203   */\n      swap1\n      pop\n        /* \"#utility.yul\":8083:8209   */\n      swap2\n      swap1\n      pop\n      jump\t// out\n        /* \"#utility.yul\":8215:8369   */\n    tag_111:\n        /* \"#utility.yul\":8299:8305   */\n      dup3\n        /* \"#utility.yul\":8294:8297   */\n      dup2\n        /* \"#utility.yul\":8289:8292   */\n      dup4\n        /* \"#utility.yul\":8276:8306   */\n      calldatacopy\n        /* \"#utility.yul\":8361:8362   */\n      0x00\n        /* \"#utility.yul\":8352:8358   */\n      dup4\n        /* \"#utility.yul\":8347:8350   */\n      dup4\n        /* \"#utility.yul\":8343:8359   */\n      add\n        /* \"#utility.yul\":8336:8363   */\n      mstore\n        /* \"#utility.yul\":8215:8369   */\n      pop\n      pop\n      pop\n      jump\t// out\n        /* \"#utility.yul\":8375:8492   */\n    tag_75:\n        /* \"#utility.yul\":8484:8485   */\n      0x00\n        /* \"#utility.yul\":8481:8482   */\n      dup1\n        /* \"#utility.yul\":8474:8486   */\n      revert\n        /* \"#utility.yul\":8498:8615   */\n    tag_72:\n        /* \"#utility.yul\":8607:8608   */\n      0x00\n        /* \"#utility.yul\":8604:8605   */\n      dup1\n        /* \"#utility.yul\":8597:8609   */\n      revert\n        /* \"#utility.yul\":8621:8738   */\n    tag_78:\n        /* \"#utility.yul\":8730:8731   */\n      0x00\n        /* \"#utility.yul\":8727:8728   */\n      dup1\n        /* \"#utility.yul\":8720:8732   */\n      revert\n        /* \"#utility.yul\":8744:8861   */\n    tag_89:\n        /* \"#utility.yul\":8853:8854   */\n      0x00\n        /* \"#utility.yul\":8850:8851   */\n      dup1\n        /* \"#utility.yul\":8843:8855   */\n      revert\n        /* \"#utility.yul\":8867:8984   */\n    tag_82:\n        /* \"#utility.yul\":8976:8977   */\n      0x00\n        /* \"#utility.yul\":8973:8974   */\n      dup1\n        /* \"#utility.yul\":8966:8978   */\n      revert\n        /* \"#utility.yul\":8990:9092   */\n    tag_118:\n        /* \"#utility.yul\":9031:9037   */\n      0x00\n        /* \"#utility.yul\":9082:9084   */\n      0x1f\n        /* \"#utility.yul\":9078:9085   */\n      not\n        /* \"#utility.yul\":9073:9075   */\n      0x1f\n        /* \"#utility.yul\":9066:9071   */\n      dup4\n        /* \"#utility.yul\":9062:9076   */\n      add\n        /* \"#utility.yul\":9058:9086   */\n      and\n        /* \"#utility.yul\":9048:9086   */\n      swap1\n      pop\n        /* \"#utility.yul\":8990:9092   */\n      swap2\n      swap1\n      pop\n      jump\t// out\n        /* \"#utility.yul\":9098:9267   */\n    tag_123:\n        /* \"#utility.yul\":9238:9259   */\n      0x454e532041646472657373206368616e67656400000000000000000000000000\n        /* \"#utility.yul\":9234:9235   */\n      0x00\n        /* \"#utility.yul\":9226:9232   */\n      dup3\n        /* \"#utility.yul\":9222:9236   */\n      add\n        /* \"#utility.yul\":9215:9260   */\n      mstore\n        /* \"#utility.yul\":9098:9267   */\n      pop\n      jump\t// out\n        /* \"#utility.yul\":9273:9455   */\n    tag_128:\n        /* \"#utility.yul\":9413:9447   */\n      0x454e5320416464726573732069732073756363657366756c6c79206164646564\n        /* \"#utility.yul\":9409:9410   */\n      0x00\n        /* \"#utility.yul\":9401:9407   */\n      dup3\n        /* \"#utility.yul\":9397:9411   */\n      add\n        /* \"#utility.yul\":9390:9448   */\n      mstore\n        /* \"#utility.yul\":9273:9455   */\n      pop\n      jump\t// out\n        /* \"#utility.yul\":9461:9681   */\n    tag_133:\n        /* \"#utility.yul\":9601:9635   */\n      0x4f776e657273686970207375636365737366756c6c79207472616e7366657265\n        /* \"#utility.yul\":9597:9598   */\n      0x00\n        /* \"#utility.yul\":9589:9595   */\n      dup3\n        /* \"#utility.yul\":9585:9599   */\n      add\n        /* \"#utility.yul\":9578:9636   */\n      mstore\n        /* \"#utility.yul\":9670:9673   */\n      0x6400000000000000000000000000000000000000000000000000000000000000\n        /* \"#utility.yul\":9665:9667   */\n      0x20\n        /* \"#utility.yul\":9657:9663   */\n      dup3\n        /* \"#utility.yul\":9653:9668   */\n      add\n        /* \"#utility.yul\":9646:9674   */\n      mstore\n        /* \"#utility.yul\":9461:9681   */\n      pop\n      jump\t// out\n        /* \"#utility.yul\":9687:9809   */\n    tag_63:\n        /* \"#utility.yul\":9760:9784   */\n      tag_172\n        /* \"#utility.yul\":9778:9783   */\n      dup2\n        /* \"#utility.yul\":9760:9784   */\n      tag_101\n      jump\t// in\n    tag_172:\n        /* \"#utility.yul\":9753:9758   */\n      dup2\n        /* \"#utility.yul\":9750:9785   */\n      eq\n        /* \"#utility.yul\":9740:9803   */\n      tag_173\n      jumpi\n        /* \"#utility.yul\":9799:9800   */\n      0x00\n        /* \"#utility.yul\":9796:9797   */\n      dup1\n        /* \"#utility.yul\":9789:9801   */\n      revert\n        /* \"#utility.yul\":9740:9803   */\n    tag_173:\n        /* \"#utility.yul\":9687:9809   */\n      pop\n      jump\t// out\n        /* \"#utility.yul\":9815:9937   */\n    tag_67:\n        /* \"#utility.yul\":9888:9912   */\n      tag_175\n        /* \"#utility.yul\":9906:9911   */\n      dup2\n        /* \"#utility.yul\":9888:9912   */\n      tag_105\n      jump\t// in\n    tag_175:\n        /* \"#utility.yul\":9881:9886   */\n      dup2\n        /* \"#utility.yul\":9878:9913   */\n      eq\n        /* \"#utility.yul\":9868:9931   */\n      tag_176\n      jumpi\n        /* \"#utility.yul\":9927:9928   */\n      0x00\n        /* \"#utility.yul\":9924:9925   */\n      dup1\n        /* \"#utility.yul\":9917:9929   */\n      revert\n        /* \"#utility.yul\":9868:9931   */\n    tag_176:\n        /* \"#utility.yul\":9815:9937   */\n      pop\n      jump\t// out\n\n    auxdata: 0xa26469706673582212207b7235c557e41772dea690ecfa43d894824d57829ff37b628231eee997c4af8664736f6c63430008070033\n}\n",
				"bytecode": {
					"linkReferences": {},
					"object": "608060405234801561001057600080fd5b50610a60806100206000396000f3fe608060405234801561001057600080fd5b50600436106100625760003560e01c80637640cb3e14610067578063a7dbb40214610083578063acb3949a1461009f578063bd1045f5146100cf578063bf40fac114610100578063c0e793c214610130575b600080fd5b610081600480360381019061007c9190610674565b61014c565b005b61009d60048036038101906100989190610674565b610247565b005b6100b960048036038101906100b49190610627565b610379565b6040516100c6919061080a565b60405180910390f35b6100e960048036038101906100e491906105fa565b61039b565b6040516100f79291906107e1565b60405180910390f35b61011a60048036038101906101159190610627565b6103ff565b60405161012791906107c6565b60405180910390f35b61014a60048036038101906101459190610674565b610448565b005b600080600061015b8686610379565b81526020019081526020016000209050338160000160006101000a81548173ffffffffffffffffffffffffffffffffffffffff021916908373ffffffffffffffffffffffffffffffffffffffff160217905550818160010160006101000a81548173ffffffffffffffffffffffffffffffffffffffff021916908373ffffffffffffffffffffffffffffffffffffffff1602179055508173ffffffffffffffffffffffffffffffffffffffff167f35f3a1cf642ba4be1e05dc7b4f1296a9537a31528524b5fe3c77051f277a8216858560405161023992919061085c565b60405180910390a250505050565b82826000806102568484610379565b815260200190815260200160002060000160009054906101000a900473ffffffffffffffffffffffffffffffffffffffff1673ffffffffffffffffffffffffffffffffffffffff163373ffffffffffffffffffffffffffffffffffffffff16146102bf57600080fd5b60008060006102ce8888610379565b81526020019081526020016000209050838160010160006101000a81548173ffffffffffffffffffffffffffffffffffffffff021916908373ffffffffffffffffffffffffffffffffffffffff1602179055508373ffffffffffffffffffffffffffffffffffffffff167f35f3a1cf642ba4be1e05dc7b4f1296a9537a31528524b5fe3c77051f277a82168787604051610369929190610825565b60405180910390a2505050505050565b6000828260405161038b9291906107ad565b6040518091039020905092915050565b60006020528060005260406000206000915090508060000160009054906101000a900473ffffffffffffffffffffffffffffffffffffffff16908060010160009054906101000a900473ffffffffffffffffffffffffffffffffffffffff16905082565b600080600061040e8585610379565b815260200190815260200160002060010160009054906101000a900473ffffffffffffffffffffffffffffffffffffffff16905092915050565b82826000806104578484610379565b815260200190815260200160002060000160009054906101000a900473ffffffffffffffffffffffffffffffffffffffff1673ffffffffffffffffffffffffffffffffffffffff163373ffffffffffffffffffffffffffffffffffffffff16146104c057600080fd5b60008060006104cf8888610379565b81526020019081526020016000209050838160000160006101000a81548173ffffffffffffffffffffffffffffffffffffffff021916908373ffffffffffffffffffffffffffffffffffffffff1602179055508373ffffffffffffffffffffffffffffffffffffffff167f35f3a1cf642ba4be1e05dc7b4f1296a9537a31528524b5fe3c77051f277a8216878760405161056a929190610893565b60405180910390a2505050505050565b600081359050610589816109fc565b92915050565b60008135905061059e81610a13565b92915050565b60008083601f8401126105ba576105b9610936565b5b8235905067ffffffffffffffff8111156105d7576105d6610931565b5b6020830191508360018202830111156105f3576105f261093b565b5b9250929050565b6000602082840312156106105761060f610945565b5b600061061e8482850161058f565b91505092915050565b6000806020838503121561063e5761063d610945565b5b600083013567ffffffffffffffff81111561065c5761065b610940565b5b610668858286016105a4565b92509250509250929050565b60008060006040848603121561068d5761068c610945565b5b600084013567ffffffffffffffff8111156106ab576106aa610940565b5b6106b7868287016105a4565b935093505060206106ca8682870161057a565b9150509250925092565b6106dd816108e6565b82525050565b6106ec816108f8565b82525050565b60006106fe83856108ca565b935061070b838584610922565b82840190509392505050565b600061072383856108d5565b9350610730838584610922565b6107398361094a565b840190509392505050565b60006107516013836108d5565b915061075c8261095b565b602082019050919050565b60006107746020836108d5565b915061077f82610984565b602082019050919050565b60006107976021836108d5565b91506107a2826109ad565b604082019050919050565b60006107ba8284866106f2565b91508190509392505050565b60006020820190506107db60008301846106d4565b92915050565b60006040820190506107f660008301856106d4565b61080360208301846106d4565b9392505050565b600060208201905061081f60008301846106e3565b92915050565b60006040820190508181036000830152610840818486610717565b9050818103602083015261085381610744565b90509392505050565b60006040820190508181036000830152610877818486610717565b9050818103602083015261088a81610767565b90509392505050565b600060408201905081810360008301526108ae818486610717565b905081810360208301526108c18161078a565b90509392505050565b600081905092915050565b600082825260208201905092915050565b60006108f182610902565b9050919050565b6000819050919050565b600073ffffffffffffffffffffffffffffffffffffffff82169050919050565b82818337600083830152505050565b600080fd5b600080fd5b600080fd5b600080fd5b600080fd5b6000601f19601f8301169050919050565b7f454e532041646472657373206368616e67656400000000000000000000000000600082015250565b7f454e5320416464726573732069732073756363657366756c6c79206164646564600082015250565b7f4f776e657273686970207375636365737366756c6c79207472616e736665726560008201527f6400000000000000000000000000000000000000000000000000000000000000602082015250565b610a05816108e6565b8114610a1057600080fd5b50565b610a1c816108f8565b8114610a2757600080fd5b5056fea26469706673582212207b7235c557e41772dea690ecfa43d894824d57829ff37b628231eee997c4af8664736f6c63430008070033",
					"opcodes": "PUSH1 0x80 PUSH1 0x40 MSTORE CALLVALUE DUP1 ISZERO PUSH2 0x10 JUMPI PUSH1 0x0 DUP1 REVERT JUMPDEST POP PUSH2 0xA60 DUP1 PUSH2 0x20 PUSH1 0x0 CODECOPY PUSH1 0x0 RETURN INVALID PUSH1 0x80 PUSH1 0x40 MSTORE CALLVALUE DUP1 ISZERO PUSH2 0x10 JUMPI PUSH1 0x0 DUP1 REVERT JUMPDEST POP PUSH1 0x4 CALLDATASIZE LT PUSH2 0x62 JUMPI PUSH1 0x0 CALLDATALOAD PUSH1 0xE0 SHR DUP1 PUSH4 0x7640CB3E EQ PUSH2 0x67 JUMPI DUP1 PUSH4 0xA7DBB402 EQ PUSH2 0x83 JUMPI DUP1 PUSH4 0xACB3949A EQ PUSH2 0x9F JUMPI DUP1 PUSH4 0xBD1045F5 EQ PUSH2 0xCF JUMPI DUP1 PUSH4 0xBF40FAC1 EQ PUSH2 0x100 JUMPI DUP1 PUSH4 0xC0E793C2 EQ PUSH2 0x130 JUMPI JUMPDEST PUSH1 0x0 DUP1 REVERT JUMPDEST PUSH2 0x81 PUSH1 0x4 DUP1 CALLDATASIZE SUB DUP2 ADD SWAP1 PUSH2 0x7C SWAP2 SWAP1 PUSH2 0x674 JUMP JUMPDEST PUSH2 0x14C JUMP JUMPDEST STOP JUMPDEST PUSH2 0x9D PUSH1 0x4 DUP1 CALLDATASIZE SUB DUP2 ADD SWAP1 PUSH2 0x98 SWAP2 SWAP1 PUSH2 0x674 JUMP JUMPDEST PUSH2 0x247 JUMP JUMPDEST STOP JUMPDEST PUSH2 0xB9 PUSH1 0x4 DUP1 CALLDATASIZE SUB DUP2 ADD SWAP1 PUSH2 0xB4 SWAP2 SWAP1 PUSH2 0x627 JUMP JUMPDEST PUSH2 0x379 JUMP JUMPDEST PUSH1 0x40 MLOAD PUSH2 0xC6 SWAP2 SWAP1 PUSH2 0x80A JUMP JUMPDEST PUSH1 0x40 MLOAD DUP1 SWAP2 SUB SWAP1 RETURN JUMPDEST PUSH2 0xE9 PUSH1 0x4 DUP1 CALLDATASIZE SUB DUP2 ADD SWAP1 PUSH2 0xE4 SWAP2 SWAP1 PUSH2 0x5FA JUMP JUMPDEST PUSH2 0x39B JUMP JUMPDEST PUSH1 0x40 MLOAD PUSH2 0xF7 SWAP3 SWAP2 SWAP1 PUSH2 0x7E1 JUMP JUMPDEST PUSH1 0x40 MLOAD DUP1 SWAP2 SUB SWAP1 RETURN JUMPDEST PUSH2 0x11A PUSH1 0x4 DUP1 CALLDATASIZE SUB DUP2 ADD SWAP1 PUSH2 0x115 SWAP2 SWAP1 PUSH2 0x627 JUMP JUMPDEST PUSH2 0x3FF JUMP JUMPDEST PUSH1 0x40 MLOAD PUSH2 0x127 SWAP2 SWAP1 PUSH2 0x7C6 JUMP JUMPDEST PUSH1 0x40 MLOAD DUP1 SWAP2 SUB SWAP1 RETURN JUMPDEST PUSH2 0x14A PUSH1 0x4 DUP1 CALLDATASIZE SUB DUP2 ADD SWAP1 PUSH2 0x145 SWAP2 SWAP1 PUSH2 0x674 JUMP JUMPDEST PUSH2 0x448 JUMP JUMPDEST STOP JUMPDEST PUSH1 0x0 DUP1 PUSH1 0x0 PUSH2 0x15B DUP7 DUP7 PUSH2 0x379 JUMP JUMPDEST DUP2 MSTORE PUSH1 0x20 ADD SWAP1 DUP2 MSTORE PUSH1 0x20 ADD PUSH1 0x0 KECCAK256 SWAP1 POP CALLER DUP2 PUSH1 0x0 ADD PUSH1 0x0 PUSH2 0x100 EXP DUP2 SLOAD DUP2 PUSH20 0xFFFFFFFFFFFFFFFFFFFFFFFFFFFFFFFFFFFFFFFF MUL NOT AND SWAP1 DUP4 PUSH20 0xFFFFFFFFFFFFFFFFFFFFFFFFFFFFFFFFFFFFFFFF AND MUL OR SWAP1 SSTORE POP DUP2 DUP2 PUSH1 0x1 ADD PUSH1 0x0 PUSH2 0x100 EXP DUP2 SLOAD DUP2 PUSH20 0xFFFFFFFFFFFFFFFFFFFFFFFFFFFFFFFFFFFFFFFF MUL NOT AND SWAP1 DUP4 PUSH20 0xFFFFFFFFFFFFFFFFFFFFFFFFFFFFFFFFFFFFFFFF AND MUL OR SWAP1 SSTORE POP DUP2 PUSH20 0xFFFFFFFFFFFFFFFFFFFFFFFFFFFFFFFFFFFFFFFF AND PUSH32 0x35F3A1CF642BA4BE1E05DC7B4F1296A9537A31528524B5FE3C77051F277A8216 DUP6 DUP6 PUSH1 0x40 MLOAD PUSH2 0x239 SWAP3 SWAP2 SWAP1 PUSH2 0x85C JUMP JUMPDEST PUSH1 0x40 MLOAD DUP1 SWAP2 SUB SWAP1 LOG2 POP POP POP POP JUMP JUMPDEST DUP3 DUP3 PUSH1 0x0 DUP1 PUSH2 0x256 DUP5 DUP5 PUSH2 0x379 JUMP JUMPDEST DUP2 MSTORE PUSH1 0x20 ADD SWAP1 DUP2 MSTORE PUSH1 0x20 ADD PUSH1 0x0 KECCAK256 PUSH1 0x0 ADD PUSH1 0x0 SWAP1 SLOAD SWAP1 PUSH2 0x100 EXP SWAP1 DIV PUSH20 0xFFFFFFFFFFFFFFFFFFFFFFFFFFFFFFFFFFFFFFFF AND PUSH20 0xFFFFFFFFFFFFFFFFFFFFFFFFFFFFFFFFFFFFFFFF AND CALLER PUSH20 0xFFFFFFFFFFFFFFFFFFFFFFFFFFFFFFFFFFFFFFFF AND EQ PUSH2 0x2BF JUMPI PUSH1 0x0 DUP1 REVERT JUMPDEST PUSH1 0x0 DUP1 PUSH1 0x0 PUSH2 0x2CE DUP9 DUP9 PUSH2 0x379 JUMP JUMPDEST DUP2 MSTORE PUSH1 0x20 ADD SWAP1 DUP2 MSTORE PUSH1 0x20 ADD PUSH1 0x0 KECCAK256 SWAP1 POP DUP4 DUP2 PUSH1 0x1 ADD PUSH1 0x0 PUSH2 0x100 EXP DUP2 SLOAD DUP2 PUSH20 0xFFFFFFFFFFFFFFFFFFFFFFFFFFFFFFFFFFFFFFFF MUL NOT AND SWAP1 DUP4 PUSH20 0xFFFFFFFFFFFFFFFFFFFFFFFFFFFFFFFFFFFFFFFF AND MUL OR SWAP1 SSTORE POP DUP4 PUSH20 0xFFFFFFFFFFFFFFFFFFFFFFFFFFFFFFFFFFFFFFFF AND PUSH32 0x35F3A1CF642BA4BE1E05DC7B4F1296A9537A31528524B5FE3C77051F277A8216 DUP8 DUP8 PUSH1 0x40 MLOAD PUSH2 0x369 SWAP3 SWAP2 SWAP1 PUSH2 0x825 JUMP JUMPDEST PUSH1 0x40 MLOAD DUP1 SWAP2 SUB SWAP1 LOG2 POP POP POP POP POP POP JUMP JUMPDEST PUSH1 0x0 DUP3 DUP3 PUSH1 0x40 MLOAD PUSH2 0x38B SWAP3 SWAP2 SWAP1 PUSH2 0x7AD JUMP JUMPDEST PUSH1 0x40 MLOAD DUP1 SWAP2 SUB SWAP1 KECCAK256 SWAP1 POP SWAP3 SWAP2 POP POP JUMP JUMPDEST PUSH1 0x0 PUSH1 0x20 MSTORE DUP1 PUSH1 0x0 MSTORE PUSH1 0x40 PUSH1 0x0 KECCAK256 PUSH1 0x0 SWAP2 POP SWAP1 POP DUP1 PUSH1 0x0 ADD PUSH1 0x0 SWAP1 SLOAD SWAP1 PUSH2 0x100 EXP SWAP1 DIV PUSH20 0xFFFFFFFFFFFFFFFFFFFFFFFFFFFFFFFFFFFFFFFF AND SWAP1 DUP1 PUSH1 0x1 ADD PUSH1 0x0 SWAP1 SLOAD SWAP1 PUSH2 0x100 EXP SWAP1 DIV PUSH20 0xFFFFFFFFFFFFFFFFFFFFFFFFFFFFFFFFFFFFFFFF AND SWAP1 POP DUP3 JUMP JUMPDEST PUSH1 0x0 DUP1 PUSH1 0x0 PUSH2 0x40E DUP6 DUP6 PUSH2 0x379 JUMP JUMPDEST DUP2 MSTORE PUSH1 0x20 ADD SWAP1 DUP2 MSTORE PUSH1 0x20 ADD PUSH1 0x0 KECCAK256 PUSH1 0x1 ADD PUSH1 0x0 SWAP1 SLOAD SWAP1 PUSH2 0x100 EXP SWAP1 DIV PUSH20 0xFFFFFFFFFFFFFFFFFFFFFFFFFFFFFFFFFFFFFFFF AND SWAP1 POP SWAP3 SWAP2 POP POP JUMP JUMPDEST DUP3 DUP3 PUSH1 0x0 DUP1 PUSH2 0x457 DUP5 DUP5 PUSH2 0x379 JUMP JUMPDEST DUP2 MSTORE PUSH1 0x20 ADD SWAP1 DUP2 MSTORE PUSH1 0x20 ADD PUSH1 0x0 KECCAK256 PUSH1 0x0 ADD PUSH1 0x0 SWAP1 SLOAD SWAP1 PUSH2 0x100 EXP SWAP1 DIV PUSH20 0xFFFFFFFFFFFFFFFFFFFFFFFFFFFFFFFFFFFFFFFF AND PUSH20 0xFFFFFFFFFFFFFFFFFFFFFFFFFFFFFFFFFFFFFFFF AND CALLER PUSH20 0xFFFFFFFFFFFFFFFFFFFFFFFFFFFFFFFFFFFFFFFF AND EQ PUSH2 0x4C0 JUMPI PUSH1 0x0 DUP1 REVERT JUMPDEST PUSH1 0x0 DUP1 PUSH1 0x0 PUSH2 0x4CF DUP9 DUP9 PUSH2 0x379 JUMP JUMPDEST DUP2 MSTORE PUSH1 0x20 ADD SWAP1 DUP2 MSTORE PUSH1 0x20 ADD PUSH1 0x0 KECCAK256 SWAP1 POP DUP4 DUP2 PUSH1 0x0 ADD PUSH1 0x0 PUSH2 0x100 EXP DUP2 SLOAD DUP2 PUSH20 0xFFFFFFFFFFFFFFFFFFFFFFFFFFFFFFFFFFFFFFFF MUL NOT AND SWAP1 DUP4 PUSH20 0xFFFFFFFFFFFFFFFFFFFFFFFFFFFFFFFFFFFFFFFF AND MUL OR SWAP1 SSTORE POP DUP4 PUSH20 0xFFFFFFFFFFFFFFFFFFFFFFFFFFFFFFFFFFFFFFFF AND PUSH32 0x35F3A1CF642BA4BE1E05DC7B4F1296A9537A31528524B5FE3C77051F277A8216 DUP8 DUP8 PUSH1 0x40 MLOAD PUSH2 0x56A SWAP3 SWAP2 SWAP1 PUSH2 0x893 JUMP JUMPDEST PUSH1 0x40 MLOAD DUP1 SWAP2 SUB SWAP1 LOG2 POP POP POP POP POP POP JUMP JUMPDEST PUSH1 0x0 DUP2 CALLDATALOAD SWAP1 POP PUSH2 0x589 DUP2 PUSH2 0x9FC JUMP JUMPDEST SWAP3 SWAP2 POP POP JUMP JUMPDEST PUSH1 0x0 DUP2 CALLDATALOAD SWAP1 POP PUSH2 0x59E DUP2 PUSH2 0xA13 JUMP JUMPDEST SWAP3 SWAP2 POP POP JUMP JUMPDEST PUSH1 0x0 DUP1 DUP4 PUSH1 0x1F DUP5 ADD SLT PUSH2 0x5BA JUMPI PUSH2 0x5B9 PUSH2 0x936 JUMP JUMPDEST JUMPDEST DUP3 CALLDATALOAD SWAP1 POP PUSH8 0xFFFFFFFFFFFFFFFF DUP2 GT ISZERO PUSH2 0x5D7 JUMPI PUSH2 0x5D6 PUSH2 0x931 JUMP JUMPDEST JUMPDEST PUSH1 0x20 DUP4 ADD SWAP2 POP DUP4 PUSH1 0x1 DUP3 MUL DUP4 ADD GT ISZERO PUSH2 0x5F3 JUMPI PUSH2 0x5F2 PUSH2 0x93B JUMP JUMPDEST JUMPDEST SWAP3 POP SWAP3 SWAP1 POP JUMP JUMPDEST PUSH1 0x0 PUSH1 0x20 DUP3 DUP5 SUB SLT ISZERO PUSH2 0x610 JUMPI PUSH2 0x60F PUSH2 0x945 JUMP JUMPDEST JUMPDEST PUSH1 0x0 PUSH2 0x61E DUP5 DUP3 DUP6 ADD PUSH2 0x58F JUMP JUMPDEST SWAP2 POP POP SWAP3 SWAP2 POP POP JUMP JUMPDEST PUSH1 0x0 DUP1 PUSH1 0x20 DUP4 DUP6 SUB SLT ISZERO PUSH2 0x63E JUMPI PUSH2 0x63D PUSH2 0x945 JUMP JUMPDEST JUMPDEST PUSH1 0x0 DUP4 ADD CALLDATALOAD PUSH8 0xFFFFFFFFFFFFFFFF DUP2 GT ISZERO PUSH2 0x65C JUMPI PUSH2 0x65B PUSH2 0x940 JUMP JUMPDEST JUMPDEST PUSH2 0x668 DUP6 DUP3 DUP7 ADD PUSH2 0x5A4 JUMP JUMPDEST SWAP3 POP SWAP3 POP POP SWAP3 POP SWAP3 SWAP1 POP JUMP JUMPDEST PUSH1 0x0 DUP1 PUSH1 0x0 PUSH1 0x40 DUP5 DUP7 SUB SLT ISZERO PUSH2 0x68D JUMPI PUSH2 0x68C PUSH2 0x945 JUMP JUMPDEST JUMPDEST PUSH1 0x0 DUP5 ADD CALLDATALOAD PUSH8 0xFFFFFFFFFFFFFFFF DUP2 GT ISZERO PUSH2 0x6AB JUMPI PUSH2 0x6AA PUSH2 0x940 JUMP JUMPDEST JUMPDEST PUSH2 0x6B7 DUP7 DUP3 DUP8 ADD PUSH2 0x5A4 JUMP JUMPDEST SWAP4 POP SWAP4 POP POP PUSH1 0x20 PUSH2 0x6CA DUP7 DUP3 DUP8 ADD PUSH2 0x57A JUMP JUMPDEST SWAP2 POP POP SWAP3 POP SWAP3 POP SWAP3 JUMP JUMPDEST PUSH2 0x6DD DUP2 PUSH2 0x8E6 JUMP JUMPDEST DUP3 MSTORE POP POP JUMP JUMPDEST PUSH2 0x6EC DUP2 PUSH2 0x8F8 JUMP JUMPDEST DUP3 MSTORE POP POP JUMP JUMPDEST PUSH1 0x0 PUSH2 0x6FE DUP4 DUP6 PUSH2 0x8CA JUMP JUMPDEST SWAP4 POP PUSH2 0x70B DUP4 DUP6 DUP5 PUSH2 0x922 JUMP JUMPDEST DUP3 DUP5 ADD SWAP1 POP SWAP4 SWAP3 POP POP POP JUMP JUMPDEST PUSH1 0x0 PUSH2 0x723 DUP4 DUP6 PUSH2 0x8D5 JUMP JUMPDEST SWAP4 POP PUSH2 0x730 DUP4 DUP6 DUP5 PUSH2 0x922 JUMP JUMPDEST PUSH2 0x739 DUP4 PUSH2 0x94A JUMP JUMPDEST DUP5 ADD SWAP1 POP SWAP4 SWAP3 POP POP POP JUMP JUMPDEST PUSH1 0x0 PUSH2 0x751 PUSH1 0x13 DUP4 PUSH2 0x8D5 JUMP JUMPDEST SWAP2 POP PUSH2 0x75C DUP3 PUSH2 0x95B JUMP JUMPDEST PUSH1 0x20 DUP3 ADD SWAP1 POP SWAP2 SWAP1 POP JUMP JUMPDEST PUSH1 0x0 PUSH2 0x774 PUSH1 0x20 DUP4 PUSH2 0x8D5 JUMP JUMPDEST SWAP2 POP PUSH2 0x77F DUP3 PUSH2 0x984 JUMP JUMPDEST PUSH1 0x20 DUP3 ADD SWAP1 POP SWAP2 SWAP1 POP JUMP JUMPDEST PUSH1 0x0 PUSH2 0x797 PUSH1 0x21 DUP4 PUSH2 0x8D5 JUMP JUMPDEST SWAP2 POP PUSH2 0x7A2 DUP3 PUSH2 0x9AD JUMP JUMPDEST PUSH1 0x40 DUP3 ADD SWAP1 POP SWAP2 SWAP1 POP JUMP JUMPDEST PUSH1 0x0 PUSH2 0x7BA DUP3 DUP5 DUP7 PUSH2 0x6F2 JUMP JUMPDEST SWAP2 POP DUP2 SWAP1 POP SWAP4 SWAP3 POP POP POP JUMP JUMPDEST PUSH1 0x0 PUSH1 0x20 DUP3 ADD SWAP1 POP PUSH2 0x7DB PUSH1 0x0 DUP4 ADD DUP5 PUSH2 0x6D4 JUMP JUMPDEST SWAP3 SWAP2 POP POP JUMP JUMPDEST PUSH1 0x0 PUSH1 0x40 DUP3 ADD SWAP1 POP PUSH2 0x7F6 PUSH1 0x0 DUP4 ADD DUP6 PUSH2 0x6D4 JUMP JUMPDEST PUSH2 0x803 PUSH1 0x20 DUP4 ADD DUP5 PUSH2 0x6D4 JUMP JUMPDEST SWAP4 SWAP3 POP POP POP JUMP JUMPDEST PUSH1 0x0 PUSH1 0x20 DUP3 ADD SWAP1 POP PUSH2 0x81F PUSH1 0x0 DUP4 ADD DUP5 PUSH2 0x6E3 JUMP JUMPDEST SWAP3 SWAP2 POP POP JUMP JUMPDEST PUSH1 0x0 PUSH1 0x40 DUP3 ADD SWAP1 POP DUP2 DUP2 SUB PUSH1 0x0 DUP4 ADD MSTORE PUSH2 0x840 DUP2 DUP5 DUP7 PUSH2 0x717 JUMP JUMPDEST SWAP1 POP DUP2 DUP2 SUB PUSH1 0x20 DUP4 ADD MSTORE PUSH2 0x853 DUP2 PUSH2 0x744 JUMP JUMPDEST SWAP1 POP SWAP4 SWAP3 POP POP POP JUMP JUMPDEST PUSH1 0x0 PUSH1 0x40 DUP3 ADD SWAP1 POP DUP2 DUP2 SUB PUSH1 0x0 DUP4 ADD MSTORE PUSH2 0x877 DUP2 DUP5 DUP7 PUSH2 0x717 JUMP JUMPDEST SWAP1 POP DUP2 DUP2 SUB PUSH1 0x20 DUP4 ADD MSTORE PUSH2 0x88A DUP2 PUSH2 0x767 JUMP JUMPDEST SWAP1 POP SWAP4 SWAP3 POP POP POP JUMP JUMPDEST PUSH1 0x0 PUSH1 0x40 DUP3 ADD SWAP1 POP DUP2 DUP2 SUB PUSH1 0x0 DUP4 ADD MSTORE PUSH2 0x8AE DUP2 DUP5 DUP7 PUSH2 0x717 JUMP JUMPDEST SWAP1 POP DUP2 DUP2 SUB PUSH1 0x20 DUP4 ADD MSTORE PUSH2 0x8C1 DUP2 PUSH2 0x78A JUMP JUMPDEST SWAP1 POP SWAP4 SWAP3 POP POP POP JUMP JUMPDEST PUSH1 0x0 DUP2 SWAP1 POP SWAP3 SWAP2 POP POP JUMP JUMPDEST PUSH1 0x0 DUP3 DUP3 MSTORE PUSH1 0x20 DUP3 ADD SWAP1 POP SWAP3 SWAP2 POP POP JUMP JUMPDEST PUSH1 0x0 PUSH2 0x8F1 DUP3 PUSH2 0x902 JUMP JUMPDEST SWAP1 POP SWAP2 SWAP1 POP JUMP JUMPDEST PUSH1 0x0 DUP2 SWAP1 POP SWAP2 SWAP1 POP JUMP JUMPDEST PUSH1 0x0 PUSH20 0xFFFFFFFFFFFFFFFFFFFFFFFFFFFFFFFFFFFFFFFF DUP3 AND SWAP1 POP SWAP2 SWAP1 POP JUMP JUMPDEST DUP3 DUP2 DUP4 CALLDATACOPY PUSH1 0x0 DUP4 DUP4 ADD MSTORE POP POP POP JUMP JUMPDEST PUSH1 0x0 DUP1 REVERT JUMPDEST PUSH1 0x0 DUP1 REVERT JUMPDEST PUSH1 0x0 DUP1 REVERT JUMPDEST PUSH1 0x0 DUP1 REVERT JUMPDEST PUSH1 0x0 DUP1 REVERT JUMPDEST PUSH1 0x0 PUSH1 0x1F NOT PUSH1 0x1F DUP4 ADD AND SWAP1 POP SWAP2 SWAP1 POP JUMP JUMPDEST PUSH32 0x454E532041646472657373206368616E67656400000000000000000000000000 PUSH1 0x0 DUP3 ADD MSTORE POP JUMP JUMPDEST PUSH32 0x454E5320416464726573732069732073756363657366756C6C79206164646564 PUSH1 0x0 DUP3 ADD MSTORE POP JUMP JUMPDEST PUSH32 0x4F776E657273686970207375636365737366756C6C79207472616E7366657265 PUSH1 0x0 DUP3 ADD MSTORE PUSH32 0x6400000000000000000000000000000000000000000000000000000000000000 PUSH1 0x20 DUP3 ADD MSTORE POP JUMP JUMPDEST PUSH2 0xA05 DUP2 PUSH2 0x8E6 JUMP JUMPDEST DUP2 EQ PUSH2 0xA10 JUMPI PUSH1 0x0 DUP1 REVERT JUMPDEST POP JUMP JUMPDEST PUSH2 0xA1C DUP2 PUSH2 0x8F8 JUMP JUMPDEST DUP2 EQ PUSH2 0xA27 JUMPI PUSH1 0x0 DUP1 REVERT JUMPDEST POP JUMP INVALID LOG2 PUSH5 0x6970667358 0x22 SLT KECCAK256 PUSH28 0x7235C557E41772DEA690ECFA43D894824D57829FF37B628231EEE997 0xC4 0xAF DUP7 PUSH5 0x736F6C6343 STOP ADDMOD SMOD STOP CALLER "
				},
				"gasEstimates": {
					"creation": {
						"codeDepositCost": "531200",
						"executionCost": "562",
						"totalCost": "531762"
					},
					"external": {
						"ENSRecord(bytes32)": "infinite",
						"addEthName(string,address)": "infinite",
						"changeAddress(string,address)": "infinite",
						"getAddress(string)": "infinite",
						"node(string)": "infinite",
						"transferOwnership(string,address)": "infinite"
					}
				},
				"methodIdentifiers": {
					"ENSRecord(bytes32)": "bd1045f5",
					"addEthName(string,address)": "7640cb3e",
					"changeAddress(string,address)": "a7dbb402",
					"getAddress(string)": "bf40fac1",
					"node(string)": "acb3949a",
					"transferOwnership(string,address)": "c0e793c2"
				}
			},
			"storageLayout": {
				"storage": [
					{
						"astId": 11,
						"contract": "web3_walkIn/seethiz.sol:Registry",
						"label": "ENSRecord",
						"offset": 0,
						"slot": "0",
						"type": "t_mapping(t_bytes32,t_struct(ENS)6_storage)"
					}
				],
				"types": {
					"t_address": {
						"encoding": "inplace",
						"label": "address",
						"numberOfBytes": "20"
					},
					"t_bytes32": {
						"encoding": "inplace",
						"label": "bytes32",
						"numberOfBytes": "32"
					},
					"t_mapping(t_bytes32,t_struct(ENS)6_storage)": {
						"encoding": "mapping",
						"key": "t_bytes32",
						"label": "mapping(bytes32 => struct Registry.ENS)",
						"numberOfBytes": "32",
						"value": "t_struct(ENS)6_storage"
					},
					"t_struct(ENS)6_storage": {
						"encoding": "inplace",
						"label": "struct Registry.ENS",
						"members": [
							{
								"astId": 3,
								"contract": "web3_walkIn/seethiz.sol:Registry",
								"label": "owner",
								"offset": 0,
								"slot": "0",
								"type": "t_address"
							},
							{
								"astId": 5,
								"contract": "web3_walkIn/seethiz.sol:Registry",
								"label": "mAddress",
								"offset": 0,
								"slot": "1",
								"type": "t_address"
							}
						],
						"numberOfBytes": "64"
					}
				}
			},
			"userdoc": {
				"kind": "user",
				"methods": {},
				"version": 1
			}
		}
	}
}