{
	"web3_walkIn/starterENS.sol": {
		"myENS": {
			"abi": [
				{
					"inputs": [],
					"stateMutability": "nonpayable",
					"type": "constructor"
				},
				{
					"anonymous": false,
					"inputs": [
						{
							"indexed": true,
							"internalType": "string",
							"name": "name",
							"type": "string"
						},
						{
							"indexed": true,
							"internalType": "address",
							"name": "addr",
							"type": "address"
						},
						{
							"indexed": false,
							"internalType": "string",
							"name": "message",
							"type": "string"
						}
					],
					"name": "fire",
					"type": "event"
				},
				{
					"inputs": [
						{
							"internalType": "string",
							"name": "desiredName",
							"type": "string"
						},
						{
							"internalType": "address",
							"name": "_yourAddr",
							"type": "address"
						}
					],
					"name": "addName",
					"outputs": [],
					"stateMutability": "nonpayable",
					"type": "function"
				},
				{
					"inputs": [],
					"name": "anyOneCall",
					"outputs": [],
					"stateMutability": "nonpayable",
					"type": "function"
				},
				{
					"inputs": [],
					"name": "owner",
					"outputs": [
						{
							"internalType": "address",
							"name": "",
							"type": "address"
						}
					],
					"stateMutability": "view",
					"type": "function"
				},
				{
					"inputs": [],
					"name": "register",
					"outputs": [
						{
							"internalType": "address",
							"name": "addr",
							"type": "address"
						},
						{
							"internalType": "string",
							"name": "oName",
							"type": "string"
						}
					],
					"stateMutability": "view",
					"type": "function"
				},
				{
					"inputs": [
						{
							"internalType": "address",
							"name": "",
							"type": "address"
						}
					],
					"name": "registeredNames",
					"outputs": [
						{
							"internalType": "address",
							"name": "addr",
							"type": "address"
						},
						{
							"internalType": "string",
							"name": "oName",
							"type": "string"
						}
					],
					"stateMutability": "view",
					"type": "function"
				},
				{
					"inputs": [
						{
							"internalType": "string",
							"name": "toWhom",
							"type": "string"
						},
						{
							"internalType": "address",
							"name": "_newOwner",
							"type": "address"
						}
					],
					"name": "setOwner",
					"outputs": [],
					"stateMutability": "nonpayable",
					"type": "function"
				}
			],
			"devdoc": {
				"kind": "dev",
				"methods": {},
				"version": 1
			},
			"evm": {
				"assembly": "    /* \"web3_walkIn/starterENS.sol\":91:1298  contract myENS {... */\n  mstore(0x40, 0x80)\n    /* \"web3_walkIn/starterENS.sol\":339:388  constructor() {... */\n  callvalue\n  dup1\n  iszero\n  tag_1\n  jumpi\n  0x00\n  dup1\n  revert\ntag_1:\n  pop\n    /* \"web3_walkIn/starterENS.sol\":371:381  msg.sender */\n  caller\n    /* \"web3_walkIn/starterENS.sol\":363:368  owner */\n  0x03\n  0x00\n    /* \"web3_walkIn/starterENS.sol\":363:381  owner = msg.sender */\n  0x0100\n  exp\n  dup2\n  sload\n  dup2\n  0xffffffffffffffffffffffffffffffffffffffff\n  mul\n  not\n  and\n  swap1\n  dup4\n  0xffffffffffffffffffffffffffffffffffffffff\n  and\n  mul\n  or\n  swap1\n  sstore\n  pop\n    /* \"web3_walkIn/starterENS.sol\":91:1298  contract myENS {... */\n  dataSize(sub_0)\n  dup1\n  dataOffset(sub_0)\n  0x00\n  codecopy\n  0x00\n  return\nstop\n\nsub_0: assembly {\n        /* \"web3_walkIn/starterENS.sol\":91:1298  contract myENS {... */\n      mstore(0x40, 0x80)\n      callvalue\n      dup1\n      iszero\n      tag_1\n      jumpi\n      0x00\n      dup1\n      revert\n    tag_1:\n      pop\n      jumpi(tag_2, lt(calldatasize, 0x04))\n      shr(0xe0, calldataload(0x00))\n      dup1\n      0x092b25e9\n      eq\n      tag_3\n      jumpi\n      dup1\n      0x15f0e1cc\n      eq\n      tag_4\n      jumpi\n      dup1\n      0x1aa3a008\n      eq\n      tag_5\n      jumpi\n      dup1\n      0x8da5cb5b\n      eq\n      tag_6\n      jumpi\n      dup1\n      0x93b45253\n      eq\n      tag_7\n      jumpi\n      dup1\n      0xb39cdb26\n      eq\n      tag_8\n      jumpi\n    tag_2:\n      0x00\n      dup1\n      revert\n        /* \"web3_walkIn/starterENS.sol\":929:1236  function setOwner( string memory toWhom, address _newOwner ) external onlyOwner {... */\n    tag_3:\n      tag_9\n      0x04\n      dup1\n      calldatasize\n      sub\n      dup2\n      add\n      swap1\n      tag_10\n      swap2\n      swap1\n      tag_11\n      jump\t// in\n    tag_10:\n      tag_12\n      jump\t// in\n    tag_9:\n      stop\n        /* \"web3_walkIn/starterENS.sol\":567:919  function addName ( string memory desiredName, address _yourAddr ) public onlyOwner {... */\n    tag_4:\n      tag_13\n      0x04\n      dup1\n      calldatasize\n      sub\n      dup2\n      add\n      swap1\n      tag_14\n      swap2\n      swap1\n      tag_11\n      jump\t// in\n    tag_14:\n      tag_15\n      jump\t// in\n    tag_13:\n      stop\n        /* \"web3_walkIn/starterENS.sol\":186:210  Register public register */\n    tag_5:\n      tag_16\n      tag_17\n      jump\t// in\n    tag_16:\n      mload(0x40)\n      tag_18\n      swap3\n      swap2\n      swap1\n      tag_19\n      jump\t// in\n    tag_18:\n      mload(0x40)\n      dup1\n      swap2\n      sub\n      swap1\n      return\n        /* \"web3_walkIn/starterENS.sol\":312:332  address public owner */\n    tag_6:\n      tag_20\n      tag_21\n      jump\t// in\n    tag_20:\n      mload(0x40)\n      tag_22\n      swap2\n      swap1\n      tag_23\n      jump\t// in\n    tag_22:\n      mload(0x40)\n      dup1\n      swap2\n      sub\n      swap1\n      return\n        /* \"web3_walkIn/starterENS.sol\":253:305  mapping( address => Register) public registeredNames */\n    tag_7:\n      tag_24\n      0x04\n      dup1\n      calldatasize\n      sub\n      dup2\n      add\n      swap1\n      tag_25\n      swap2\n      swap1\n      tag_26\n      jump\t// in\n    tag_25:\n      tag_27\n      jump\t// in\n    tag_24:\n      mload(0x40)\n      tag_28\n      swap3\n      swap2\n      swap1\n      tag_19\n      jump\t// in\n    tag_28:\n      mload(0x40)\n      dup1\n      swap2\n      sub\n      swap1\n      return\n        /* \"web3_walkIn/starterENS.sol\":1243:1296  function anyOneCall() external {... */\n    tag_8:\n      tag_29\n      tag_30\n      jump\t// in\n    tag_29:\n      stop\n        /* \"web3_walkIn/starterENS.sol\":929:1236  function setOwner( string memory toWhom, address _newOwner ) external onlyOwner {... */\n    tag_12:\n        /* \"web3_walkIn/starterENS.sol\":447:452  owner */\n      0x03\n      0x00\n      swap1\n      sload\n      swap1\n      0x0100\n      exp\n      swap1\n      div\n      0xffffffffffffffffffffffffffffffffffffffff\n      and\n        /* \"web3_walkIn/starterENS.sol\":433:452  msg.sender == owner */\n      0xffffffffffffffffffffffffffffffffffffffff\n      and\n        /* \"web3_walkIn/starterENS.sol\":433:443  msg.sender */\n      caller\n        /* \"web3_walkIn/starterENS.sol\":433:452  msg.sender == owner */\n      0xffffffffffffffffffffffffffffffffffffffff\n      and\n      eq\n        /* \"web3_walkIn/starterENS.sol\":425:466  require(msg.sender == owner, \"NOT OWNER\") */\n      tag_32\n      jumpi\n      mload(0x40)\n      0x08c379a000000000000000000000000000000000000000000000000000000000\n      dup2\n      mstore\n      0x04\n      add\n      tag_33\n      swap1\n      tag_34\n      jump\t// in\n    tag_33:\n      mload(0x40)\n      dup1\n      swap2\n      sub\n      swap1\n      revert\n    tag_32:\n        /* \"web3_walkIn/starterENS.sol\":1049:1050  0 */\n      0x00\n        /* \"web3_walkIn/starterENS.sol\":1028:1051  _newOwner != address(0) */\n      0xffffffffffffffffffffffffffffffffffffffff\n      and\n        /* \"web3_walkIn/starterENS.sol\":1028:1037  _newOwner */\n      dup2\n        /* \"web3_walkIn/starterENS.sol\":1028:1051  _newOwner != address(0) */\n      0xffffffffffffffffffffffffffffffffffffffff\n      and\n      eq\n      iszero\n        /* \"web3_walkIn/starterENS.sol\":1019:1071  require( _newOwner != address(0), \"INVALID ADDRESS\") */\n      tag_36\n      jumpi\n      mload(0x40)\n      0x08c379a000000000000000000000000000000000000000000000000000000000\n      dup2\n      mstore\n      0x04\n      add\n      tag_37\n      swap1\n      tag_38\n      jump\t// in\n    tag_37:\n      mload(0x40)\n      dup1\n      swap2\n      sub\n      swap1\n      revert\n    tag_36:\n        /* \"web3_walkIn/starterENS.sol\":1156:1165  _newOwner */\n      dup1\n        /* \"web3_walkIn/starterENS.sol\":1148:1153  owner */\n      0x03\n      0x00\n        /* \"web3_walkIn/starterENS.sol\":1148:1165  owner = _newOwner */\n      0x0100\n      exp\n      dup2\n      sload\n      dup2\n      0xffffffffffffffffffffffffffffffffffffffff\n      mul\n      not\n      and\n      swap1\n      dup4\n      0xffffffffffffffffffffffffffffffffffffffff\n      and\n      mul\n      or\n      swap1\n      sstore\n      pop\n        /* \"web3_walkIn/starterENS.sol\":1196:1205  _newOwner */\n      dup1\n        /* \"web3_walkIn/starterENS.sol\":1181:1229  fire( toWhom , _newOwner, \"TAKE RESPONSIBILITY\") */\n      0xffffffffffffffffffffffffffffffffffffffff\n      and\n        /* \"web3_walkIn/starterENS.sol\":1187:1193  toWhom */\n      dup3\n        /* \"web3_walkIn/starterENS.sol\":1181:1229  fire( toWhom , _newOwner, \"TAKE RESPONSIBILITY\") */\n      mload(0x40)\n      tag_39\n      swap2\n      swap1\n      tag_40\n      jump\t// in\n    tag_39:\n      mload(0x40)\n      dup1\n      swap2\n      sub\n      swap1\n      keccak256\n      0xce432c471917ea9ea41540fa67e8844ab3621c39db59bd2b397640977dfd8482\n      mload(0x40)\n      tag_41\n      swap1\n      tag_42\n      jump\t// in\n    tag_41:\n      mload(0x40)\n      dup1\n      swap2\n      sub\n      swap1\n      log3\n        /* \"web3_walkIn/starterENS.sol\":929:1236  function setOwner( string memory toWhom, address _newOwner ) external onlyOwner {... */\n      pop\n      pop\n      jump\t// out\n        /* \"web3_walkIn/starterENS.sol\":567:919  function addName ( string memory desiredName, address _yourAddr ) public onlyOwner {... */\n    tag_15:\n        /* \"web3_walkIn/starterENS.sol\":447:452  owner */\n      0x03\n      0x00\n      swap1\n      sload\n      swap1\n      0x0100\n      exp\n      swap1\n      div\n      0xffffffffffffffffffffffffffffffffffffffff\n      and\n        /* \"web3_walkIn/starterENS.sol\":433:452  msg.sender == owner */\n      0xffffffffffffffffffffffffffffffffffffffff\n      and\n        /* \"web3_walkIn/starterENS.sol\":433:443  msg.sender */\n      caller\n        /* \"web3_walkIn/starterENS.sol\":433:452  msg.sender == owner */\n      0xffffffffffffffffffffffffffffffffffffffff\n      and\n      eq\n        /* \"web3_walkIn/starterENS.sol\":425:466  require(msg.sender == owner, \"NOT OWNER\") */\n      tag_44\n      jumpi\n      mload(0x40)\n      0x08c379a000000000000000000000000000000000000000000000000000000000\n      dup2\n      mstore\n      0x04\n      add\n      tag_45\n      swap1\n      tag_34\n      jump\t// in\n    tag_45:\n      mload(0x40)\n      dup1\n      swap2\n      sub\n      swap1\n      revert\n    tag_44:\n        /* \"web3_walkIn/starterENS.sol\":690:691  0 */\n      0x00\n        /* \"web3_walkIn/starterENS.sol\":669:692  _yourAddr != address(0) */\n      0xffffffffffffffffffffffffffffffffffffffff\n      and\n        /* \"web3_walkIn/starterENS.sol\":669:678  _yourAddr */\n      dup2\n        /* \"web3_walkIn/starterENS.sol\":669:692  _yourAddr != address(0) */\n      0xffffffffffffffffffffffffffffffffffffffff\n      and\n      eq\n      iszero\n        /* \"web3_walkIn/starterENS.sol\":660:712  require( _yourAddr != address(0), \"INVALID ADDRESS\") */\n      tag_47\n      jumpi\n      mload(0x40)\n      0x08c379a000000000000000000000000000000000000000000000000000000000\n      dup2\n      mstore\n      0x04\n      add\n      tag_48\n      swap1\n      tag_38\n      jump\t// in\n    tag_48:\n      mload(0x40)\n      dup1\n      swap2\n      sub\n      swap1\n      revert\n    tag_47:\n        /* \"web3_walkIn/starterENS.sol\":722:747  Register storage saveTHIS */\n      0x00\n        /* \"web3_walkIn/starterENS.sol\":750:765  registeredNames */\n      0x02\n        /* \"web3_walkIn/starterENS.sol\":750:776  registeredNames[_yourAddr] */\n      0x00\n        /* \"web3_walkIn/starterENS.sol\":766:775  _yourAddr */\n      dup4\n        /* \"web3_walkIn/starterENS.sol\":750:776  registeredNames[_yourAddr] */\n      0xffffffffffffffffffffffffffffffffffffffff\n      and\n      0xffffffffffffffffffffffffffffffffffffffff\n      and\n      dup2\n      mstore\n      0x20\n      add\n      swap1\n      dup2\n      mstore\n      0x20\n      add\n      0x00\n      keccak256\n        /* \"web3_walkIn/starterENS.sol\":722:776  Register storage saveTHIS = registeredNames[_yourAddr] */\n      swap1\n      pop\n        /* \"web3_walkIn/starterENS.sol\":802:811  _yourAddr */\n      dup2\n        /* \"web3_walkIn/starterENS.sol\":786:794  saveTHIS */\n      dup2\n        /* \"web3_walkIn/starterENS.sol\":786:799  saveTHIS.addr */\n      0x00\n      add\n      0x00\n        /* \"web3_walkIn/starterENS.sol\":786:811  saveTHIS.addr = _yourAddr */\n      0x0100\n      exp\n      dup2\n      sload\n      dup2\n      0xffffffffffffffffffffffffffffffffffffffff\n      mul\n      not\n      and\n      swap1\n      dup4\n      0xffffffffffffffffffffffffffffffffffffffff\n      and\n      mul\n      or\n      swap1\n      sstore\n      pop\n        /* \"web3_walkIn/starterENS.sol\":838:849  desiredName */\n      dup3\n        /* \"web3_walkIn/starterENS.sol\":821:829  saveTHIS */\n      dup2\n        /* \"web3_walkIn/starterENS.sol\":821:835  saveTHIS.oName */\n      0x01\n      add\n        /* \"web3_walkIn/starterENS.sol\":821:849  saveTHIS.oName = desiredName */\n      swap1\n      dup1\n      mload\n      swap1\n      0x20\n      add\n      swap1\n      tag_49\n      swap3\n      swap2\n      swap1\n      tag_50\n      jump\t// in\n    tag_49:\n      pop\n        /* \"web3_walkIn/starterENS.sol\":883:892  _yourAddr */\n      dup2\n        /* \"web3_walkIn/starterENS.sol\":865:911  fire(desiredName, _yourAddr, \"Enjoy Your ENS\") */\n      0xffffffffffffffffffffffffffffffffffffffff\n      and\n        /* \"web3_walkIn/starterENS.sol\":870:881  desiredName */\n      dup4\n        /* \"web3_walkIn/starterENS.sol\":865:911  fire(desiredName, _yourAddr, \"Enjoy Your ENS\") */\n      mload(0x40)\n      tag_51\n      swap2\n      swap1\n      tag_40\n      jump\t// in\n    tag_51:\n      mload(0x40)\n      dup1\n      swap2\n      sub\n      swap1\n      keccak256\n      0xce432c471917ea9ea41540fa67e8844ab3621c39db59bd2b397640977dfd8482\n      mload(0x40)\n      tag_52\n      swap1\n      tag_53\n      jump\t// in\n    tag_52:\n      mload(0x40)\n      dup1\n      swap2\n      sub\n      swap1\n      log3\n        /* \"web3_walkIn/starterENS.sol\":650:919  {... */\n      pop\n        /* \"web3_walkIn/starterENS.sol\":567:919  function addName ( string memory desiredName, address _yourAddr ) public onlyOwner {... */\n      pop\n      pop\n      jump\t// out\n        /* \"web3_walkIn/starterENS.sol\":186:210  Register public register */\n    tag_17:\n      0x00\n      dup1\n      0x00\n      add\n      0x00\n      swap1\n      sload\n      swap1\n      0x0100\n      exp\n      swap1\n      div\n      0xffffffffffffffffffffffffffffffffffffffff\n      and\n      swap1\n      dup1\n      0x01\n      add\n      dup1\n      sload\n      tag_54\n      swap1\n      tag_55\n      jump\t// in\n    tag_54:\n      dup1\n      0x1f\n      add\n      0x20\n      dup1\n      swap2\n      div\n      mul\n      0x20\n      add\n      mload(0x40)\n      swap1\n      dup2\n      add\n      0x40\n      mstore\n      dup1\n      swap3\n      swap2\n      swap1\n      dup2\n      dup2\n      mstore\n      0x20\n      add\n      dup3\n      dup1\n      sload\n      tag_56\n      swap1\n      tag_55\n      jump\t// in\n    tag_56:\n      dup1\n      iszero\n      tag_57\n      jumpi\n      dup1\n      0x1f\n      lt\n      tag_58\n      jumpi\n      0x0100\n      dup1\n      dup4\n      sload\n      div\n      mul\n      dup4\n      mstore\n      swap2\n      0x20\n      add\n      swap2\n      jump(tag_57)\n    tag_58:\n      dup3\n      add\n      swap2\n      swap1\n      0x00\n      mstore\n      keccak256(0x00, 0x20)\n      swap1\n    tag_59:\n      dup2\n      sload\n      dup2\n      mstore\n      swap1\n      0x01\n      add\n      swap1\n      0x20\n      add\n      dup1\n      dup4\n      gt\n      tag_59\n      jumpi\n      dup3\n      swap1\n      sub\n      0x1f\n      and\n      dup3\n      add\n      swap2\n    tag_57:\n      pop\n      pop\n      pop\n      pop\n      pop\n      swap1\n      pop\n      dup3\n      jump\t// out\n        /* \"web3_walkIn/starterENS.sol\":312:332  address public owner */\n    tag_21:\n      0x03\n      0x00\n      swap1\n      sload\n      swap1\n      0x0100\n      exp\n      swap1\n      div\n      0xffffffffffffffffffffffffffffffffffffffff\n      and\n      dup2\n      jump\t// out\n        /* \"web3_walkIn/starterENS.sol\":253:305  mapping( address => Register) public registeredNames */\n    tag_27:\n      mstore(0x20, 0x02)\n      dup1\n      0x00\n      mstore\n      keccak256(0x00, 0x40)\n      0x00\n      swap2\n      pop\n      swap1\n      pop\n      dup1\n      0x00\n      add\n      0x00\n      swap1\n      sload\n      swap1\n      0x0100\n      exp\n      swap1\n      div\n      0xffffffffffffffffffffffffffffffffffffffff\n      and\n      swap1\n      dup1\n      0x01\n      add\n      dup1\n      sload\n      tag_60\n      swap1\n      tag_55\n      jump\t// in\n    tag_60:\n      dup1\n      0x1f\n      add\n      0x20\n      dup1\n      swap2\n      div\n      mul\n      0x20\n      add\n      mload(0x40)\n      swap1\n      dup2\n      add\n      0x40\n      mstore\n      dup1\n      swap3\n      swap2\n      swap1\n      dup2\n      dup2\n      mstore\n      0x20\n      add\n      dup3\n      dup1\n      sload\n      tag_61\n      swap1\n      tag_55\n      jump\t// in\n    tag_61:\n      dup1\n      iszero\n      tag_62\n      jumpi\n      dup1\n      0x1f\n      lt\n      tag_63\n      jumpi\n      0x0100\n      dup1\n      dup4\n      sload\n      div\n      mul\n      dup4\n      mstore\n      swap2\n      0x20\n      add\n      swap2\n      jump(tag_62)\n    tag_63:\n      dup3\n      add\n      swap2\n      swap1\n      0x00\n      mstore\n      keccak256(0x00, 0x20)\n      swap1\n    tag_64:\n      dup2\n      sload\n      dup2\n      mstore\n      swap1\n      0x01\n      add\n      swap1\n      0x20\n      add\n      dup1\n      dup4\n      gt\n      tag_64\n      jumpi\n      dup3\n      swap1\n      sub\n      0x1f\n      and\n      dup3\n      add\n      swap2\n    tag_62:\n      pop\n      pop\n      pop\n      pop\n      pop\n      swap1\n      pop\n      dup3\n      jump\t// out\n        /* \"web3_walkIn/starterENS.sol\":1243:1296  function anyOneCall() external {... */\n    tag_30:\n      jump\t// out\n    tag_50:\n      dup3\n      dup1\n      sload\n      tag_66\n      swap1\n      tag_55\n      jump\t// in\n    tag_66:\n      swap1\n      0x00\n      mstore\n      keccak256(0x00, 0x20)\n      swap1\n      0x1f\n      add\n      0x20\n      swap1\n      div\n      dup2\n      add\n      swap3\n      dup3\n      tag_68\n      jumpi\n      0x00\n      dup6\n      sstore\n      jump(tag_67)\n    tag_68:\n      dup3\n      0x1f\n      lt\n      tag_69\n      jumpi\n      dup1\n      mload\n      not(0xff)\n      and\n      dup4\n      dup1\n      add\n      or\n      dup6\n      sstore\n      jump(tag_67)\n    tag_69:\n      dup3\n      dup1\n      add\n      0x01\n      add\n      dup6\n      sstore\n      dup3\n      iszero\n      tag_67\n      jumpi\n      swap2\n      dup3\n      add\n    tag_70:\n      dup3\n      dup2\n      gt\n      iszero\n      tag_71\n      jumpi\n      dup3\n      mload\n      dup3\n      sstore\n      swap2\n      0x20\n      add\n      swap2\n      swap1\n      0x01\n      add\n      swap1\n      jump(tag_70)\n    tag_71:\n    tag_67:\n      pop\n      swap1\n      pop\n      tag_72\n      swap2\n      swap1\n      tag_73\n      jump\t// in\n    tag_72:\n      pop\n      swap1\n      jump\t// out\n    tag_73:\n    tag_74:\n      dup1\n      dup3\n      gt\n      iszero\n      tag_75\n      jumpi\n      0x00\n      dup2\n      0x00\n      swap1\n      sstore\n      pop\n      0x01\n      add\n      jump(tag_74)\n    tag_75:\n      pop\n      swap1\n      jump\t// out\n        /* \"#utility.yul\":7:419   */\n    tag_77:\n        /* \"#utility.yul\":85:90   */\n      0x00\n        /* \"#utility.yul\":110:176   */\n      tag_79\n        /* \"#utility.yul\":126:175   */\n      tag_80\n        /* \"#utility.yul\":168:174   */\n      dup5\n        /* \"#utility.yul\":126:175   */\n      tag_81\n      jump\t// in\n    tag_80:\n        /* \"#utility.yul\":110:176   */\n      tag_82\n      jump\t// in\n    tag_79:\n        /* \"#utility.yul\":101:176   */\n      swap1\n      pop\n        /* \"#utility.yul\":199:205   */\n      dup3\n        /* \"#utility.yul\":192:197   */\n      dup2\n        /* \"#utility.yul\":185:206   */\n      mstore\n        /* \"#utility.yul\":237:241   */\n      0x20\n        /* \"#utility.yul\":230:235   */\n      dup2\n        /* \"#utility.yul\":226:242   */\n      add\n        /* \"#utility.yul\":275:278   */\n      dup5\n        /* \"#utility.yul\":266:272   */\n      dup5\n        /* \"#utility.yul\":261:264   */\n      dup5\n        /* \"#utility.yul\":257:273   */\n      add\n        /* \"#utility.yul\":254:279   */\n      gt\n        /* \"#utility.yul\":251:363   */\n      iszero\n      tag_83\n      jumpi\n        /* \"#utility.yul\":282:361   */\n      tag_84\n      tag_85\n      jump\t// in\n    tag_84:\n        /* \"#utility.yul\":251:363   */\n    tag_83:\n        /* \"#utility.yul\":372:413   */\n      tag_86\n        /* \"#utility.yul\":406:412   */\n      dup5\n        /* \"#utility.yul\":401:404   */\n      dup3\n        /* \"#utility.yul\":396:399   */\n      dup6\n        /* \"#utility.yul\":372:413   */\n      tag_87\n      jump\t// in\n    tag_86:\n        /* \"#utility.yul\":91:419   */\n      pop\n        /* \"#utility.yul\":7:419   */\n      swap4\n      swap3\n      pop\n      pop\n      pop\n      jump\t// out\n        /* \"#utility.yul\":425:564   */\n    tag_88:\n        /* \"#utility.yul\":471:476   */\n      0x00\n        /* \"#utility.yul\":509:515   */\n      dup2\n        /* \"#utility.yul\":496:516   */\n      calldataload\n        /* \"#utility.yul\":487:516   */\n      swap1\n      pop\n        /* \"#utility.yul\":525:558   */\n      tag_90\n        /* \"#utility.yul\":552:557   */\n      dup2\n        /* \"#utility.yul\":525:558   */\n      tag_91\n      jump\t// in\n    tag_90:\n        /* \"#utility.yul\":425:564   */\n      swap3\n      swap2\n      pop\n      pop\n      jump\t// out\n        /* \"#utility.yul\":584:924   */\n    tag_92:\n        /* \"#utility.yul\":640:645   */\n      0x00\n        /* \"#utility.yul\":689:692   */\n      dup3\n        /* \"#utility.yul\":682:686   */\n      0x1f\n        /* \"#utility.yul\":674:680   */\n      dup4\n        /* \"#utility.yul\":670:687   */\n      add\n        /* \"#utility.yul\":666:693   */\n      slt\n        /* \"#utility.yul\":656:778   */\n      tag_94\n      jumpi\n        /* \"#utility.yul\":697:776   */\n      tag_95\n      tag_96\n      jump\t// in\n    tag_95:\n        /* \"#utility.yul\":656:778   */\n    tag_94:\n        /* \"#utility.yul\":814:820   */\n      dup2\n        /* \"#utility.yul\":801:821   */\n      calldataload\n        /* \"#utility.yul\":839:918   */\n      tag_97\n        /* \"#utility.yul\":914:917   */\n      dup5\n        /* \"#utility.yul\":906:912   */\n      dup3\n        /* \"#utility.yul\":899:903   */\n      0x20\n        /* \"#utility.yul\":891:897   */\n      dup7\n        /* \"#utility.yul\":887:904   */\n      add\n        /* \"#utility.yul\":839:918   */\n      tag_77\n      jump\t// in\n    tag_97:\n        /* \"#utility.yul\":830:918   */\n      swap2\n      pop\n        /* \"#utility.yul\":646:924   */\n      pop\n        /* \"#utility.yul\":584:924   */\n      swap3\n      swap2\n      pop\n      pop\n      jump\t// out\n        /* \"#utility.yul\":930:1259   */\n    tag_26:\n        /* \"#utility.yul\":989:995   */\n      0x00\n        /* \"#utility.yul\":1038:1040   */\n      0x20\n        /* \"#utility.yul\":1026:1035   */\n      dup3\n        /* \"#utility.yul\":1017:1024   */\n      dup5\n        /* \"#utility.yul\":1013:1036   */\n      sub\n        /* \"#utility.yul\":1009:1041   */\n      slt\n        /* \"#utility.yul\":1006:1125   */\n      iszero\n      tag_99\n      jumpi\n        /* \"#utility.yul\":1044:1123   */\n      tag_100\n      tag_101\n      jump\t// in\n    tag_100:\n        /* \"#utility.yul\":1006:1125   */\n    tag_99:\n        /* \"#utility.yul\":1164:1165   */\n      0x00\n        /* \"#utility.yul\":1189:1242   */\n      tag_102\n        /* \"#utility.yul\":1234:1241   */\n      dup5\n        /* \"#utility.yul\":1225:1231   */\n      dup3\n        /* \"#utility.yul\":1214:1223   */\n      dup6\n        /* \"#utility.yul\":1210:1232   */\n      add\n        /* \"#utility.yul\":1189:1242   */\n      tag_88\n      jump\t// in\n    tag_102:\n        /* \"#utility.yul\":1179:1242   */\n      swap2\n      pop\n        /* \"#utility.yul\":1135:1252   */\n      pop\n        /* \"#utility.yul\":930:1259   */\n      swap3\n      swap2\n      pop\n      pop\n      jump\t// out\n        /* \"#utility.yul\":1265:1919   */\n    tag_11:\n        /* \"#utility.yul\":1343:1349   */\n      0x00\n        /* \"#utility.yul\":1351:1357   */\n      dup1\n        /* \"#utility.yul\":1400:1402   */\n      0x40\n        /* \"#utility.yul\":1388:1397   */\n      dup4\n        /* \"#utility.yul\":1379:1386   */\n      dup6\n        /* \"#utility.yul\":1375:1398   */\n      sub\n        /* \"#utility.yul\":1371:1403   */\n      slt\n        /* \"#utility.yul\":1368:1487   */\n      iszero\n      tag_104\n      jumpi\n        /* \"#utility.yul\":1406:1485   */\n      tag_105\n      tag_101\n      jump\t// in\n    tag_105:\n        /* \"#utility.yul\":1368:1487   */\n    tag_104:\n        /* \"#utility.yul\":1554:1555   */\n      0x00\n        /* \"#utility.yul\":1543:1552   */\n      dup4\n        /* \"#utility.yul\":1539:1556   */\n      add\n        /* \"#utility.yul\":1526:1557   */\n      calldataload\n        /* \"#utility.yul\":1584:1602   */\n      0xffffffffffffffff\n        /* \"#utility.yul\":1576:1582   */\n      dup2\n        /* \"#utility.yul\":1573:1603   */\n      gt\n        /* \"#utility.yul\":1570:1687   */\n      iszero\n      tag_106\n      jumpi\n        /* \"#utility.yul\":1606:1685   */\n      tag_107\n      tag_108\n      jump\t// in\n    tag_107:\n        /* \"#utility.yul\":1570:1687   */\n    tag_106:\n        /* \"#utility.yul\":1711:1774   */\n      tag_109\n        /* \"#utility.yul\":1766:1773   */\n      dup6\n        /* \"#utility.yul\":1757:1763   */\n      dup3\n        /* \"#utility.yul\":1746:1755   */\n      dup7\n        /* \"#utility.yul\":1742:1764   */\n      add\n        /* \"#utility.yul\":1711:1774   */\n      tag_92\n      jump\t// in\n    tag_109:\n        /* \"#utility.yul\":1701:1774   */\n      swap3\n      pop\n        /* \"#utility.yul\":1497:1784   */\n      pop\n        /* \"#utility.yul\":1823:1825   */\n      0x20\n        /* \"#utility.yul\":1849:1902   */\n      tag_110\n        /* \"#utility.yul\":1894:1901   */\n      dup6\n        /* \"#utility.yul\":1885:1891   */\n      dup3\n        /* \"#utility.yul\":1874:1883   */\n      dup7\n        /* \"#utility.yul\":1870:1892   */\n      add\n        /* \"#utility.yul\":1849:1902   */\n      tag_88\n      jump\t// in\n    tag_110:\n        /* \"#utility.yul\":1839:1902   */\n      swap2\n      pop\n        /* \"#utility.yul\":1794:1912   */\n      pop\n        /* \"#utility.yul\":1265:1919   */\n      swap3\n      pop\n      swap3\n      swap1\n      pop\n      jump\t// out\n        /* \"#utility.yul\":1925:2043   */\n    tag_111:\n        /* \"#utility.yul\":2012:2036   */\n      tag_113\n        /* \"#utility.yul\":2030:2035   */\n      dup2\n        /* \"#utility.yul\":2012:2036   */\n      tag_114\n      jump\t// in\n    tag_113:\n        /* \"#utility.yul\":2007:2010   */\n      dup3\n        /* \"#utility.yul\":2000:2037   */\n      mstore\n        /* \"#utility.yul\":1925:2043   */\n      pop\n      pop\n      jump\t// out\n        /* \"#utility.yul\":2049:2413   */\n    tag_115:\n        /* \"#utility.yul\":2137:2140   */\n      0x00\n        /* \"#utility.yul\":2165:2204   */\n      tag_117\n        /* \"#utility.yul\":2198:2203   */\n      dup3\n        /* \"#utility.yul\":2165:2204   */\n      tag_118\n      jump\t// in\n    tag_117:\n        /* \"#utility.yul\":2220:2291   */\n      tag_119\n        /* \"#utility.yul\":2284:2290   */\n      dup2\n        /* \"#utility.yul\":2279:2282   */\n      dup6\n        /* \"#utility.yul\":2220:2291   */\n      tag_120\n      jump\t// in\n    tag_119:\n        /* \"#utility.yul\":2213:2291   */\n      swap4\n      pop\n        /* \"#utility.yul\":2300:2352   */\n      tag_121\n        /* \"#utility.yul\":2345:2351   */\n      dup2\n        /* \"#utility.yul\":2340:2343   */\n      dup6\n        /* \"#utility.yul\":2333:2337   */\n      0x20\n        /* \"#utility.yul\":2326:2331   */\n      dup7\n        /* \"#utility.yul\":2322:2338   */\n      add\n        /* \"#utility.yul\":2300:2352   */\n      tag_122\n      jump\t// in\n    tag_121:\n        /* \"#utility.yul\":2377:2406   */\n      tag_123\n        /* \"#utility.yul\":2399:2405   */\n      dup2\n        /* \"#utility.yul\":2377:2406   */\n      tag_124\n      jump\t// in\n    tag_123:\n        /* \"#utility.yul\":2372:2375   */\n      dup5\n        /* \"#utility.yul\":2368:2407   */\n      add\n        /* \"#utility.yul\":2361:2407   */\n      swap2\n      pop\n        /* \"#utility.yul\":2141:2413   */\n      pop\n        /* \"#utility.yul\":2049:2413   */\n      swap3\n      swap2\n      pop\n      pop\n      jump\t// out\n        /* \"#utility.yul\":2419:2796   */\n    tag_125:\n        /* \"#utility.yul\":2525:2528   */\n      0x00\n        /* \"#utility.yul\":2553:2592   */\n      tag_127\n        /* \"#utility.yul\":2586:2591   */\n      dup3\n        /* \"#utility.yul\":2553:2592   */\n      tag_118\n      jump\t// in\n    tag_127:\n        /* \"#utility.yul\":2608:2697   */\n      tag_128\n        /* \"#utility.yul\":2690:2696   */\n      dup2\n        /* \"#utility.yul\":2685:2688   */\n      dup6\n        /* \"#utility.yul\":2608:2697   */\n      tag_129\n      jump\t// in\n    tag_128:\n        /* \"#utility.yul\":2601:2697   */\n      swap4\n      pop\n        /* \"#utility.yul\":2706:2758   */\n      tag_130\n        /* \"#utility.yul\":2751:2757   */\n      dup2\n        /* \"#utility.yul\":2746:2749   */\n      dup6\n        /* \"#utility.yul\":2739:2743   */\n      0x20\n        /* \"#utility.yul\":2732:2737   */\n      dup7\n        /* \"#utility.yul\":2728:2744   */\n      add\n        /* \"#utility.yul\":2706:2758   */\n      tag_122\n      jump\t// in\n    tag_130:\n        /* \"#utility.yul\":2783:2789   */\n      dup1\n        /* \"#utility.yul\":2778:2781   */\n      dup5\n        /* \"#utility.yul\":2774:2790   */\n      add\n        /* \"#utility.yul\":2767:2790   */\n      swap2\n      pop\n        /* \"#utility.yul\":2529:2796   */\n      pop\n        /* \"#utility.yul\":2419:2796   */\n      swap3\n      swap2\n      pop\n      pop\n      jump\t// out\n        /* \"#utility.yul\":2802:3168   */\n    tag_131:\n        /* \"#utility.yul\":2944:2947   */\n      0x00\n        /* \"#utility.yul\":2965:3032   */\n      tag_133\n        /* \"#utility.yul\":3029:3031   */\n      0x0e\n        /* \"#utility.yul\":3024:3027   */\n      dup4\n        /* \"#utility.yul\":2965:3032   */\n      tag_120\n      jump\t// in\n    tag_133:\n        /* \"#utility.yul\":2958:3032   */\n      swap2\n      pop\n        /* \"#utility.yul\":3041:3134   */\n      tag_134\n        /* \"#utility.yul\":3130:3133   */\n      dup3\n        /* \"#utility.yul\":3041:3134   */\n      tag_135\n      jump\t// in\n    tag_134:\n        /* \"#utility.yul\":3159:3161   */\n      0x20\n        /* \"#utility.yul\":3154:3157   */\n      dup3\n        /* \"#utility.yul\":3150:3162   */\n      add\n        /* \"#utility.yul\":3143:3162   */\n      swap1\n      pop\n        /* \"#utility.yul\":2802:3168   */\n      swap2\n      swap1\n      pop\n      jump\t// out\n        /* \"#utility.yul\":3174:3540   */\n    tag_136:\n        /* \"#utility.yul\":3316:3319   */\n      0x00\n        /* \"#utility.yul\":3337:3404   */\n      tag_138\n        /* \"#utility.yul\":3401:3403   */\n      0x13\n        /* \"#utility.yul\":3396:3399   */\n      dup4\n        /* \"#utility.yul\":3337:3404   */\n      tag_120\n      jump\t// in\n    tag_138:\n        /* \"#utility.yul\":3330:3404   */\n      swap2\n      pop\n        /* \"#utility.yul\":3413:3506   */\n      tag_139\n        /* \"#utility.yul\":3502:3505   */\n      dup3\n        /* \"#utility.yul\":3413:3506   */\n      tag_140\n      jump\t// in\n    tag_139:\n        /* \"#utility.yul\":3531:3533   */\n      0x20\n        /* \"#utility.yul\":3526:3529   */\n      dup3\n        /* \"#utility.yul\":3522:3534   */\n      add\n        /* \"#utility.yul\":3515:3534   */\n      swap1\n      pop\n        /* \"#utility.yul\":3174:3540   */\n      swap2\n      swap1\n      pop\n      jump\t// out\n        /* \"#utility.yul\":3546:3912   */\n    tag_141:\n        /* \"#utility.yul\":3688:3691   */\n      0x00\n        /* \"#utility.yul\":3709:3776   */\n      tag_143\n        /* \"#utility.yul\":3773:3775   */\n      0x0f\n        /* \"#utility.yul\":3768:3771   */\n      dup4\n        /* \"#utility.yul\":3709:3776   */\n      tag_120\n      jump\t// in\n    tag_143:\n        /* \"#utility.yul\":3702:3776   */\n      swap2\n      pop\n        /* \"#utility.yul\":3785:3878   */\n      tag_144\n        /* \"#utility.yul\":3874:3877   */\n      dup3\n        /* \"#utility.yul\":3785:3878   */\n      tag_145\n      jump\t// in\n    tag_144:\n        /* \"#utility.yul\":3903:3905   */\n      0x20\n        /* \"#utility.yul\":3898:3901   */\n      dup3\n        /* \"#utility.yul\":3894:3906   */\n      add\n        /* \"#utility.yul\":3887:3906   */\n      swap1\n      pop\n        /* \"#utility.yul\":3546:3912   */\n      swap2\n      swap1\n      pop\n      jump\t// out\n        /* \"#utility.yul\":3918:4283   */\n    tag_146:\n        /* \"#utility.yul\":4060:4063   */\n      0x00\n        /* \"#utility.yul\":4081:4147   */\n      tag_148\n        /* \"#utility.yul\":4145:4146   */\n      0x09\n        /* \"#utility.yul\":4140:4143   */\n      dup4\n        /* \"#utility.yul\":4081:4147   */\n      tag_120\n      jump\t// in\n    tag_148:\n        /* \"#utility.yul\":4074:4147   */\n      swap2\n      pop\n        /* \"#utility.yul\":4156:4249   */\n      tag_149\n        /* \"#utility.yul\":4245:4248   */\n      dup3\n        /* \"#utility.yul\":4156:4249   */\n      tag_150\n      jump\t// in\n    tag_149:\n        /* \"#utility.yul\":4274:4276   */\n      0x20\n        /* \"#utility.yul\":4269:4272   */\n      dup3\n        /* \"#utility.yul\":4265:4277   */\n      add\n        /* \"#utility.yul\":4258:4277   */\n      swap1\n      pop\n        /* \"#utility.yul\":3918:4283   */\n      swap2\n      swap1\n      pop\n      jump\t// out\n        /* \"#utility.yul\":4289:4564   */\n    tag_40:\n        /* \"#utility.yul\":4421:4424   */\n      0x00\n        /* \"#utility.yul\":4443:4538   */\n      tag_152\n        /* \"#utility.yul\":4534:4537   */\n      dup3\n        /* \"#utility.yul\":4525:4531   */\n      dup5\n        /* \"#utility.yul\":4443:4538   */\n      tag_125\n      jump\t// in\n    tag_152:\n        /* \"#utility.yul\":4436:4538   */\n      swap2\n      pop\n        /* \"#utility.yul\":4555:4558   */\n      dup2\n        /* \"#utility.yul\":4548:4558   */\n      swap1\n      pop\n        /* \"#utility.yul\":4289:4564   */\n      swap3\n      swap2\n      pop\n      pop\n      jump\t// out\n        /* \"#utility.yul\":4570:4792   */\n    tag_23:\n        /* \"#utility.yul\":4663:4667   */\n      0x00\n        /* \"#utility.yul\":4701:4703   */\n      0x20\n        /* \"#utility.yul\":4690:4699   */\n      dup3\n        /* \"#utility.yul\":4686:4704   */\n      add\n        /* \"#utility.yul\":4678:4704   */\n      swap1\n      pop\n        /* \"#utility.yul\":4714:4785   */\n      tag_154\n        /* \"#utility.yul\":4782:4783   */\n      0x00\n        /* \"#utility.yul\":4771:4780   */\n      dup4\n        /* \"#utility.yul\":4767:4784   */\n      add\n        /* \"#utility.yul\":4758:4764   */\n      dup5\n        /* \"#utility.yul\":4714:4785   */\n      tag_111\n      jump\t// in\n    tag_154:\n        /* \"#utility.yul\":4570:4792   */\n      swap3\n      swap2\n      pop\n      pop\n      jump\t// out\n        /* \"#utility.yul\":4798:5221   */\n    tag_19:\n        /* \"#utility.yul\":4939:4943   */\n      0x00\n        /* \"#utility.yul\":4977:4979   */\n      0x40\n        /* \"#utility.yul\":4966:4975   */\n      dup3\n        /* \"#utility.yul\":4962:4980   */\n      add\n        /* \"#utility.yul\":4954:4980   */\n      swap1\n      pop\n        /* \"#utility.yul\":4990:5061   */\n      tag_156\n        /* \"#utility.yul\":5058:5059   */\n      0x00\n        /* \"#utility.yul\":5047:5056   */\n      dup4\n        /* \"#utility.yul\":5043:5060   */\n      add\n        /* \"#utility.yul\":5034:5040   */\n      dup6\n        /* \"#utility.yul\":4990:5061   */\n      tag_111\n      jump\t// in\n    tag_156:\n        /* \"#utility.yul\":5108:5117   */\n      dup2\n        /* \"#utility.yul\":5102:5106   */\n      dup2\n        /* \"#utility.yul\":5098:5118   */\n      sub\n        /* \"#utility.yul\":5093:5095   */\n      0x20\n        /* \"#utility.yul\":5082:5091   */\n      dup4\n        /* \"#utility.yul\":5078:5096   */\n      add\n        /* \"#utility.yul\":5071:5119   */\n      mstore\n        /* \"#utility.yul\":5136:5214   */\n      tag_157\n        /* \"#utility.yul\":5209:5213   */\n      dup2\n        /* \"#utility.yul\":5200:5206   */\n      dup5\n        /* \"#utility.yul\":5136:5214   */\n      tag_115\n      jump\t// in\n    tag_157:\n        /* \"#utility.yul\":5128:5214   */\n      swap1\n      pop\n        /* \"#utility.yul\":4798:5221   */\n      swap4\n      swap3\n      pop\n      pop\n      pop\n      jump\t// out\n        /* \"#utility.yul\":5227:5646   */\n    tag_53:\n        /* \"#utility.yul\":5393:5397   */\n      0x00\n        /* \"#utility.yul\":5431:5433   */\n      0x20\n        /* \"#utility.yul\":5420:5429   */\n      dup3\n        /* \"#utility.yul\":5416:5434   */\n      add\n        /* \"#utility.yul\":5408:5434   */\n      swap1\n      pop\n        /* \"#utility.yul\":5480:5489   */\n      dup2\n        /* \"#utility.yul\":5474:5478   */\n      dup2\n        /* \"#utility.yul\":5470:5490   */\n      sub\n        /* \"#utility.yul\":5466:5467   */\n      0x00\n        /* \"#utility.yul\":5455:5464   */\n      dup4\n        /* \"#utility.yul\":5451:5468   */\n      add\n        /* \"#utility.yul\":5444:5491   */\n      mstore\n        /* \"#utility.yul\":5508:5639   */\n      tag_159\n        /* \"#utility.yul\":5634:5638   */\n      dup2\n        /* \"#utility.yul\":5508:5639   */\n      tag_131\n      jump\t// in\n    tag_159:\n        /* \"#utility.yul\":5500:5639   */\n      swap1\n      pop\n        /* \"#utility.yul\":5227:5646   */\n      swap2\n      swap1\n      pop\n      jump\t// out\n        /* \"#utility.yul\":5652:6071   */\n    tag_42:\n        /* \"#utility.yul\":5818:5822   */\n      0x00\n        /* \"#utility.yul\":5856:5858   */\n      0x20\n        /* \"#utility.yul\":5845:5854   */\n      dup3\n        /* \"#utility.yul\":5841:5859   */\n      add\n        /* \"#utility.yul\":5833:5859   */\n      swap1\n      pop\n        /* \"#utility.yul\":5905:5914   */\n      dup2\n        /* \"#utility.yul\":5899:5903   */\n      dup2\n        /* \"#utility.yul\":5895:5915   */\n      sub\n        /* \"#utility.yul\":5891:5892   */\n      0x00\n        /* \"#utility.yul\":5880:5889   */\n      dup4\n        /* \"#utility.yul\":5876:5893   */\n      add\n        /* \"#utility.yul\":5869:5916   */\n      mstore\n        /* \"#utility.yul\":5933:6064   */\n      tag_161\n        /* \"#utility.yul\":6059:6063   */\n      dup2\n        /* \"#utility.yul\":5933:6064   */\n      tag_136\n      jump\t// in\n    tag_161:\n        /* \"#utility.yul\":5925:6064   */\n      swap1\n      pop\n        /* \"#utility.yul\":5652:6071   */\n      swap2\n      swap1\n      pop\n      jump\t// out\n        /* \"#utility.yul\":6077:6496   */\n    tag_38:\n        /* \"#utility.yul\":6243:6247   */\n      0x00\n        /* \"#utility.yul\":6281:6283   */\n      0x20\n        /* \"#utility.yul\":6270:6279   */\n      dup3\n        /* \"#utility.yul\":6266:6284   */\n      add\n        /* \"#utility.yul\":6258:6284   */\n      swap1\n      pop\n        /* \"#utility.yul\":6330:6339   */\n      dup2\n        /* \"#utility.yul\":6324:6328   */\n      dup2\n        /* \"#utility.yul\":6320:6340   */\n      sub\n        /* \"#utility.yul\":6316:6317   */\n      0x00\n        /* \"#utility.yul\":6305:6314   */\n      dup4\n        /* \"#utility.yul\":6301:6318   */\n      add\n        /* \"#utility.yul\":6294:6341   */\n      mstore\n        /* \"#utility.yul\":6358:6489   */\n      tag_163\n        /* \"#utility.yul\":6484:6488   */\n      dup2\n        /* \"#utility.yul\":6358:6489   */\n      tag_141\n      jump\t// in\n    tag_163:\n        /* \"#utility.yul\":6350:6489   */\n      swap1\n      pop\n        /* \"#utility.yul\":6077:6496   */\n      swap2\n      swap1\n      pop\n      jump\t// out\n        /* \"#utility.yul\":6502:6921   */\n    tag_34:\n        /* \"#utility.yul\":6668:6672   */\n      0x00\n        /* \"#utility.yul\":6706:6708   */\n      0x20\n        /* \"#utility.yul\":6695:6704   */\n      dup3\n        /* \"#utility.yul\":6691:6709   */\n      add\n        /* \"#utility.yul\":6683:6709   */\n      swap1\n      pop\n        /* \"#utility.yul\":6755:6764   */\n      dup2\n        /* \"#utility.yul\":6749:6753   */\n      dup2\n        /* \"#utility.yul\":6745:6765   */\n      sub\n        /* \"#utility.yul\":6741:6742   */\n      0x00\n        /* \"#utility.yul\":6730:6739   */\n      dup4\n        /* \"#utility.yul\":6726:6743   */\n      add\n        /* \"#utility.yul\":6719:6766   */\n      mstore\n        /* \"#utility.yul\":6783:6914   */\n      tag_165\n        /* \"#utility.yul\":6909:6913   */\n      dup2\n        /* \"#utility.yul\":6783:6914   */\n      tag_146\n      jump\t// in\n    tag_165:\n        /* \"#utility.yul\":6775:6914   */\n      swap1\n      pop\n        /* \"#utility.yul\":6502:6921   */\n      swap2\n      swap1\n      pop\n      jump\t// out\n        /* \"#utility.yul\":6927:7056   */\n    tag_82:\n        /* \"#utility.yul\":6961:6967   */\n      0x00\n        /* \"#utility.yul\":6988:7008   */\n      tag_167\n      tag_168\n      jump\t// in\n    tag_167:\n        /* \"#utility.yul\":6978:7008   */\n      swap1\n      pop\n        /* \"#utility.yul\":7017:7050   */\n      tag_169\n        /* \"#utility.yul\":7045:7049   */\n      dup3\n        /* \"#utility.yul\":7037:7043   */\n      dup3\n        /* \"#utility.yul\":7017:7050   */\n      tag_170\n      jump\t// in\n    tag_169:\n        /* \"#utility.yul\":6927:7056   */\n      swap2\n      swap1\n      pop\n      jump\t// out\n        /* \"#utility.yul\":7062:7137   */\n    tag_168:\n        /* \"#utility.yul\":7095:7101   */\n      0x00\n        /* \"#utility.yul\":7128:7130   */\n      0x40\n        /* \"#utility.yul\":7122:7131   */\n      mload\n        /* \"#utility.yul\":7112:7131   */\n      swap1\n      pop\n        /* \"#utility.yul\":7062:7137   */\n      swap1\n      jump\t// out\n        /* \"#utility.yul\":7143:7451   */\n    tag_81:\n        /* \"#utility.yul\":7205:7209   */\n      0x00\n        /* \"#utility.yul\":7295:7313   */\n      0xffffffffffffffff\n        /* \"#utility.yul\":7287:7293   */\n      dup3\n        /* \"#utility.yul\":7284:7314   */\n      gt\n        /* \"#utility.yul\":7281:7337   */\n      iszero\n      tag_173\n      jumpi\n        /* \"#utility.yul\":7317:7335   */\n      tag_174\n      tag_175\n      jump\t// in\n    tag_174:\n        /* \"#utility.yul\":7281:7337   */\n    tag_173:\n        /* \"#utility.yul\":7355:7384   */\n      tag_176\n        /* \"#utility.yul\":7377:7383   */\n      dup3\n        /* \"#utility.yul\":7355:7384   */\n      tag_124\n      jump\t// in\n    tag_176:\n        /* \"#utility.yul\":7347:7384   */\n      swap1\n      pop\n        /* \"#utility.yul\":7439:7443   */\n      0x20\n        /* \"#utility.yul\":7433:7437   */\n      dup2\n        /* \"#utility.yul\":7429:7444   */\n      add\n        /* \"#utility.yul\":7421:7444   */\n      swap1\n      pop\n        /* \"#utility.yul\":7143:7451   */\n      swap2\n      swap1\n      pop\n      jump\t// out\n        /* \"#utility.yul\":7457:7556   */\n    tag_118:\n        /* \"#utility.yul\":7509:7515   */\n      0x00\n        /* \"#utility.yul\":7543:7548   */\n      dup2\n        /* \"#utility.yul\":7537:7549   */\n      mload\n        /* \"#utility.yul\":7527:7549   */\n      swap1\n      pop\n        /* \"#utility.yul\":7457:7556   */\n      swap2\n      swap1\n      pop\n      jump\t// out\n        /* \"#utility.yul\":7562:7731   */\n    tag_120:\n        /* \"#utility.yul\":7646:7657   */\n      0x00\n        /* \"#utility.yul\":7680:7686   */\n      dup3\n        /* \"#utility.yul\":7675:7678   */\n      dup3\n        /* \"#utility.yul\":7668:7687   */\n      mstore\n        /* \"#utility.yul\":7720:7724   */\n      0x20\n        /* \"#utility.yul\":7715:7718   */\n      dup3\n        /* \"#utility.yul\":7711:7725   */\n      add\n        /* \"#utility.yul\":7696:7725   */\n      swap1\n      pop\n        /* \"#utility.yul\":7562:7731   */\n      swap3\n      swap2\n      pop\n      pop\n      jump\t// out\n        /* \"#utility.yul\":7737:7885   */\n    tag_129:\n        /* \"#utility.yul\":7839:7850   */\n      0x00\n        /* \"#utility.yul\":7876:7879   */\n      dup2\n        /* \"#utility.yul\":7861:7879   */\n      swap1\n      pop\n        /* \"#utility.yul\":7737:7885   */\n      swap3\n      swap2\n      pop\n      pop\n      jump\t// out\n        /* \"#utility.yul\":7891:7987   */\n    tag_114:\n        /* \"#utility.yul\":7928:7935   */\n      0x00\n        /* \"#utility.yul\":7957:7981   */\n      tag_181\n        /* \"#utility.yul\":7975:7980   */\n      dup3\n        /* \"#utility.yul\":7957:7981   */\n      tag_182\n      jump\t// in\n    tag_181:\n        /* \"#utility.yul\":7946:7981   */\n      swap1\n      pop\n        /* \"#utility.yul\":7891:7987   */\n      swap2\n      swap1\n      pop\n      jump\t// out\n        /* \"#utility.yul\":7993:8119   */\n    tag_182:\n        /* \"#utility.yul\":8030:8037   */\n      0x00\n        /* \"#utility.yul\":8070:8112   */\n      0xffffffffffffffffffffffffffffffffffffffff\n        /* \"#utility.yul\":8063:8068   */\n      dup3\n        /* \"#utility.yul\":8059:8113   */\n      and\n        /* \"#utility.yul\":8048:8113   */\n      swap1\n      pop\n        /* \"#utility.yul\":7993:8119   */\n      swap2\n      swap1\n      pop\n      jump\t// out\n        /* \"#utility.yul\":8125:8279   */\n    tag_87:\n        /* \"#utility.yul\":8209:8215   */\n      dup3\n        /* \"#utility.yul\":8204:8207   */\n      dup2\n        /* \"#utility.yul\":8199:8202   */\n      dup4\n        /* \"#utility.yul\":8186:8216   */\n      calldatacopy\n        /* \"#utility.yul\":8271:8272   */\n      0x00\n        /* \"#utility.yul\":8262:8268   */\n      dup4\n        /* \"#utility.yul\":8257:8260   */\n      dup4\n        /* \"#utility.yul\":8253:8269   */\n      add\n        /* \"#utility.yul\":8246:8273   */\n      mstore\n        /* \"#utility.yul\":8125:8279   */\n      pop\n      pop\n      pop\n      jump\t// out\n        /* \"#utility.yul\":8285:8592   */\n    tag_122:\n        /* \"#utility.yul\":8353:8354   */\n      0x00\n        /* \"#utility.yul\":8363:8476   */\n    tag_186:\n        /* \"#utility.yul\":8377:8383   */\n      dup4\n        /* \"#utility.yul\":8374:8375   */\n      dup2\n        /* \"#utility.yul\":8371:8384   */\n      lt\n        /* \"#utility.yul\":8363:8476   */\n      iszero\n      tag_188\n      jumpi\n        /* \"#utility.yul\":8462:8463   */\n      dup1\n        /* \"#utility.yul\":8457:8460   */\n      dup3\n        /* \"#utility.yul\":8453:8464   */\n      add\n        /* \"#utility.yul\":8447:8465   */\n      mload\n        /* \"#utility.yul\":8443:8444   */\n      dup2\n        /* \"#utility.yul\":8438:8441   */\n      dup5\n        /* \"#utility.yul\":8434:8445   */\n      add\n        /* \"#utility.yul\":8427:8466   */\n      mstore\n        /* \"#utility.yul\":8399:8401   */\n      0x20\n        /* \"#utility.yul\":8396:8397   */\n      dup2\n        /* \"#utility.yul\":8392:8402   */\n      add\n        /* \"#utility.yul\":8387:8402   */\n      swap1\n      pop\n        /* \"#utility.yul\":8363:8476   */\n      jump(tag_186)\n    tag_188:\n        /* \"#utility.yul\":8494:8500   */\n      dup4\n        /* \"#utility.yul\":8491:8492   */\n      dup2\n        /* \"#utility.yul\":8488:8501   */\n      gt\n        /* \"#utility.yul\":8485:8586   */\n      iszero\n      tag_189\n      jumpi\n        /* \"#utility.yul\":8574:8575   */\n      0x00\n        /* \"#utility.yul\":8565:8571   */\n      dup5\n        /* \"#utility.yul\":8560:8563   */\n      dup5\n        /* \"#utility.yul\":8556:8572   */\n      add\n        /* \"#utility.yul\":8549:8576   */\n      mstore\n        /* \"#utility.yul\":8485:8586   */\n    tag_189:\n        /* \"#utility.yul\":8334:8592   */\n      pop\n        /* \"#utility.yul\":8285:8592   */\n      pop\n      pop\n      pop\n      jump\t// out\n        /* \"#utility.yul\":8598:8918   */\n    tag_55:\n        /* \"#utility.yul\":8642:8648   */\n      0x00\n        /* \"#utility.yul\":8679:8680   */\n      0x02\n        /* \"#utility.yul\":8673:8677   */\n      dup3\n        /* \"#utility.yul\":8669:8681   */\n      div\n        /* \"#utility.yul\":8659:8681   */\n      swap1\n      pop\n        /* \"#utility.yul\":8726:8727   */\n      0x01\n        /* \"#utility.yul\":8720:8724   */\n      dup3\n        /* \"#utility.yul\":8716:8728   */\n      and\n        /* \"#utility.yul\":8747:8765   */\n      dup1\n        /* \"#utility.yul\":8737:8818   */\n      tag_191\n      jumpi\n        /* \"#utility.yul\":8803:8807   */\n      0x7f\n        /* \"#utility.yul\":8795:8801   */\n      dup3\n        /* \"#utility.yul\":8791:8808   */\n      and\n        /* \"#utility.yul\":8781:8808   */\n      swap2\n      pop\n        /* \"#utility.yul\":8737:8818   */\n    tag_191:\n        /* \"#utility.yul\":8865:8867   */\n      0x20\n        /* \"#utility.yul\":8857:8863   */\n      dup3\n        /* \"#utility.yul\":8854:8868   */\n      lt\n        /* \"#utility.yul\":8834:8852   */\n      dup2\n        /* \"#utility.yul\":8831:8869   */\n      eq\n        /* \"#utility.yul\":8828:8912   */\n      iszero\n      tag_192\n      jumpi\n        /* \"#utility.yul\":8884:8902   */\n      tag_193\n      tag_194\n      jump\t// in\n    tag_193:\n        /* \"#utility.yul\":8828:8912   */\n    tag_192:\n        /* \"#utility.yul\":8649:8918   */\n      pop\n        /* \"#utility.yul\":8598:8918   */\n      swap2\n      swap1\n      pop\n      jump\t// out\n        /* \"#utility.yul\":8924:9205   */\n    tag_170:\n        /* \"#utility.yul\":9007:9034   */\n      tag_196\n        /* \"#utility.yul\":9029:9033   */\n      dup3\n        /* \"#utility.yul\":9007:9034   */\n      tag_124\n      jump\t// in\n    tag_196:\n        /* \"#utility.yul\":8999:9005   */\n      dup2\n        /* \"#utility.yul\":8995:9035   */\n      add\n        /* \"#utility.yul\":9137:9143   */\n      dup2\n        /* \"#utility.yul\":9125:9135   */\n      dup2\n        /* \"#utility.yul\":9122:9144   */\n      lt\n        /* \"#utility.yul\":9101:9119   */\n      0xffffffffffffffff\n        /* \"#utility.yul\":9089:9099   */\n      dup3\n        /* \"#utility.yul\":9086:9120   */\n      gt\n        /* \"#utility.yul\":9083:9145   */\n      or\n        /* \"#utility.yul\":9080:9168   */\n      iszero\n      tag_197\n      jumpi\n        /* \"#utility.yul\":9148:9166   */\n      tag_198\n      tag_175\n      jump\t// in\n    tag_198:\n        /* \"#utility.yul\":9080:9168   */\n    tag_197:\n        /* \"#utility.yul\":9188:9198   */\n      dup1\n        /* \"#utility.yul\":9184:9186   */\n      0x40\n        /* \"#utility.yul\":9177:9199   */\n      mstore\n        /* \"#utility.yul\":8967:9205   */\n      pop\n        /* \"#utility.yul\":8924:9205   */\n      pop\n      pop\n      jump\t// out\n        /* \"#utility.yul\":9211:9391   */\n    tag_194:\n        /* \"#utility.yul\":9259:9336   */\n      0x4e487b7100000000000000000000000000000000000000000000000000000000\n        /* \"#utility.yul\":9256:9257   */\n      0x00\n        /* \"#utility.yul\":9249:9337   */\n      mstore\n        /* \"#utility.yul\":9356:9360   */\n      0x22\n        /* \"#utility.yul\":9353:9354   */\n      0x04\n        /* \"#utility.yul\":9346:9361   */\n      mstore\n        /* \"#utility.yul\":9380:9384   */\n      0x24\n        /* \"#utility.yul\":9377:9378   */\n      0x00\n        /* \"#utility.yul\":9370:9385   */\n      revert\n        /* \"#utility.yul\":9397:9577   */\n    tag_175:\n        /* \"#utility.yul\":9445:9522   */\n      0x4e487b7100000000000000000000000000000000000000000000000000000000\n        /* \"#utility.yul\":9442:9443   */\n      0x00\n        /* \"#utility.yul\":9435:9523   */\n      mstore\n        /* \"#utility.yul\":9542:9546   */\n      0x41\n        /* \"#utility.yul\":9539:9540   */\n      0x04\n        /* \"#utility.yul\":9532:9547   */\n      mstore\n        /* \"#utility.yul\":9566:9570   */\n      0x24\n        /* \"#utility.yul\":9563:9564   */\n      0x00\n        /* \"#utility.yul\":9556:9571   */\n      revert\n        /* \"#utility.yul\":9583:9700   */\n    tag_96:\n        /* \"#utility.yul\":9692:9693   */\n      0x00\n        /* \"#utility.yul\":9689:9690   */\n      dup1\n        /* \"#utility.yul\":9682:9694   */\n      revert\n        /* \"#utility.yul\":9706:9823   */\n    tag_85:\n        /* \"#utility.yul\":9815:9816   */\n      0x00\n        /* \"#utility.yul\":9812:9813   */\n      dup1\n        /* \"#utility.yul\":9805:9817   */\n      revert\n        /* \"#utility.yul\":9829:9946   */\n    tag_108:\n        /* \"#utility.yul\":9938:9939   */\n      0x00\n        /* \"#utility.yul\":9935:9936   */\n      dup1\n        /* \"#utility.yul\":9928:9940   */\n      revert\n        /* \"#utility.yul\":9952:10069   */\n    tag_101:\n        /* \"#utility.yul\":10061:10062   */\n      0x00\n        /* \"#utility.yul\":10058:10059   */\n      dup1\n        /* \"#utility.yul\":10051:10063   */\n      revert\n        /* \"#utility.yul\":10075:10177   */\n    tag_124:\n        /* \"#utility.yul\":10116:10122   */\n      0x00\n        /* \"#utility.yul\":10167:10169   */\n      0x1f\n        /* \"#utility.yul\":10163:10170   */\n      not\n        /* \"#utility.yul\":10158:10160   */\n      0x1f\n        /* \"#utility.yul\":10151:10156   */\n      dup4\n        /* \"#utility.yul\":10147:10161   */\n      add\n        /* \"#utility.yul\":10143:10171   */\n      and\n        /* \"#utility.yul\":10133:10171   */\n      swap1\n      pop\n        /* \"#utility.yul\":10075:10177   */\n      swap2\n      swap1\n      pop\n      jump\t// out\n        /* \"#utility.yul\":10183:10347   */\n    tag_135:\n        /* \"#utility.yul\":10323:10339   */\n      0x456e6a6f7920596f757220454e53000000000000000000000000000000000000\n        /* \"#utility.yul\":10319:10320   */\n      0x00\n        /* \"#utility.yul\":10311:10317   */\n      dup3\n        /* \"#utility.yul\":10307:10321   */\n      add\n        /* \"#utility.yul\":10300:10340   */\n      mstore\n        /* \"#utility.yul\":10183:10347   */\n      pop\n      jump\t// out\n        /* \"#utility.yul\":10353:10522   */\n    tag_140:\n        /* \"#utility.yul\":10493:10514   */\n      0x54414b4520524553504f4e534942494c49545900000000000000000000000000\n        /* \"#utility.yul\":10489:10490   */\n      0x00\n        /* \"#utility.yul\":10481:10487   */\n      dup3\n        /* \"#utility.yul\":10477:10491   */\n      add\n        /* \"#utility.yul\":10470:10515   */\n      mstore\n        /* \"#utility.yul\":10353:10522   */\n      pop\n      jump\t// out\n        /* \"#utility.yul\":10528:10693   */\n    tag_145:\n        /* \"#utility.yul\":10668:10685   */\n      0x494e56414c494420414444524553530000000000000000000000000000000000\n        /* \"#utility.yul\":10664:10665   */\n      0x00\n        /* \"#utility.yul\":10656:10662   */\n      dup3\n        /* \"#utility.yul\":10652:10666   */\n      add\n        /* \"#utility.yul\":10645:10686   */\n      mstore\n        /* \"#utility.yul\":10528:10693   */\n      pop\n      jump\t// out\n        /* \"#utility.yul\":10699:10858   */\n    tag_150:\n        /* \"#utility.yul\":10839:10850   */\n      0x4e4f54204f574e45520000000000000000000000000000000000000000000000\n        /* \"#utility.yul\":10835:10836   */\n      0x00\n        /* \"#utility.yul\":10827:10833   */\n      dup3\n        /* \"#utility.yul\":10823:10837   */\n      add\n        /* \"#utility.yul\":10816:10851   */\n      mstore\n        /* \"#utility.yul\":10699:10858   */\n      pop\n      jump\t// out\n        /* \"#utility.yul\":10864:10986   */\n    tag_91:\n        /* \"#utility.yul\":10937:10961   */\n      tag_211\n        /* \"#utility.yul\":10955:10960   */\n      dup2\n        /* \"#utility.yul\":10937:10961   */\n      tag_114\n      jump\t// in\n    tag_211:\n        /* \"#utility.yul\":10930:10935   */\n      dup2\n        /* \"#utility.yul\":10927:10962   */\n      eq\n        /* \"#utility.yul\":10917:10980   */\n      tag_212\n      jumpi\n        /* \"#utility.yul\":10976:10977   */\n      0x00\n        /* \"#utility.yul\":10973:10974   */\n      dup1\n        /* \"#utility.yul\":10966:10978   */\n      revert\n        /* \"#utility.yul\":10917:10980   */\n    tag_212:\n        /* \"#utility.yul\":10864:10986   */\n      pop\n      jump\t// out\n\n    auxdata: 0xa264697066735822122028e4e1e23b3042ceed01af87efd448664b562bcf666c162d657bcbad49e1d82c64736f6c63430008070033\n}\n",
				"bytecode": {
					"linkReferences": {},
					"object": "608060405234801561001057600080fd5b5033600360006101000a81548173ffffffffffffffffffffffffffffffffffffffff021916908373ffffffffffffffffffffffffffffffffffffffff160217905550610cd2806100616000396000f3fe608060405234801561001057600080fd5b50600436106100625760003560e01c8063092b25e91461006757806315f0e1cc146100835780631aa3a0081461009f5780638da5cb5b146100be57806393b45253146100dc578063b39cdb261461010d575b600080fd5b610081600480360381019061007c91906107c7565b610117565b005b61009d600480360381019061009891906107c7565b6102be565b005b6100a76104c4565b6040516100b592919061095a565b60405180910390f35b6100c661057e565b6040516100d3919061093f565b60405180910390f35b6100f660048036038101906100f1919061079a565b6105a4565b60405161010492919061095a565b60405180910390f35b610115610670565b005b600360009054906101000a900473ffffffffffffffffffffffffffffffffffffffff1673ffffffffffffffffffffffffffffffffffffffff163373ffffffffffffffffffffffffffffffffffffffff16146101a7576040517f08c379a000000000000000000000000000000000000000000000000000000000815260040161019e906109ea565b60405180910390fd5b600073ffffffffffffffffffffffffffffffffffffffff168173ffffffffffffffffffffffffffffffffffffffff161415610217576040517f08c379a000000000000000000000000000000000000000000000000000000000815260040161020e906109ca565b60405180910390fd5b80600360006101000a81548173ffffffffffffffffffffffffffffffffffffffff021916908373ffffffffffffffffffffffffffffffffffffffff1602179055508073ffffffffffffffffffffffffffffffffffffffff168260405161027d9190610928565b60405180910390207fce432c471917ea9ea41540fa67e8844ab3621c39db59bd2b397640977dfd84826040516102b2906109aa565b60405180910390a35050565b600360009054906101000a900473ffffffffffffffffffffffffffffffffffffffff1673ffffffffffffffffffffffffffffffffffffffff163373ffffffffffffffffffffffffffffffffffffffff161461034e576040517f08c379a0000000000000000000000000000000000000000000000000000000008152600401610345906109ea565b60405180910390fd5b600073ffffffffffffffffffffffffffffffffffffffff168173ffffffffffffffffffffffffffffffffffffffff1614156103be576040517f08c379a00000000000000000000000000000000000000000000000000000000081526004016103b5906109ca565b60405180910390fd5b6000600260008373ffffffffffffffffffffffffffffffffffffffff1673ffffffffffffffffffffffffffffffffffffffff1681526020019081526020016000209050818160000160006101000a81548173ffffffffffffffffffffffffffffffffffffffff021916908373ffffffffffffffffffffffffffffffffffffffff1602179055508281600101908051906020019061045c929190610672565b508173ffffffffffffffffffffffffffffffffffffffff16836040516104829190610928565b60405180910390207fce432c471917ea9ea41540fa67e8844ab3621c39db59bd2b397640977dfd84826040516104b79061098a565b60405180910390a3505050565b60008060000160009054906101000a900473ffffffffffffffffffffffffffffffffffffffff16908060010180546104fb90610afb565b80601f016020809104026020016040519081016040528092919081815260200182805461052790610afb565b80156105745780601f1061054957610100808354040283529160200191610574565b820191906000526020600020905b81548152906001019060200180831161055757829003601f168201915b5050505050905082565b600360009054906101000a900473ffffffffffffffffffffffffffffffffffffffff1681565b60026020528060005260406000206000915090508060000160009054906101000a900473ffffffffffffffffffffffffffffffffffffffff16908060010180546105ed90610afb565b80601f016020809104026020016040519081016040528092919081815260200182805461061990610afb565b80156106665780601f1061063b57610100808354040283529160200191610666565b820191906000526020600020905b81548152906001019060200180831161064957829003601f168201915b5050505050905082565b565b82805461067e90610afb565b90600052602060002090601f0160209004810192826106a057600085556106e7565b82601f106106b957805160ff19168380011785556106e7565b828001600101855582156106e7579182015b828111156106e65782518255916020019190600101906106cb565b5b5090506106f491906106f8565b5090565b5b808211156107115760008160009055506001016106f9565b5090565b600061072861072384610a2f565b610a0a565b90508281526020810184848401111561074457610743610bc1565b5b61074f848285610ab9565b509392505050565b60008135905061076681610c85565b92915050565b600082601f83011261078157610780610bbc565b5b8135610791848260208601610715565b91505092915050565b6000602082840312156107b0576107af610bcb565b5b60006107be84828501610757565b91505092915050565b600080604083850312156107de576107dd610bcb565b5b600083013567ffffffffffffffff8111156107fc576107fb610bc6565b5b6108088582860161076c565b925050602061081985828601610757565b9150509250929050565b61082c81610a87565b82525050565b600061083d82610a60565b6108478185610a6b565b9350610857818560208601610ac8565b61086081610bd0565b840191505092915050565b600061087682610a60565b6108808185610a7c565b9350610890818560208601610ac8565b80840191505092915050565b60006108a9600e83610a6b565b91506108b482610be1565b602082019050919050565b60006108cc601383610a6b565b91506108d782610c0a565b602082019050919050565b60006108ef600f83610a6b565b91506108fa82610c33565b602082019050919050565b6000610912600983610a6b565b915061091d82610c5c565b602082019050919050565b6000610934828461086b565b915081905092915050565b60006020820190506109546000830184610823565b92915050565b600060408201905061096f6000830185610823565b81810360208301526109818184610832565b90509392505050565b600060208201905081810360008301526109a38161089c565b9050919050565b600060208201905081810360008301526109c3816108bf565b9050919050565b600060208201905081810360008301526109e3816108e2565b9050919050565b60006020820190508181036000830152610a0381610905565b9050919050565b6000610a14610a25565b9050610a208282610b2d565b919050565b6000604051905090565b600067ffffffffffffffff821115610a4a57610a49610b8d565b5b610a5382610bd0565b9050602081019050919050565b600081519050919050565b600082825260208201905092915050565b600081905092915050565b6000610a9282610a99565b9050919050565b600073ffffffffffffffffffffffffffffffffffffffff82169050919050565b82818337600083830152505050565b60005b83811015610ae6578082015181840152602081019050610acb565b83811115610af5576000848401525b50505050565b60006002820490506001821680610b1357607f821691505b60208210811415610b2757610b26610b5e565b5b50919050565b610b3682610bd0565b810181811067ffffffffffffffff82111715610b5557610b54610b8d565b5b80604052505050565b7f4e487b7100000000000000000000000000000000000000000000000000000000600052602260045260246000fd5b7f4e487b7100000000000000000000000000000000000000000000000000000000600052604160045260246000fd5b600080fd5b600080fd5b600080fd5b600080fd5b6000601f19601f8301169050919050565b7f456e6a6f7920596f757220454e53000000000000000000000000000000000000600082015250565b7f54414b4520524553504f4e534942494c49545900000000000000000000000000600082015250565b7f494e56414c494420414444524553530000000000000000000000000000000000600082015250565b7f4e4f54204f574e45520000000000000000000000000000000000000000000000600082015250565b610c8e81610a87565b8114610c9957600080fd5b5056fea264697066735822122028e4e1e23b3042ceed01af87efd448664b562bcf666c162d657bcbad49e1d82c64736f6c63430008070033",
					"opcodes": "PUSH1 0x80 PUSH1 0x40 MSTORE CALLVALUE DUP1 ISZERO PUSH2 0x10 JUMPI PUSH1 0x0 DUP1 REVERT JUMPDEST POP CALLER PUSH1 0x3 PUSH1 0x0 PUSH2 0x100 EXP DUP2 SLOAD DUP2 PUSH20 0xFFFFFFFFFFFFFFFFFFFFFFFFFFFFFFFFFFFFFFFF MUL NOT AND SWAP1 DUP4 PUSH20 0xFFFFFFFFFFFFFFFFFFFFFFFFFFFFFFFFFFFFFFFF AND MUL OR SWAP1 SSTORE POP PUSH2 0xCD2 DUP1 PUSH2 0x61 PUSH1 0x0 CODECOPY PUSH1 0x0 RETURN INVALID PUSH1 0x80 PUSH1 0x40 MSTORE CALLVALUE DUP1 ISZERO PUSH2 0x10 JUMPI PUSH1 0x0 DUP1 REVERT JUMPDEST POP PUSH1 0x4 CALLDATASIZE LT PUSH2 0x62 JUMPI PUSH1 0x0 CALLDATALOAD PUSH1 0xE0 SHR DUP1 PUSH4 0x92B25E9 EQ PUSH2 0x67 JUMPI DUP1 PUSH4 0x15F0E1CC EQ PUSH2 0x83 JUMPI DUP1 PUSH4 0x1AA3A008 EQ PUSH2 0x9F JUMPI DUP1 PUSH4 0x8DA5CB5B EQ PUSH2 0xBE JUMPI DUP1 PUSH4 0x93B45253 EQ PUSH2 0xDC JUMPI DUP1 PUSH4 0xB39CDB26 EQ PUSH2 0x10D JUMPI JUMPDEST PUSH1 0x0 DUP1 REVERT JUMPDEST PUSH2 0x81 PUSH1 0x4 DUP1 CALLDATASIZE SUB DUP2 ADD SWAP1 PUSH2 0x7C SWAP2 SWAP1 PUSH2 0x7C7 JUMP JUMPDEST PUSH2 0x117 JUMP JUMPDEST STOP JUMPDEST PUSH2 0x9D PUSH1 0x4 DUP1 CALLDATASIZE SUB DUP2 ADD SWAP1 PUSH2 0x98 SWAP2 SWAP1 PUSH2 0x7C7 JUMP JUMPDEST PUSH2 0x2BE JUMP JUMPDEST STOP JUMPDEST PUSH2 0xA7 PUSH2 0x4C4 JUMP JUMPDEST PUSH1 0x40 MLOAD PUSH2 0xB5 SWAP3 SWAP2 SWAP1 PUSH2 0x95A JUMP JUMPDEST PUSH1 0x40 MLOAD DUP1 SWAP2 SUB SWAP1 RETURN JUMPDEST PUSH2 0xC6 PUSH2 0x57E JUMP JUMPDEST PUSH1 0x40 MLOAD PUSH2 0xD3 SWAP2 SWAP1 PUSH2 0x93F JUMP JUMPDEST PUSH1 0x40 MLOAD DUP1 SWAP2 SUB SWAP1 RETURN JUMPDEST PUSH2 0xF6 PUSH1 0x4 DUP1 CALLDATASIZE SUB DUP2 ADD SWAP1 PUSH2 0xF1 SWAP2 SWAP1 PUSH2 0x79A JUMP JUMPDEST PUSH2 0x5A4 JUMP JUMPDEST PUSH1 0x40 MLOAD PUSH2 0x104 SWAP3 SWAP2 SWAP1 PUSH2 0x95A JUMP JUMPDEST PUSH1 0x40 MLOAD DUP1 SWAP2 SUB SWAP1 RETURN JUMPDEST PUSH2 0x115 PUSH2 0x670 JUMP JUMPDEST STOP JUMPDEST PUSH1 0x3 PUSH1 0x0 SWAP1 SLOAD SWAP1 PUSH2 0x100 EXP SWAP1 DIV PUSH20 0xFFFFFFFFFFFFFFFFFFFFFFFFFFFFFFFFFFFFFFFF AND PUSH20 0xFFFFFFFFFFFFFFFFFFFFFFFFFFFFFFFFFFFFFFFF AND CALLER PUSH20 0xFFFFFFFFFFFFFFFFFFFFFFFFFFFFFFFFFFFFFFFF AND EQ PUSH2 0x1A7 JUMPI PUSH1 0x40 MLOAD PUSH32 0x8C379A000000000000000000000000000000000000000000000000000000000 DUP2 MSTORE PUSH1 0x4 ADD PUSH2 0x19E SWAP1 PUSH2 0x9EA JUMP JUMPDEST PUSH1 0x40 MLOAD DUP1 SWAP2 SUB SWAP1 REVERT JUMPDEST PUSH1 0x0 PUSH20 0xFFFFFFFFFFFFFFFFFFFFFFFFFFFFFFFFFFFFFFFF AND DUP2 PUSH20 0xFFFFFFFFFFFFFFFFFFFFFFFFFFFFFFFFFFFFFFFF AND EQ ISZERO PUSH2 0x217 JUMPI PUSH1 0x40 MLOAD PUSH32 0x8C379A000000000000000000000000000000000000000000000000000000000 DUP2 MSTORE PUSH1 0x4 ADD PUSH2 0x20E SWAP1 PUSH2 0x9CA JUMP JUMPDEST PUSH1 0x40 MLOAD DUP1 SWAP2 SUB SWAP1 REVERT JUMPDEST DUP1 PUSH1 0x3 PUSH1 0x0 PUSH2 0x100 EXP DUP2 SLOAD DUP2 PUSH20 0xFFFFFFFFFFFFFFFFFFFFFFFFFFFFFFFFFFFFFFFF MUL NOT AND SWAP1 DUP4 PUSH20 0xFFFFFFFFFFFFFFFFFFFFFFFFFFFFFFFFFFFFFFFF AND MUL OR SWAP1 SSTORE POP DUP1 PUSH20 0xFFFFFFFFFFFFFFFFFFFFFFFFFFFFFFFFFFFFFFFF AND DUP3 PUSH1 0x40 MLOAD PUSH2 0x27D SWAP2 SWAP1 PUSH2 0x928 JUMP JUMPDEST PUSH1 0x40 MLOAD DUP1 SWAP2 SUB SWAP1 KECCAK256 PUSH32 0xCE432C471917EA9EA41540FA67E8844AB3621C39DB59BD2B397640977DFD8482 PUSH1 0x40 MLOAD PUSH2 0x2B2 SWAP1 PUSH2 0x9AA JUMP JUMPDEST PUSH1 0x40 MLOAD DUP1 SWAP2 SUB SWAP1 LOG3 POP POP JUMP JUMPDEST PUSH1 0x3 PUSH1 0x0 SWAP1 SLOAD SWAP1 PUSH2 0x100 EXP SWAP1 DIV PUSH20 0xFFFFFFFFFFFFFFFFFFFFFFFFFFFFFFFFFFFFFFFF AND PUSH20 0xFFFFFFFFFFFFFFFFFFFFFFFFFFFFFFFFFFFFFFFF AND CALLER PUSH20 0xFFFFFFFFFFFFFFFFFFFFFFFFFFFFFFFFFFFFFFFF AND EQ PUSH2 0x34E JUMPI PUSH1 0x40 MLOAD PUSH32 0x8C379A000000000000000000000000000000000000000000000000000000000 DUP2 MSTORE PUSH1 0x4 ADD PUSH2 0x345 SWAP1 PUSH2 0x9EA JUMP JUMPDEST PUSH1 0x40 MLOAD DUP1 SWAP2 SUB SWAP1 REVERT JUMPDEST PUSH1 0x0 PUSH20 0xFFFFFFFFFFFFFFFFFFFFFFFFFFFFFFFFFFFFFFFF AND DUP2 PUSH20 0xFFFFFFFFFFFFFFFFFFFFFFFFFFFFFFFFFFFFFFFF AND EQ ISZERO PUSH2 0x3BE JUMPI PUSH1 0x40 MLOAD PUSH32 0x8C379A000000000000000000000000000000000000000000000000000000000 DUP2 MSTORE PUSH1 0x4 ADD PUSH2 0x3B5 SWAP1 PUSH2 0x9CA JUMP JUMPDEST PUSH1 0x40 MLOAD DUP1 SWAP2 SUB SWAP1 REVERT JUMPDEST PUSH1 0x0 PUSH1 0x2 PUSH1 0x0 DUP4 PUSH20 0xFFFFFFFFFFFFFFFFFFFFFFFFFFFFFFFFFFFFFFFF AND PUSH20 0xFFFFFFFFFFFFFFFFFFFFFFFFFFFFFFFFFFFFFFFF AND DUP2 MSTORE PUSH1 0x20 ADD SWAP1 DUP2 MSTORE PUSH1 0x20 ADD PUSH1 0x0 KECCAK256 SWAP1 POP DUP2 DUP2 PUSH1 0x0 ADD PUSH1 0x0 PUSH2 0x100 EXP DUP2 SLOAD DUP2 PUSH20 0xFFFFFFFFFFFFFFFFFFFFFFFFFFFFFFFFFFFFFFFF MUL NOT AND SWAP1 DUP4 PUSH20 0xFFFFFFFFFFFFFFFFFFFFFFFFFFFFFFFFFFFFFFFF AND MUL OR SWAP1 SSTORE POP DUP3 DUP2 PUSH1 0x1 ADD SWAP1 DUP1 MLOAD SWAP1 PUSH1 0x20 ADD SWAP1 PUSH2 0x45C SWAP3 SWAP2 SWAP1 PUSH2 0x672 JUMP JUMPDEST POP DUP2 PUSH20 0xFFFFFFFFFFFFFFFFFFFFFFFFFFFFFFFFFFFFFFFF AND DUP4 PUSH1 0x40 MLOAD PUSH2 0x482 SWAP2 SWAP1 PUSH2 0x928 JUMP JUMPDEST PUSH1 0x40 MLOAD DUP1 SWAP2 SUB SWAP1 KECCAK256 PUSH32 0xCE432C471917EA9EA41540FA67E8844AB3621C39DB59BD2B397640977DFD8482 PUSH1 0x40 MLOAD PUSH2 0x4B7 SWAP1 PUSH2 0x98A JUMP JUMPDEST PUSH1 0x40 MLOAD DUP1 SWAP2 SUB SWAP1 LOG3 POP POP POP JUMP JUMPDEST PUSH1 0x0 DUP1 PUSH1 0x0 ADD PUSH1 0x0 SWAP1 SLOAD SWAP1 PUSH2 0x100 EXP SWAP1 DIV PUSH20 0xFFFFFFFFFFFFFFFFFFFFFFFFFFFFFFFFFFFFFFFF AND SWAP1 DUP1 PUSH1 0x1 ADD DUP1 SLOAD PUSH2 0x4FB SWAP1 PUSH2 0xAFB JUMP JUMPDEST DUP1 PUSH1 0x1F ADD PUSH1 0x20 DUP1 SWAP2 DIV MUL PUSH1 0x20 ADD PUSH1 0x40 MLOAD SWAP1 DUP2 ADD PUSH1 0x40 MSTORE DUP1 SWAP3 SWAP2 SWAP1 DUP2 DUP2 MSTORE PUSH1 0x20 ADD DUP3 DUP1 SLOAD PUSH2 0x527 SWAP1 PUSH2 0xAFB JUMP JUMPDEST DUP1 ISZERO PUSH2 0x574 JUMPI DUP1 PUSH1 0x1F LT PUSH2 0x549 JUMPI PUSH2 0x100 DUP1 DUP4 SLOAD DIV MUL DUP4 MSTORE SWAP2 PUSH1 0x20 ADD SWAP2 PUSH2 0x574 JUMP JUMPDEST DUP3 ADD SWAP2 SWAP1 PUSH1 0x0 MSTORE PUSH1 0x20 PUSH1 0x0 KECCAK256 SWAP1 JUMPDEST DUP2 SLOAD DUP2 MSTORE SWAP1 PUSH1 0x1 ADD SWAP1 PUSH1 0x20 ADD DUP1 DUP4 GT PUSH2 0x557 JUMPI DUP3 SWAP1 SUB PUSH1 0x1F AND DUP3 ADD SWAP2 JUMPDEST POP POP POP POP POP SWAP1 POP DUP3 JUMP JUMPDEST PUSH1 0x3 PUSH1 0x0 SWAP1 SLOAD SWAP1 PUSH2 0x100 EXP SWAP1 DIV PUSH20 0xFFFFFFFFFFFFFFFFFFFFFFFFFFFFFFFFFFFFFFFF AND DUP2 JUMP JUMPDEST PUSH1 0x2 PUSH1 0x20 MSTORE DUP1 PUSH1 0x0 MSTORE PUSH1 0x40 PUSH1 0x0 KECCAK256 PUSH1 0x0 SWAP2 POP SWAP1 POP DUP1 PUSH1 0x0 ADD PUSH1 0x0 SWAP1 SLOAD SWAP1 PUSH2 0x100 EXP SWAP1 DIV PUSH20 0xFFFFFFFFFFFFFFFFFFFFFFFFFFFFFFFFFFFFFFFF AND SWAP1 DUP1 PUSH1 0x1 ADD DUP1 SLOAD PUSH2 0x5ED SWAP1 PUSH2 0xAFB JUMP JUMPDEST DUP1 PUSH1 0x1F ADD PUSH1 0x20 DUP1 SWAP2 DIV MUL PUSH1 0x20 ADD PUSH1 0x40 MLOAD SWAP1 DUP2 ADD PUSH1 0x40 MSTORE DUP1 SWAP3 SWAP2 SWAP1 DUP2 DUP2 MSTORE PUSH1 0x20 ADD DUP3 DUP1 SLOAD PUSH2 0x619 SWAP1 PUSH2 0xAFB JUMP JUMPDEST DUP1 ISZERO PUSH2 0x666 JUMPI DUP1 PUSH1 0x1F LT PUSH2 0x63B JUMPI PUSH2 0x100 DUP1 DUP4 SLOAD DIV MUL DUP4 MSTORE SWAP2 PUSH1 0x20 ADD SWAP2 PUSH2 0x666 JUMP JUMPDEST DUP3 ADD SWAP2 SWAP1 PUSH1 0x0 MSTORE PUSH1 0x20 PUSH1 0x0 KECCAK256 SWAP1 JUMPDEST DUP2 SLOAD DUP2 MSTORE SWAP1 PUSH1 0x1 ADD SWAP1 PUSH1 0x20 ADD DUP1 DUP4 GT PUSH2 0x649 JUMPI DUP3 SWAP1 SUB PUSH1 0x1F AND DUP3 ADD SWAP2 JUMPDEST POP POP POP POP POP SWAP1 POP DUP3 JUMP JUMPDEST JUMP JUMPDEST DUP3 DUP1 SLOAD PUSH2 0x67E SWAP1 PUSH2 0xAFB JUMP JUMPDEST SWAP1 PUSH1 0x0 MSTORE PUSH1 0x20 PUSH1 0x0 KECCAK256 SWAP1 PUSH1 0x1F ADD PUSH1 0x20 SWAP1 DIV DUP2 ADD SWAP3 DUP3 PUSH2 0x6A0 JUMPI PUSH1 0x0 DUP6 SSTORE PUSH2 0x6E7 JUMP JUMPDEST DUP3 PUSH1 0x1F LT PUSH2 0x6B9 JUMPI DUP1 MLOAD PUSH1 0xFF NOT AND DUP4 DUP1 ADD OR DUP6 SSTORE PUSH2 0x6E7 JUMP JUMPDEST DUP3 DUP1 ADD PUSH1 0x1 ADD DUP6 SSTORE DUP3 ISZERO PUSH2 0x6E7 JUMPI SWAP2 DUP3 ADD JUMPDEST DUP3 DUP2 GT ISZERO PUSH2 0x6E6 JUMPI DUP3 MLOAD DUP3 SSTORE SWAP2 PUSH1 0x20 ADD SWAP2 SWAP1 PUSH1 0x1 ADD SWAP1 PUSH2 0x6CB JUMP JUMPDEST JUMPDEST POP SWAP1 POP PUSH2 0x6F4 SWAP2 SWAP1 PUSH2 0x6F8 JUMP JUMPDEST POP SWAP1 JUMP JUMPDEST JUMPDEST DUP1 DUP3 GT ISZERO PUSH2 0x711 JUMPI PUSH1 0x0 DUP2 PUSH1 0x0 SWAP1 SSTORE POP PUSH1 0x1 ADD PUSH2 0x6F9 JUMP JUMPDEST POP SWAP1 JUMP JUMPDEST PUSH1 0x0 PUSH2 0x728 PUSH2 0x723 DUP5 PUSH2 0xA2F JUMP JUMPDEST PUSH2 0xA0A JUMP JUMPDEST SWAP1 POP DUP3 DUP2 MSTORE PUSH1 0x20 DUP2 ADD DUP5 DUP5 DUP5 ADD GT ISZERO PUSH2 0x744 JUMPI PUSH2 0x743 PUSH2 0xBC1 JUMP JUMPDEST JUMPDEST PUSH2 0x74F DUP5 DUP3 DUP6 PUSH2 0xAB9 JUMP JUMPDEST POP SWAP4 SWAP3 POP POP POP JUMP JUMPDEST PUSH1 0x0 DUP2 CALLDATALOAD SWAP1 POP PUSH2 0x766 DUP2 PUSH2 0xC85 JUMP JUMPDEST SWAP3 SWAP2 POP POP JUMP JUMPDEST PUSH1 0x0 DUP3 PUSH1 0x1F DUP4 ADD SLT PUSH2 0x781 JUMPI PUSH2 0x780 PUSH2 0xBBC JUMP JUMPDEST JUMPDEST DUP2 CALLDATALOAD PUSH2 0x791 DUP5 DUP3 PUSH1 0x20 DUP7 ADD PUSH2 0x715 JUMP JUMPDEST SWAP2 POP POP SWAP3 SWAP2 POP POP JUMP JUMPDEST PUSH1 0x0 PUSH1 0x20 DUP3 DUP5 SUB SLT ISZERO PUSH2 0x7B0 JUMPI PUSH2 0x7AF PUSH2 0xBCB JUMP JUMPDEST JUMPDEST PUSH1 0x0 PUSH2 0x7BE DUP5 DUP3 DUP6 ADD PUSH2 0x757 JUMP JUMPDEST SWAP2 POP POP SWAP3 SWAP2 POP POP JUMP JUMPDEST PUSH1 0x0 DUP1 PUSH1 0x40 DUP4 DUP6 SUB SLT ISZERO PUSH2 0x7DE JUMPI PUSH2 0x7DD PUSH2 0xBCB JUMP JUMPDEST JUMPDEST PUSH1 0x0 DUP4 ADD CALLDATALOAD PUSH8 0xFFFFFFFFFFFFFFFF DUP2 GT ISZERO PUSH2 0x7FC JUMPI PUSH2 0x7FB PUSH2 0xBC6 JUMP JUMPDEST JUMPDEST PUSH2 0x808 DUP6 DUP3 DUP7 ADD PUSH2 0x76C JUMP JUMPDEST SWAP3 POP POP PUSH1 0x20 PUSH2 0x819 DUP6 DUP3 DUP7 ADD PUSH2 0x757 JUMP JUMPDEST SWAP2 POP POP SWAP3 POP SWAP3 SWAP1 POP JUMP JUMPDEST PUSH2 0x82C DUP2 PUSH2 0xA87 JUMP JUMPDEST DUP3 MSTORE POP POP JUMP JUMPDEST PUSH1 0x0 PUSH2 0x83D DUP3 PUSH2 0xA60 JUMP JUMPDEST PUSH2 0x847 DUP2 DUP6 PUSH2 0xA6B JUMP JUMPDEST SWAP4 POP PUSH2 0x857 DUP2 DUP6 PUSH1 0x20 DUP7 ADD PUSH2 0xAC8 JUMP JUMPDEST PUSH2 0x860 DUP2 PUSH2 0xBD0 JUMP JUMPDEST DUP5 ADD SWAP2 POP POP SWAP3 SWAP2 POP POP JUMP JUMPDEST PUSH1 0x0 PUSH2 0x876 DUP3 PUSH2 0xA60 JUMP JUMPDEST PUSH2 0x880 DUP2 DUP6 PUSH2 0xA7C JUMP JUMPDEST SWAP4 POP PUSH2 0x890 DUP2 DUP6 PUSH1 0x20 DUP7 ADD PUSH2 0xAC8 JUMP JUMPDEST DUP1 DUP5 ADD SWAP2 POP POP SWAP3 SWAP2 POP POP JUMP JUMPDEST PUSH1 0x0 PUSH2 0x8A9 PUSH1 0xE DUP4 PUSH2 0xA6B JUMP JUMPDEST SWAP2 POP PUSH2 0x8B4 DUP3 PUSH2 0xBE1 JUMP JUMPDEST PUSH1 0x20 DUP3 ADD SWAP1 POP SWAP2 SWAP1 POP JUMP JUMPDEST PUSH1 0x0 PUSH2 0x8CC PUSH1 0x13 DUP4 PUSH2 0xA6B JUMP JUMPDEST SWAP2 POP PUSH2 0x8D7 DUP3 PUSH2 0xC0A JUMP JUMPDEST PUSH1 0x20 DUP3 ADD SWAP1 POP SWAP2 SWAP1 POP JUMP JUMPDEST PUSH1 0x0 PUSH2 0x8EF PUSH1 0xF DUP4 PUSH2 0xA6B JUMP JUMPDEST SWAP2 POP PUSH2 0x8FA DUP3 PUSH2 0xC33 JUMP JUMPDEST PUSH1 0x20 DUP3 ADD SWAP1 POP SWAP2 SWAP1 POP JUMP JUMPDEST PUSH1 0x0 PUSH2 0x912 PUSH1 0x9 DUP4 PUSH2 0xA6B JUMP JUMPDEST SWAP2 POP PUSH2 0x91D DUP3 PUSH2 0xC5C JUMP JUMPDEST PUSH1 0x20 DUP3 ADD SWAP1 POP SWAP2 SWAP1 POP JUMP JUMPDEST PUSH1 0x0 PUSH2 0x934 DUP3 DUP5 PUSH2 0x86B JUMP JUMPDEST SWAP2 POP DUP2 SWAP1 POP SWAP3 SWAP2 POP POP JUMP JUMPDEST PUSH1 0x0 PUSH1 0x20 DUP3 ADD SWAP1 POP PUSH2 0x954 PUSH1 0x0 DUP4 ADD DUP5 PUSH2 0x823 JUMP JUMPDEST SWAP3 SWAP2 POP POP JUMP JUMPDEST PUSH1 0x0 PUSH1 0x40 DUP3 ADD SWAP1 POP PUSH2 0x96F PUSH1 0x0 DUP4 ADD DUP6 PUSH2 0x823 JUMP JUMPDEST DUP2 DUP2 SUB PUSH1 0x20 DUP4 ADD MSTORE PUSH2 0x981 DUP2 DUP5 PUSH2 0x832 JUMP JUMPDEST SWAP1 POP SWAP4 SWAP3 POP POP POP JUMP JUMPDEST PUSH1 0x0 PUSH1 0x20 DUP3 ADD SWAP1 POP DUP2 DUP2 SUB PUSH1 0x0 DUP4 ADD MSTORE PUSH2 0x9A3 DUP2 PUSH2 0x89C JUMP JUMPDEST SWAP1 POP SWAP2 SWAP1 POP JUMP JUMPDEST PUSH1 0x0 PUSH1 0x20 DUP3 ADD SWAP1 POP DUP2 DUP2 SUB PUSH1 0x0 DUP4 ADD MSTORE PUSH2 0x9C3 DUP2 PUSH2 0x8BF JUMP JUMPDEST SWAP1 POP SWAP2 SWAP1 POP JUMP JUMPDEST PUSH1 0x0 PUSH1 0x20 DUP3 ADD SWAP1 POP DUP2 DUP2 SUB PUSH1 0x0 DUP4 ADD MSTORE PUSH2 0x9E3 DUP2 PUSH2 0x8E2 JUMP JUMPDEST SWAP1 POP SWAP2 SWAP1 POP JUMP JUMPDEST PUSH1 0x0 PUSH1 0x20 DUP3 ADD SWAP1 POP DUP2 DUP2 SUB PUSH1 0x0 DUP4 ADD MSTORE PUSH2 0xA03 DUP2 PUSH2 0x905 JUMP JUMPDEST SWAP1 POP SWAP2 SWAP1 POP JUMP JUMPDEST PUSH1 0x0 PUSH2 0xA14 PUSH2 0xA25 JUMP JUMPDEST SWAP1 POP PUSH2 0xA20 DUP3 DUP3 PUSH2 0xB2D JUMP JUMPDEST SWAP2 SWAP1 POP JUMP JUMPDEST PUSH1 0x0 PUSH1 0x40 MLOAD SWAP1 POP SWAP1 JUMP JUMPDEST PUSH1 0x0 PUSH8 0xFFFFFFFFFFFFFFFF DUP3 GT ISZERO PUSH2 0xA4A JUMPI PUSH2 0xA49 PUSH2 0xB8D JUMP JUMPDEST JUMPDEST PUSH2 0xA53 DUP3 PUSH2 0xBD0 JUMP JUMPDEST SWAP1 POP PUSH1 0x20 DUP2 ADD SWAP1 POP SWAP2 SWAP1 POP JUMP JUMPDEST PUSH1 0x0 DUP2 MLOAD SWAP1 POP SWAP2 SWAP1 POP JUMP JUMPDEST PUSH1 0x0 DUP3 DUP3 MSTORE PUSH1 0x20 DUP3 ADD SWAP1 POP SWAP3 SWAP2 POP POP JUMP JUMPDEST PUSH1 0x0 DUP2 SWAP1 POP SWAP3 SWAP2 POP POP JUMP JUMPDEST PUSH1 0x0 PUSH2 0xA92 DUP3 PUSH2 0xA99 JUMP JUMPDEST SWAP1 POP SWAP2 SWAP1 POP JUMP JUMPDEST PUSH1 0x0 PUSH20 0xFFFFFFFFFFFFFFFFFFFFFFFFFFFFFFFFFFFFFFFF DUP3 AND SWAP1 POP SWAP2 SWAP1 POP JUMP JUMPDEST DUP3 DUP2 DUP4 CALLDATACOPY PUSH1 0x0 DUP4 DUP4 ADD MSTORE POP POP POP JUMP JUMPDEST PUSH1 0x0 JUMPDEST DUP4 DUP2 LT ISZERO PUSH2 0xAE6 JUMPI DUP1 DUP3 ADD MLOAD DUP2 DUP5 ADD MSTORE PUSH1 0x20 DUP2 ADD SWAP1 POP PUSH2 0xACB JUMP JUMPDEST DUP4 DUP2 GT ISZERO PUSH2 0xAF5 JUMPI PUSH1 0x0 DUP5 DUP5 ADD MSTORE JUMPDEST POP POP POP POP JUMP JUMPDEST PUSH1 0x0 PUSH1 0x2 DUP3 DIV SWAP1 POP PUSH1 0x1 DUP3 AND DUP1 PUSH2 0xB13 JUMPI PUSH1 0x7F DUP3 AND SWAP2 POP JUMPDEST PUSH1 0x20 DUP3 LT DUP2 EQ ISZERO PUSH2 0xB27 JUMPI PUSH2 0xB26 PUSH2 0xB5E JUMP JUMPDEST JUMPDEST POP SWAP2 SWAP1 POP JUMP JUMPDEST PUSH2 0xB36 DUP3 PUSH2 0xBD0 JUMP JUMPDEST DUP2 ADD DUP2 DUP2 LT PUSH8 0xFFFFFFFFFFFFFFFF DUP3 GT OR ISZERO PUSH2 0xB55 JUMPI PUSH2 0xB54 PUSH2 0xB8D JUMP JUMPDEST JUMPDEST DUP1 PUSH1 0x40 MSTORE POP POP POP JUMP JUMPDEST PUSH32 0x4E487B7100000000000000000000000000000000000000000000000000000000 PUSH1 0x0 MSTORE PUSH1 0x22 PUSH1 0x4 MSTORE PUSH1 0x24 PUSH1 0x0 REVERT JUMPDEST PUSH32 0x4E487B7100000000000000000000000000000000000000000000000000000000 PUSH1 0x0 MSTORE PUSH1 0x41 PUSH1 0x4 MSTORE PUSH1 0x24 PUSH1 0x0 REVERT JUMPDEST PUSH1 0x0 DUP1 REVERT JUMPDEST PUSH1 0x0 DUP1 REVERT JUMPDEST PUSH1 0x0 DUP1 REVERT JUMPDEST PUSH1 0x0 DUP1 REVERT JUMPDEST PUSH1 0x0 PUSH1 0x1F NOT PUSH1 0x1F DUP4 ADD AND SWAP1 POP SWAP2 SWAP1 POP JUMP JUMPDEST PUSH32 0x456E6A6F7920596F757220454E53000000000000000000000000000000000000 PUSH1 0x0 DUP3 ADD MSTORE POP JUMP JUMPDEST PUSH32 0x54414B4520524553504F4E534942494C49545900000000000000000000000000 PUSH1 0x0 DUP3 ADD MSTORE POP JUMP JUMPDEST PUSH32 0x494E56414C494420414444524553530000000000000000000000000000000000 PUSH1 0x0 DUP3 ADD MSTORE POP JUMP JUMPDEST PUSH32 0x4E4F54204F574E45520000000000000000000000000000000000000000000000 PUSH1 0x0 DUP3 ADD MSTORE POP JUMP JUMPDEST PUSH2 0xC8E DUP2 PUSH2 0xA87 JUMP JUMPDEST DUP2 EQ PUSH2 0xC99 JUMPI PUSH1 0x0 DUP1 REVERT JUMPDEST POP JUMP INVALID LOG2 PUSH5 0x6970667358 0x22 SLT KECCAK256 0x28 0xE4 0xE1 0xE2 EXTCODESIZE ADDRESS TIMESTAMP 0xCE 0xED ADD 0xAF DUP8 0xEF 0xD4 BASEFEE PUSH7 0x4B562BCF666C16 0x2D PUSH6 0x7BCBAD49E1D8 0x2C PUSH5 0x736F6C6343 STOP ADDMOD SMOD STOP CALLER "
				},
				"gasEstimates": {
					"creation": {
						"codeDepositCost": "656400",
						"executionCost": "24955",
						"totalCost": "681355"
					},
					"external": {
						"addName(string,address)": "infinite",
						"anyOneCall()": "232",
						"owner()": "2558",
						"register()": "infinite",
						"registeredNames(address)": "infinite",
						"setOwner(string,address)": "infinite"
					}
				},
				"methodIdentifiers": {
					"addName(string,address)": "15f0e1cc",
					"anyOneCall()": "b39cdb26",
					"owner()": "8da5cb5b",
					"register()": "1aa3a008",
					"registeredNames(address)": "93b45253",
					"setOwner(string,address)": "092b25e9"
				}
			},
			"storageLayout": {
				"storage": [
					{
						"astId": 9,
						"contract": "web3_walkIn/starterENS.sol:myENS",
						"label": "register",
						"offset": 0,
						"slot": "0",
						"type": "t_struct(Register)6_storage"
					},
					{
						"astId": 14,
						"contract": "web3_walkIn/starterENS.sol:myENS",
						"label": "registeredNames",
						"offset": 0,
						"slot": "2",
						"type": "t_mapping(t_address,t_struct(Register)6_storage)"
					},
					{
						"astId": 16,
						"contract": "web3_walkIn/starterENS.sol:myENS",
						"label": "owner",
						"offset": 0,
						"slot": "3",
						"type": "t_address"
					}
				],
				"types": {
					"t_address": {
						"encoding": "inplace",
						"label": "address",
						"numberOfBytes": "20"
					},
					"t_mapping(t_address,t_struct(Register)6_storage)": {
						"encoding": "mapping",
						"key": "t_address",
						"label": "mapping(address => struct myENS.Register)",
						"numberOfBytes": "32",
						"value": "t_struct(Register)6_storage"
					},
					"t_string_storage": {
						"encoding": "bytes",
						"label": "string",
						"numberOfBytes": "32"
					},
					"t_struct(Register)6_storage": {
						"encoding": "inplace",
						"label": "struct myENS.Register",
						"members": [
							{
								"astId": 3,
								"contract": "web3_walkIn/starterENS.sol:myENS",
								"label": "addr",
								"offset": 0,
								"slot": "0",
								"type": "t_address"
							},
							{
								"astId": 5,
								"contract": "web3_walkIn/starterENS.sol:myENS",
								"label": "oName",
								"offset": 0,
								"slot": "1",
								"type": "t_string_storage"
							}
						],
						"numberOfBytes": "64"
					}
				}
			},
			"userdoc": {
				"kind": "user",
				"methods": {},
				"version": 1
			}
		}
	}
}